S00D00007A65706879722E73313945
S306500000001396
S3065000000100A8
S3065000000200A7
S3065000000300A6
S306500000041392
S3065000000500A4
S3065000000600A3
S3065000000700A2
S30650000008138E
S3065000000900A0
S3065000000A009F
S3065000000B009E
S3065000000C138A
S3065000000D009C
S3065000000E009B
S3065000000F009A
S306500000101386
S306500000110098
S306500000120097
S306500000130096
S306500000141382
S306500000150094
S306500000160093
S306500000170092
S30650000018137E
S306500000190090
S3065000001A008F
S3065000001B008E
S3065000001C137A
S3065000001D008C
S3065000001E008B
S3065000001F008A
S306500000201376
S306500000210088
S306500000220087
S306500000230086
S306500000241372
S306500000250084
S306500000260083
S306500000270082
S30650000028136E
S306500000290080
S3065000002A007F
S3065000002B007E
S3065000002C136A
S3065000002D007C
S3065000002E007B
S3065000002F007A
S306500000301366
S306500000310078
S306500000320077
S306500000330076
S306500000341362
S306500000350074
S306500000360073
S306500000370072
S30650000038135E
S306500000390070
S3065000003A006F
S3065000003B006E
S3065000003C6FFE
S3065000003D006C
S3065000003E80EB
S3065000003F0565
S306500000406FFA
S306500000410068
S306500000424027
S306500000430561
S306500000446FF6
S306500000450064
S306500000460063
S30650000047055D
S306500000486FF2
S306500000490060
S3065000004AC09F
S3065000004B045A
S3065000004C6FEE
S3065000004D005C
S3065000004E80DB
S3065000004F0456
S306500000506FEA
S306500000510058
S306500000524017
S306500000530452
S306500000546FE6
S306500000550054
S306500000560053
S30650000057044E
S306500000586FE2
S306500000590050
S3065000005AC08F
S3065000005B034B
S3065000005C6FDE
S3065000005D004C
S3065000005E80CB
S3065000005F0347
S306500000606FDA
S306500000610048
S306500000624007
S306500000630343
S306500000646FD6
S306500000650044
S306500000660043
S30650000067033F
S306500000686FD2
S306500000690040
S3065000006AC07F
S3065000006B023C
S3065000006C6FCE
S3065000006D003C
S3065000006E80BB
S3065000006F0238
S306500000706FCA
S306500000710038
S3065000007240F7
S306500000730234
S306500000746FC6
S306500000750034
S306500000760033
S306500000770230
S306500000786FC2
S306500000790030
S3065000007AC06F
S3065000007B012D
S3065000007C6FBE
S3065000007D002C
S3065000007E80AB
S3065000007F0129
S306500000806FBA
S306500000810028
S306500000820027
S306500000830125
S306500000846FB6
S306500000850024
S306500000860023
S306500000870121
S306500000886FB2
S306500000890020
S3065000008AC05F
S3065000008B001E
S3065000008C6FAE
S3065000008D001C
S3065000008E809B
S3065000008F001A
S30650000090EF2A
S3065000009150C8
S30650000092C057
S3065000009333E3
S306500000941302
S306500000950113
S306500000960112
S30650000097F919
S3065000009823EE
S3065000009920F0
S3065000009A11FE
S3065000009B000E
S3065000009C23EA
S3065000009D22EA
S3065000009E31DA
S3065000009F000A
S306500000A023E6
S306500000A124E4
S306500000A241C6
S306500000A30006
S306500000A423E2
S306500000A526DE
S306500000A651B2
S306500000A70002
S306500000A823DE
S306500000A928D8
S306500000AA619E
S306500000AB00FE
S306500000AC23DA
S306500000AD2AD2
S306500000AE718A
S306500000AF00FA
S306500000B023D6
S306500000B12CCC
S306500000B2C136
S306500000B301F5
S306500000B423D2
S306500000B52EC6
S306500000B6D122
S306500000B701F1
S306500000B823CE
S306500000B920D0
S306500000BAE10E
S306500000BB03EB
S306500000BC23CA
S306500000BD22CA
S306500000BEF1FA
S306500000BF03E7
S306500000C023C6
S306500000C124C4
S306500000C2A146
S306500000C302E4
S306500000C423C2
S306500000C526BE
S306500000C6B132
S306500000C702E0
S306500000C823BE
S306500000C928B8
S306500000CAC11E
S306500000CB02DC
S306500000CC23BA
S306500000CD2AB2
S306500000CED10A
S306500000CF02D8
S306500000D023B6
S306500000D12CAC
S306500000D2E1F6
S306500000D302D4
S306500000D423B2
S306500000D52EA6
S306500000D6F1E2
S306500000D702D0
S306500000D823AE
S306500000D920B0
S306500000DA01CE
S306500000DB05C9
S306500000DC23AA
S306500000DD22AA
S306500000DE11BA
S306500000DF05C5
S306500000E0F3D6
S306500000E122A6
S306500000E210B7
S306500000E33492
S306500000E423A2
S306500000E524A0
S306500000E65172
S306500000E704BE
S306500000E8F3CE
S306500000E9229E
S306500000EA00BF
S306500000EB7C42
S306500000EC239A
S306500000ED2696
S306500000EE516A
S306500000EF04B6
S306500000F0EFCA
S306500000F100B8
S306500000F28037
S306500000F31C9A
S306500000F4EFC6
S306500000F500B4
S306500000F600B3
S306500000F7258D
S306500000F8139E
S306500000F903AD
S306500000FA00AF
S306500000FB00AE
S306500000FC634A
S306500000FD1A92
S306500000FE05A6
S306500000FF02A8
S306500001008325
S306500001012285
S306500001028125
S3065000010304A1
S306500001049311
S306500001058221
S306500001064260
S3065000010700A1
S30650000108237D
S30650000109247B
S3065000010A514D
S3065000010B0499
S3065000010CF3A9
S3065000010D2279
S3065000010E207A
S3065000010F3465
S306500001109305
S306500001110394
S30650000112F0A6
S306500001130194
S30650000114B3E1
S30650000115F2A1
S306500001167220
S306500001170091
S30650000118137D
S30650000119038C
S3065000011AB0DE
S3065000011B008D
S3065000011C6329
S3065000011D8407
S3065000011E6228
S3065000011F0A7F
S306500001201375
S306500001210582
S306500001220185
S306500001230085
S3065000012497ED
S306500001250083
S306500001260082
S306500001270081
S3065000012893ED
S3065000012980FF
S3065000012A007E
S3065000012B136A
S3065000012C6F0D
S3065000012D502B
S3065000012E403A
S3065000012F4534
S3065000013093E5
S306500001310275
S306500001320175
S306500001330075
S3065000013497DD
S306500001352350
S306500001360072
S306500001370170
S3065000013893DD
S3065000013983EC
S3065000013AC3AB
S3065000013B1855
S3065000013C0369
S3065000013DA1CA
S3065000013E4327
S3065000013F0069
S306500001401355
S306500001410166
S306500001420165
S30650000143FF66
S306500001442341
S306500001452043
S306500001465111
S306500001470061
S30650000148035D
S30650000149AEB1
S3065000014A035B
S3065000014B005D
S3065000014C1349
S3065000014D0E4D
S3065000014E1E3C
S3065000014F0059
S306500001502335
S30650000151A0B7
S30650000152C393
S306500001530154
S3065000015463F1
S30650000155084B
S30650000156034F
S306500001570051
S3065000015897B9
S30650000159004F
S3065000015A004E
S3065000015B004D
S3065000015C93B9
S3065000015D80CB
S3065000015E80CA
S3065000015F0346
S306500001606FD9
S3065000016150F7
S3065000016280C6
S3065000016356EF
S3065000016473D1
S30650000165251E
S306500001662022
S30650000167340D
S3065000016893AD
S30650000169023D
S3065000016AF04E
S3065000016B013C
S3065000016C3309
S3065000016D75C6
S3065000016E55E5
S3065000016F0039
S30650000170EF49
S306500001710037
S306500001720036
S306500001731B1A
S30650000174979D
S306500001750231
S306500001760032
S306500001770130
S30650000178939D
S3065000017982AD
S3065000017A022C
S3065000017BEE3F
S3065000017C1319
S3065000017D1516
S3065000017E35F5
S3065000017F0029
S30650000180B375
S3065000018182A5
S30650000182A284
S306500001830025
S306500001840321
S30650000185A57E
S306500001860220
S306500001870021
S30650000188031D
S30650000189A37C
S3065000018A42DC
S3065000018B001D
S3065000018CE735
S3065000018D001B
S3065000018E0317
S3065000018F0019
S306500001901701
S3065000019123F4
S306500001920016
S306500001930114
S306500001941301
S306500001950310
S30650000196030F
S3065000019713FE
S30650000198838D
S3065000019923EC
S3065000019A030B
S3065000019B000D
S3065000019C9379
S3065000019D8388
S3065000019EF317
S3065000019FFF0A
S306500001A023E5
S306500001A120E7
S306500001A27393
S306500001A30005
S306500001A48381
S306500001A522E1
S306500001A60101
S306500001A70001
S306500001A813ED
S306500001A9817E
S306500001AA02FC
S306500001AB00FD
S306500001AC8379
S306500001AD23D8
S306500001AE8377
S306500001AF00F9
S306500001B003F5
S306500001B1DE19
S306500001B2A353
S306500001B300F5
S306500001B49361
S306500001B50EE5
S306500001B600F2
S306500001B708E9
S306500001B8638D
S306500001B97E71
S306500001BADE10
S306500001BB09E4
S306500001BC03E9
S306500001BD2EBD
S306500001BE43A7
S306500001BF01E8
S306500001C06385
S306500001C10ADD
S306500001C27E68
S306500001C308DD
S306500001C4EFF5
S306500001C56083
S306500001C640A2
S306500001C7538E
S306500001C89749
S306500001C922BD
S306500001CA00DE
S306500001CB01DC
S306500001CC9349
S306500001CD8259
S306500001CE8258
S306500001CF0FCA
S306500001D003D5
S306500001D1A334
S306500001D28254
S306500001D300D5
S306500001D423B1
S306500001D526AD
S306500001D6834F
S306500001D702CF
S306500001D823AD
S306500001D928A7
S306500001DA933B
S306500001DB02CB
S306500001DC23A9
S306500001DD2AA1
S306500001DE23A7
S306500001DF03C6
S306500001E023A5
S306500001E12C9B
S306500001E23393
S306500001E303C2
S306500001E423A1
S306500001E52E95
S306500001E6437F
S306500001E703BE
S306500001E8239D
S306500001E9209F
S306500001EA536B
S306500001EB05B8
S306500001EC2399
S306500001ED2299
S306500001EE6357
S306500001EF05B4
S306500001F02395
S306500001F12493
S306500001F27343
S306500001F305B0
S306500001F42391
S306500001F5268D
S306500001F6832F
S306500001F705AC
S306500001F8238D
S306500001F92887
S306500001FA931B
S306500001FB05A8
S306500001FC2389
S306500001FD2A81
S306500001FEA307
S306500001FF05A4
S306500002002384
S306500002012C7A
S30650000202B3F2
S30650000203059F
S306500002042380
S30650000205247E
S30650000206237E
S30650000207029E
S306500002089708
S30650000209237B
S3065000020A009D
S3065000020B019B
S3065000020C9308
S3065000020D8317
S3065000020E4356
S3065000020FAEEA
S306500002100394
S30650000211AEE8
S306500002120392
S306500002130094
S306500002142370
S30650000215246E
S30650000216C3CE
S306500002170789
S30650000218038C
S30650000219A3EB
S3065000021A424B
S3065000021B018B
S3065000021C2368
S3065000021DA4E6
S3065000021E6227
S3065000021F0088
S306500002200384
S306500002212165
S306500002228302
S306500002230282
S306500002240380
S30650000225245E
S30650000226C3BE
S30650000227027E
S3065000022883FC
S30650000229245A
S3065000022A037A
S3065000022B0379
S3065000022C0378
S3065000022D2951
S3065000022E4336
S3065000022F0375
S3065000023083F4
S30650000231294D
S3065000023283F2
S306500002330371
S306500002340370
S306500002352A48
S30650000236C3AE
S30650000237036D
S3065000023883EC
S306500002392A44
S3065000023A036A
S3065000023B0468
S3065000023C0368
S3065000023D2B3F
S3065000023E4326
S3065000023F0464
S3065000024083E4
S306500002412B3B
S3065000024283E2
S306500002430460
S306500002440360
S306500002452C36
S30650000246C39E
S30650000247045C
S3065000024883DC
S306500002492C32
S3065000024A035A
S3065000024B0557
S3065000024C0358
S3065000024D2D2D
S3065000024E4316
S3065000024F0553
S3065000025083D4
S306500002512D29
S3065000025283D2
S30650000253054F
S30650000254EF64
S306500002550052
S3065000025680D1
S306500002570947
S3065000025883CC
S30650000259222C
S3065000025A81CC
S3065000025B0448
S3065000025C73D8
S3065000025D90BA
S3065000025E1237
S3065000025F3414
S3065000026083C4
S306500002612224
S30650000262C184
S306500002630440
S3065000026473D0
S3065000026590B2
S30650000266023F
S306500002677CC4
S3065000026883BC
S30650000269201E
S3065000026A013C
S3065000026B003C
S3065000026C83B8
S3065000026D2119
S3065000026E41F8
S3065000026F0038
S306500002700334
S306500002712214
S3065000027281B4
S306500002730034
S3065000027483B0
S306500002752210
S30650000276C170
S306500002770030
S30650000278032C
S30650000279230B
S3065000027A012C
S3065000027B012B
S3065000027C83A8
S3065000027D2307
S3065000027E41E8
S3065000027F0127
S306500002800324
S306500002812EF8
S3065000028281A4
S306500002830123
S3065000028483A0
S306500002852EF4
S30650000286C160
S30650000287011F
S30650000288031C
S306500002892FEF
S3065000028A011C
S3065000028B021A
S3065000028C8398
S3065000028D2FEB
S3065000028E41D8
S3065000028F0216
S306500002900314
S3065000029125F1
S306500002928194
S306500002930212
S306500002948390
S3065000029525ED
S30650000296C150
S30650000297020E
S30650000298030C
S3065000029926E8
S3065000029A010C
S3065000029B0309
S3065000029C8388
S3065000029D26E4
S3065000029E41C8
S3065000029F0305
S306500002A00304
S306500002A127DF
S306500002A28184
S306500002A30301
S306500002A48380
S306500002A527DB
S306500002A6C140
S306500002A703FD
S306500002A803FC
S306500002A928D6
S306500002AA01FC
S306500002AB04F8
S306500002AC8378
S306500002AD28D2
S306500002AE41B8
S306500002AF04F4
S306500002B013E4
S306500002B101F5
S306500002B201F4
S306500002B307ED
S306500002B47380
S306500002B500F2
S306500002B600F1
S306500002B710E0
S306500002B8F3FC
S306500002B922CC
S306500002BA00ED
S306500002BB7B71
S306500002BC7378
S306500002BD23C7
S306500002BE10D9
S306500002BF7B6D
S306500002C0F3F4
S306500002C123C3
S306500002C220C5
S306500002C37B69
S306500002C423C0
S306500002C528BA
S306500002C65190
S306500002C704DC
S306500002C823BC
S306500002C92AB4
S306500002CA617C
S306500002CB04D8
S306500002CC23B8
S306500002CD2CAE
S306500002CE7168
S306500002CF04D4
S306500002D0F3E4
S306500002D122B4
S306500002D24095
S306500002D37B59
S306500002D47360
S306500002D523AF
S306500002D65081
S306500002D77B55
S306500002D8F3DC
S306500002D923AB
S306500002DA606D
S306500002DB7B51
S306500002DC23A8
S306500002DD2E9C
S306500002DE5178
S306500002DF04C4
S306500002E023A4
S306500002E120A6
S306500002E26164
S306500002E306BE
S306500002E423A0
S306500002E522A0
S306500002E67150
S306500002E706BA
S306500002E86758
S306500002E9803E
S306500002EA00BD
S306500002EB00BC
S306500002EC8338
S306500002ED2298
S306500002EE01B8
S306500002EF05B3
S306500002F003B4
S306500002F12393
S306500002F24174
S306500002F305AF
S306500002F48330
S306500002F5238F
S306500002F68130
S306500002F705AB
S306500002F8733C
S306500002F9901E
S306500002FA02AB
S306500002FB7B31
S306500002FC7338
S306500002FD109A
S306500002FE1396
S306500002FF7B2D
S306500003007333
S306500003019015
S306500003022381
S306500003037B28
S30650000304831F
S30650000305227F
S30650000306C1DF
S30650000307059A
S30650000308039B
S30650000309237A
S3065000030A019B
S3065000030B0695
S3065000030C8317
S3065000030D2376
S3065000030E4157
S3065000030F0691
S306500003107323
S306500003119005
S306500003124252
S306500003137B18
S30650000314731F
S306500003151081
S30650000316533D
S306500003177B14
S30650000318731B
S3065000031990FD
S3065000031A6329
S3065000031B7B10
S3065000031C6723
S3065000031D8009
S3065000031E0088
S3065000031F0087
S30650000320374F
S306500003214342
S306500003221074
S306500003231A69
S30650000324136F
S30650000325037E
S30650000326C3BD
S30650000327007F
S3065000032893EB
S30650000329037A
S3065000032A106C
S3065000032B007B
S3065000032C3347
S3065000032D9EDB
S3065000032EA3D5
S3065000032F0077
S306500003302353
S306500003312055
S30650000332C3B1
S306500003330172
S30650000334373B
S30650000335432E
S306500003361060
S306500003371A55
S30650000338135B
S30650000339036A
S3065000033AC3A9
S3065000033B016A
S3065000033C2347
S3065000033D2049
S3065000033EC3A5
S3065000033F0166
S3065000034067FF
S3065000034180E5
S306500003420064
S306500003430063
S30650000344F36F
S30650000345223F
S306500003462040
S30650000347342B
S3065000034893CB
S30650000349F26B
S3065000034AF26A
S3065000034B015A
S3065000034C1347
S3065000034D0356
S3065000034EF068
S3065000034F0057
S306500003501343
S306500003510550
S306500003520054
S306500003530053
S3065000035463EF
S30650000355C48D
S3065000035662EE
S30650000357004F
S30650000358133B
S306500003590548
S3065000035A1537
S3065000035B004B
S3065000035C67E3
S3065000035D80C9
S3065000035E0048
S3065000035F0047
S3065000036073D3
S306500003610045
S306500003620044
S306500003630043
S3065000036497AB
S30650000365221F
S306500003660040
S30650000367013E
S3065000036893AB
S3065000036982BB
S3065000036AC27A
S3065000036BF546
S3065000036C0337
S3065000036DA396
S3065000036E82B6
S3065000036F0037
S3065000037083B3
S306500003712312
S3065000037283B1
S30650000373062D
S30650000374131F
S3065000037575BC
S30650000376151B
S30650000377002F
S30650000378F33B
S30650000379220B
S3065000037A0527
S3065000037B30FB
S3065000037C1317
S3065000037D85A4
S3065000037E0325
S3065000037F0027
S3065000038067BF
S3065000038180A5
S306500003820024
S306500003830023
S30650000384130F
S306500003850120
S30650000386011F
S30650000387FF20
S30650000388130B
S306500003890518
S3065000038A001C
S3065000038B001B
S3065000038C23F7
S3065000038D26F3
S3065000038E1107
S3065000038F0017
S30650000390EF27
S3065000039140D5
S306500003920014
S306500003937C97
S3065000039463AF
S306500003950E03
S30650000396050B
S30650000397000F
S30650000398937B
S306500003990508
S3065000039A0507
S3065000039B000B
S3065000039C37D3
S3065000039D0504
S3065000039E0008
S3065000039F51B6
S306500003A08383
S306500003A120E5
S306500003A2C143
S306500003A30003
S306500003A413EF
S306500003A505FC
S306500003A6C53B
S306500003A717E8
S306500003A813EB
S306500003A901FC
S306500003AA01FB
S306500003AB01FA
S306500003AC6F8B
S306500003AD10E9
S306500003AE9068
S306500003AF37C0
S306500003B037BF
S306500003B105F0
S306500003B200F4
S306500003B351A2
S306500003B4836F
S306500003B520D1
S306500003B6C12F
S306500003B700EF
S306500003B813DB
S306500003B905E8
S306500003BAC527
S306500003BB19D2
S306500003BC13D7
S306500003BD01E8
S306500003BE01E7
S306500003BF01E6
S306500003C06F77
S306500003C110D5
S306500003C25094
S306500003C336AD
S306500003C4934F
S306500003C507DA
S306500003C605DB
S306500003C700DF
S306500003C80BD3
S306500003C9C716
S306500003CA15C7
S306500003CB00DB
S306500003CC6377
S306500003CD06D3
S306500003CE07D1
S306500003CF00D7
S306500003D0AB2B
S306500003D18055
S306500003D2E7ED
S306500003D300D3
S306500003D46F63
S306500003D5F0E1
S306500003D65F71
S306500003D7FFD0
S306500003D823AB
S306500003D9804D
S306500003DA07C5
S306500003DB00CB
S306500003DC6763
S306500003DD8049
S306500003DE00C8
S306500003DF00C7
S306500003E08B3B
S306500003E1477E
S306500003E215AF
S306500003E300C3
S306500003E40BB7
S306500003E5C7FA
S306500003E615AB
S306500003E700BF
S306500003E8635B
S306500003E99627
S306500003EAE7D5
S306500003EB00BB
S306500003ECE3D7
S306500003ED9A1F
S306500003EE07B1
S306500003EFFEB9
S306500003F013A3
S306500003F1872E
S306500003F207AD
S306500003F300B3
S306500003F4337F
S306500003F5852C
S306500003F6E7C9
S306500003F7406F
S306500003F86747
S306500003F9802D
S306500003FA00AC
S306500003FB00AB
S306500003FC6347
S306500003FD0E9B
S306500003FE06A2
S306500003FF02A5
S306500004001392
S30650000401871D
S30650000402059E
S3065000040300A2
S30650000404930E
S306500004050799
S30650000406059A
S30650000407009E
S30650000408138A
S306500004090696
S3065000040AF6A5
S3065000040BFF9B
S3065000040C6336
S3065000040D1A7E
S3065000040E0691
S3065000040F0096
S306500004108312
S30650000411C7CD
S30650000412078C
S306500004130092
S30650000414038E
S30650000415454B
S306500004160788
S30650000417008E
S30650000418335A
S306500004198507
S3065000041AA7E4
S3065000041B404A
S3065000041C6722
S3065000041D8008
S3065000041E0087
S3065000041F0086
S306500004200382
S30650000421C8BC
S30650000422077C
S306500004230082
S3065000042483FE
S30650000425463A
S306500004260778
S30650000427007E
S30650000428136A
S306500004290577
S3065000042A1566
S3065000042B007A
S3065000042C93E6
S3065000042D85F3
S3065000042E1562
S3065000042F0076
S30650000430E392
S30650000431086C
S30650000432D89B
S30650000433FC76
S306500004346F02
S30650000435F080
S30650000436DF90
S30650000437FD71
S30650000438135A
S306500004390567
S3065000043A006B
S3065000043B006A
S3065000043C6702
S3065000043D80E8
S3065000043E0067
S3065000043F0066
S30650000440B3B2
S30650000441C79D
S30650000442A5BE
S306500004430062
S30650000444B3AE
S30650000445B7A9
S306500004462738
S30650000447FA64
S3065000044863FA
S3065000044988D4
S3065000044A0754
S3065000044B005A
S3065000044C93C6
S3065000044D0751
S3065000044E0552
S3065000044F0056
S306500004501342
S30650000451064E
S30650000452163D
S306500004530052
S306500004546FE2
S306500004550050
S3065000045680CF
S306500004570747
S30650000458133A
S306500004590745
S3065000045A0546
S3065000045B004A
S3065000045C93B6
S3065000045D0642
S3065000045E1631
S3065000045F0046
S306500004603312
S30650000461380C
S30650000462271C
S30650000463FA48
S3065000046493AE
S306500004650739
S306500004660738
S30650000467003E
S3065000046863DA
S30650000469003C
S3065000046A0833
S3065000046B0238
S3065000046C93A6
S3065000046D86B2
S3065000046EF641
S3065000046FFF37
S3065000047063D2
S3065000047194A0
S30650000472062D
S306500004730032
S3065000047467CA
S3065000047580B0
S30650000476002F
S30650000477002E
S306500004788BA2
S3065000047987A5
S3065000047A1516
S3065000047B002A
S3065000047C1316
S3065000047D0622
S3065000047EF631
S3065000047FFF27
S30650000480AB7A
S306500004810024
S30650000482F72C
S306500004830022
S306500004846FB2
S30650000485F030
S30650000486DF40
S30650000487FD21
S30650000488938A
S3065000048956C6
S3065000048A26F5
S3065000048B001A
S3065000048C1306
S3065000048D8890
S3065000048E0512
S3065000048F0016
S306500004909382
S30650000491868E
S3065000049216FD
S306500004930012
S30650000494937E
S30650000495868A
S30650000496F619
S30650000497FF0F
S3065000049863AA
S30650000499907C
S3065000049A0605
S3065000049B0208
S3065000049C13F6
S3065000049D57B1
S3065000049E26E1
S3065000049F0006
S306500004A09372
S306500004A106FE
S306500004A2C043
S306500004A3FF03
S306500004A433CE
S306500004A506FA
S306500004A6D728
S306500004A742BC
S306500004A813EA
S306500004A917E5
S306500004AA27D4
S306500004AB00FA
S306500004ACB346
S306500004AD8771
S306500004AEE710
S306500004AF00F6
S306500004B0B342
S306500004B1856F
S306500004B2E50E
S306500004B300F2
S306500004B46F82
S306500004B5F000
S306500004B6DF10
S306500004B7F9F5
S306500004B88B62
S306500004B928C4
S306500004BA48A3
S306500004BB00EA
S306500004BC2BBE
S306500004BD22C6
S306500004BE17D0
S306500004BF01E5
S306500004C06F76
S306500004C1F0F4
S306500004C25F84
S306500004C3FDE5
S306500004C40BD6
S306500004C58759
S306500004C615CA
S306500004C700DE
S306500004C8AB32
S306500004C9805C
S306500004CAE7F4
S306500004CB00DA
S306500004CC13C6
S306500004CD06D2
S306500004CEF6E1
S306500004CFFFD7
S306500004D0E3F2
S306500004D11ABA
S306500004D206CD
S306500004D3FED4
S306500004D4676A
S306500004D58050
S306500004D600CF
S306500004D700CE
S306500004D8933A
S306500004D9F6D6
S306500004DAF5D6
S306500004DB0FBB
S306500004DC9336
S306500004DD07C1
S306500004DE05C2
S306500004DF00C6
S306500004E013B2
S306500004E107BD
S306500004E216AD
S306500004E300C2
S306500004E4338E
S306500004E5B808
S306500004E62798
S306500004E7FAC4
S306500004E8635A
S306500004E90EAE
S306500004EA08B3
S306500004EB00BA
S306500004EC13A6
S306500004ED07B1
S306500004EEF7C0
S306500004EFFFB7
S306500004F06352
S306500004F114A0
S306500004F207AC
S306500004F300B2
S306500004F4674A
S306500004F58030
S306500004F600AF
S306500004F700AE
S306500004F8AB02
S306500004F9802C
S306500004FAD7D4
S306500004FB00AA
S306500004FC1396
S306500004FD06A2
S306500004FEF6B1
S306500004FFFFA7
S306500005006F35
S30650000501F0B3
S306500005025F43
S30650000503FEA3
S30650000504B3ED
S30650000505B5EA
S306500005068519
S30650000507EEAF
S306500005081389
S306500005099704
S3065000050A8515
S3065000050B0099
S3065000050CB3E5
S3065000050DE5B2
S3065000050EE5B1
S3065000050F0095
S306500005101381
S3065000051197FC
S30650000512058D
S306500005130190
S30650000514B3DD
S30650000515E5AA
S30650000516E5A9
S30650000517008D
S306500005181379
S306500005195734
S3065000051A2664
S3065000051B0089
S3065000051C1375
S3065000051D88FF
S3065000051E077F
S3065000051F0085
S306500005201371
S30650000521077C
S30650000522176B
S306500005230081
S30650000524136D
S306500005250778
S30650000526F787
S30650000527FF7E
S306500005286319
S30650000529106B
S3065000052A0773
S3065000052B0277
S3065000052C1365
S3065000052D5720
S3065000052E2650
S3065000052F0075
S3065000053093E1
S30650000531155E
S30650000532274B
S306500005330071
S30650000534B3BD
S3065000053587E8
S30650000536B7B7
S30650000537006D
S3065000053893D9
S306500005390566
S3065000053AC0AA
S3065000053BFF6A
S3065000053C3335
S3065000053D0661
S3065000053EB7AF
S3065000053F4223
S306500005401351
S30650000541065D
S30650000542164C
S306500005430061
S306500005446FF1
S30650000545005F
S30650000546005E
S30650000547015C
S306500005482B31
S306500005492239
S3065000054AB8A2
S3065000054B0059
S3065000054C6FE9
S3065000054DF067
S3065000054E9FB7
S3065000054FFD58
S30650000550ABA9
S3065000055180D3
S30650000552D77B
S306500005530051
S30650000554133D
S306500005550649
S30650000556F658
S30650000557FF4E
S30650000558E369
S306500005591C2F
S3065000055A0644
S3065000055BFE4B
S3065000055C67E1
S3065000055D80C7
S3065000055E0046
S3065000055F0045
S306500005601331
S306500005610142
S306500005620141
S30650000563FF42
S30650000564231D
S30650000565241B
S3065000056681BD
S30650000567003D
S306500005683705
S306500005692417
S3065000056A003A
S3065000056B51E8
S3065000056C2315
S3065000056D2215
S3065000056E91A5
S3065000056F0035
S306500005702311
S30650000571260D
S306500005721121
S306500005730031
S30650000574939D
S30650000575042B
S306500005760529
S30650000577002D
S306500005781319
S306500005790427
S3065000057A0426
S3065000057BD059
S3065000057C63C5
S3065000057D3CEB
S3065000057EA581
S3065000057F0025
S306500005800321
S3065000058125FE
S30650000582041E
S306500005830021
S30650000584938D
S30650000585051A
S30650000586D04E
S30650000587001D
S306500005888399
S3065000058927F4
S3065000058A45D5
S3065000058B0019
S3065000058C8395
S3065000058DA770
S3065000058E47CF
S3065000058F0015
S30650000590E72D
S306500005918093
S30650000592070B
S306500005930011
S30650000594030D
S3065000059525EA
S30650000596040A
S30650000597000D
S306500005989379
S30650000599F516
S3065000059AF416
S3065000059B0FFA
S3065000059C8385
S3065000059D27E0
S3065000059E45C1
S3065000059F0005
S306500005A08381
S306500005A1A75C
S306500005A247BB
S306500005A30001
S306500005A4E719
S306500005A5807F
S306500005A607F7
S306500005A700FD
S306500005A88379
S306500005A920DB
S306500005AAC139
S306500005AB00F9
S306500005AC13E5
S306500005AD8572
S306500005AE04F2
S306500005AF00F5
S306500005B003F1
S306500005B124CF
S306500005B28171
S306500005B300F1
S306500005B4836D
S306500005B524CB
S306500005B641AD
S306500005B700ED
S306500005B813D9
S306500005B901EA
S306500005BA01E9
S306500005BB01E8
S306500005BC6781
S306500005BD8067
S306500005BE00E6
S306500005BF00E5
S306500005C037AD
S306500005C105DE
S306500005C200E2
S306500005C35091
S306500005C413CD
S306500005C505DA
S306500005C605D9
S306500005C75687
S306500005C86F6D
S306500005C910CB
S306500005CAC01A
S306500005CB5881
S306500005CC37A1
S306500005CD05D2
S306500005CE00D6
S306500005CF5184
S306500005D013C1
S306500005D101D2
S306500005D201D1
S306500005D3FFD2
S306500005D413BD
S306500005D505CA
S306500005D64589
S306500005D71BB2
S306500005D823A9
S306500005D926A5
S306500005DA11B9
S306500005DB00C9
S306500005DCEFD9
S306500005DD5077
S306500005DEC006
S306500005DF1DA8
S306500005E0B70D
S306500005E1279C
S306500005E200C2
S306500005E35170
S306500005E4239D
S306500005E5A01F
S306500005E6A717
S306500005E7D0ED
S306500005E8EFCD
S306500005E9F0CB
S306500005EA9F1B
S306500005EBFDBC
S306500005EC8335
S306500005ED2097
S306500005EEC1F5
S306500005EF00B5
S306500005F013A1
S306500005F105AE
S306500005F200B2
S306500005F300B1
S306500005F4139D
S306500005F501AE
S306500005F601AD
S306500005F701AC
S306500005F86745
S306500005F9802B
S306500005FA00AA
S306500005FB00A9
S306500005FC1395
S306500005FD01A6
S306500005FE01A5
S306500005FFFFA6
S3065000060003A0
S30650000601267C
S30650000602851C
S3065000060300A0
S30650000604237C
S306500006052678
S30650000606118C
S30650000607009C
S306500006081388
S306500006090793
S3065000060A1089
S3065000060B0098
S3065000060CA3F4
S3065000060D0492
S3065000060E068F
S3065000060F0094
S306500006107320
S30650000611375B
S30650000612078A
S306500006133060
S30650000614830C
S306500006152569
S306500006164647
S30650000617008C
S306500006183358
S306500006193753
S3065000061A1772
S3065000061BFC8C
S3065000061C6324
S3065000061D8AFC
S3065000061E0580
S3065000061F067E
S306500006208300
S30650000621275B
S30650000622057C
S306500006230080
S3065000062483FC
S30650000625A7D7
S3065000062687F6
S30650000627007C
S3065000062883F8
S30650000629A7D3
S3065000062A0772
S3065000062B0078
S3065000062C6314
S3065000062D82F4
S3065000062E076E
S3065000062F066E
S30650000630B3C0
S30650000631D79B
S30650000632B7BA
S30650000633026E
S30650000634036C
S30650000635234B
S3065000063685E8
S30650000637006C
S3065000063883E8
S306500006392644
S3065000063A0366
S3065000063B0068
S3065000063C1354
S3065000063D0E58
S3065000063E0065
S3065000063FF86C
S3065000064093D0
S3065000064186DC
S30650000642C69B
S306500006430060
S30650000644035C
S30650000645C896
S306500006460657
S30650000647005C
S306500006482338
S3065000064980DA
S3065000064AC693
S3065000064B0157
S3065000064C1344
S3065000064D78DE
S3065000064EF85D
S3065000064F0F45
S3065000065093C0
S30650000651D87A
S30650000652470A
S306500006530050
S3065000065493BC
S30650000655F658
S30650000656F855
S306500006570F3D
S3065000065883C8
S306500006592822
S3065000065A85C4
S3065000065B0048
S3065000065C83C4
S3065000065DA89E
S3065000065E083D
S3065000065F0044
S3065000066093B0
S30650000661D76B
S30650000662C77A
S306500006630040
S30650000664231C
S3065000066580BE
S30650000666D865
S30650000667003C
S3065000066883B8
S306500006692614
S3065000066A85B4
S3065000066B0038
S3065000066C83B4
S3065000066DA690
S3065000066E062F
S3065000066F0034
S3065000067093A0
S30650000671F73B
S30650000672F73A
S306500006730F21
S30650000674939C
S3065000067586A8
S3065000067646E7
S30650000677002C
S306500006782308
S3065000067980AA
S3065000067AF633
S3065000067B0028
S3065000067C83A4
S3065000067D27FF
S3065000067E85A0
S3065000067F0024
S3065000068083A0
S30650000681A77B
S30650000682071A
S306500006830020
S30650000684938C
S306500006858797
S30650000686C756
S30650000687001C
S3065000068823F8
S30650000689809A
S3065000068A0712
S3065000068B0117
S3065000068C23F4
S3065000068D22F4
S3065000068EB362
S3065000068F0014
S306500006908390
S3065000069127EB
S30650000692858C
S306500006930010
S30650000694838C
S30650000695A767
S306500006960706
S30650000697000C
S306500006989378
S306500006990604
S3065000069A30D9
S3065000069B0008
S3065000069C9374
S3065000069D877F
S3065000069EC73E
S3065000069F0004
S306500006A023E0
S306500006A18082
S306500006A2D72A
S306500006A30000
S306500006A4837C
S306500006A547B7
S306500006A68677
S306500006A700FC
S306500006A89368
S306500006A906F4
S306500006AAB049
S306500006AB00F8
S306500006ACB344
S306500006ADB73F
S306500006AE17DE
S306500006AFFCF8
S306500006B06390
S306500006B1846E
S306500006B207EA
S306500006B300F0
S306500006B4935C
S306500006B506E8
S306500006B6B03D
S306500006B702EA
S306500006B88368
S306500006B927C3
S306500006BA8564
S306500006BB00E8
S306500006BC8364
S306500006BDA73F
S306500006BE07DE
S306500006BF00E4
S306500006C09350
S306500006C1875B
S306500006C207DA
S306500006C301DF
S306500006C423BC
S306500006C5805E
S306500006C6D706
S306500006C700DC
S306500006C88358
S306500006C927B3
S306500006CA8554
S306500006CB00D8
S306500006CC8354
S306500006CDA72F
S306500006CE07CE
S306500006CF00D4
S306500006D09340
S306500006D106CC
S306500006D27061
S306500006D3FAD6
S306500006D4933C
S306500006D58747
S306500006D68746
S306500006D700CC
S306500006D823A8
S306500006D9804A
S306500006DAD7F2
S306500006DB00C8
S306500006DC8344
S306500006DD279F
S306500006DE8540
S306500006DF00C4
S306500006E08340
S306500006E1A71B
S306500006E207BA
S306500006E300C0
S306500006E48B34
S306500006E58638
S306500006E64776
S306500006E700BC
S306500006E82398
S306500006E9803A
S306500006EA07B2
S306500006EB00B8
S306500006EC7344
S306500006ED278F
S306500006EE07AE
S306500006EF3084
S306500006F08330
S306500006F1278B
S306500006F205AC
S306500006F300B0
S306500006F4832C
S306500006F5A707
S306500006F68726
S306500006F700AC
S306500006F88328
S306500006F9A703
S306500006FA4762
S306500006FB00A8
S306500006FCE7C0
S306500006FD8026
S306500006FE079E
S306500006FF00A4
S30650000700831F
S306500007012081
S30650000702C1DF
S30650000703009F
S30650000704138B
S306500007050598
S30650000706009C
S30650000707009B
S306500007081387
S306500007090198
S3065000070A0197
S3065000070B0196
S3065000070C672F
S3065000070D8015
S3065000070E0094
S3065000070F0093
S30650000710038F
S30650000711256C
S30650000712850B
S30650000713008F
S30650000714038B
S306500007152766
S306500007160587
S30650000717008B
S3065000071893F7
S306500007190782
S3065000071A4741
S3065000071B0186
S3065000071C8303
S3065000071DC7BE
S3065000071E077D
S3065000071F0083
S30650000720B3CF
S30650000721B7CA
S306500007221769
S30650000723FC83
S30650000724631B
S306500007258AF3
S306500007260775
S30650000727007B
S3065000072883F7
S306500007294732
S3065000072A0771
S3065000072B0077
S3065000072C1363
S3065000072D0570
S3065000072E0074
S3065000072F0073
S30650000730234F
S3065000073180F1
S30650000732F57B
S30650000733006F
S306500007346707
S3065000073580ED
S30650000736006C
S30650000737006B
S306500007381357
S306500007390564
S3065000073AF078
S3065000073BFF68
S3065000073C67FF
S3065000073D80E5
S3065000073E0064
S3065000073F0063
S30650000740035F
S30650000741253C
S3065000074285DB
S30650000743005F
S30650000744035B
S306500007452736
S306500007460557
S30650000747005B
S3065000074893C7
S306500007490653
S3065000074A4711
S3065000074B0156
S3065000074C83D3
S3065000074DC78E
S3065000074E064E
S3065000074F0053
S3065000075093BF
S30650000751F75A
S306500007520749
S30650000753044B
S30650000754E36B
S306500007558CC1
S306500007560745
S30650000757FE4D
S306500007582327
S306500007590049
S3065000075AB791
S3065000075B0047
S3065000075C1333
S3065000075D85C0
S3065000075E053F
S3065000075F0043
S3065000076067DB
S3065000076180C1
S306500007620040
S30650000763003F
S30650000764033B
S306500007652518
S3065000076685B7
S30650000767003B
S3065000076883B7
S306500007692712
S3065000076A0533
S3065000076B0037
S3065000076C93A3
S3065000076D87AE
S3065000076E47ED
S3065000076F0132
S30650000770032F
S30650000771C56C
S306500007720729
S30650000773002F
S30650000774131B
S3065000077575B8
S30650000776E547
S30650000777012A
S306500007781317
S3065000077955D4
S3065000077A1513
S3065000077B0027
S3065000077C67BF
S3065000077D80A5
S3065000077E0024
S3065000077F0023
S30650000780130F
S30650000781071A
S306500007820020
S30650000783001F
S30650000784938B
S306500007850716
S306500007861606
S30650000787001B
S3065000078863B7
S3065000078958C1
S3065000078A0612
S3065000078B0215
S3065000078C9383
S3065000078D070E
S3065000078E1004
S3065000078F0013
S306500007906FA3
S306500007910011
S306500007928090
S30650000793020D
S30650000794838B
S3065000079526E7
S306500007968587
S30650000797000B
S306500007980307
S30650000799A663
S3065000079A0602
S3065000079B0007
S3065000079C9373
S3065000079D06FF
S3065000079E46BE
S3065000079F0102
S306500007A0837F
S306500007A1C63B
S306500007A206FA
S306500007A300FF
S306500007A4936B
S306500007A5F607
S306500007A606F6
S306500007A702F9
S306500007A86397
S306500007A98C6D
S306500007AA06F2
S306500007AB00F7
S306500007AC8B6B
S306500007ADC62F
S306500007AE15DF
S306500007AF00F3
S306500007B013DF
S306500007B107EA
S306500007B217D9
S306500007B300EF
S306500007B423CB
S306500007B500ED
S306500007B6D616
S306500007B700EB
S306500007B89357
S306500007B98762
S306500007BAF7F1
S306500007BBFFE8
S306500007BCE303
S306500007BD9C49
S306500007BE07DD
S306500007BFFCE7
S306500007C013CF
S306500007C105DC
S306500007C207D9
S306500007C300DF
S306500007C46777
S306500007C5805D
S306500007C600DC
S306500007C700DB
S306500007C813C7
S306500007C907D2
S306500007CA00D8
S306500007CB00D7
S306500007CC9343
S306500007CD07CE
S306500007CE16BE
S306500007CF00D3
S306500007D0636F
S306500007D15879
S306500007D206CA
S306500007D302CD
S306500007D4933B
S306500007D507C6
S306500007D610BC
S306500007D700CB
S306500007D86F5B
S306500007D900C9
S306500007DA8048
S306500007DB02C5
S306500007DC8343
S306500007DD269F
S306500007DE853F
S306500007DF00C3
S306500007E003BF
S306500007E1A61B
S306500007E206BA
S306500007E300BF
S306500007E4932B
S306500007E506B7
S306500007E64676
S306500007E701BA
S306500007E88337
S306500007E9C6F3
S306500007EA06B2
S306500007EB00B7
S306500007ECB303
S306500007EDB6FF
S306500007EE169E
S306500007EFFCB7
S306500007F0634F
S306500007F18C25
S306500007F206AA
S306500007F300AF
S306500007F4832B
S306500007F54667
S306500007F606A6
S306500007F700AB
S306500007F81397
S306500007F907A2
S306500007FA1791
S306500007FB00A7
S306500007FCABFB
S306500007FD8025
S306500007FED5CF
S306500007FF00A3
S30650000800930E
S306500008018719
S30650000802F7A8
S30650000803FF9F
S30650000804E3BA
S306500008059C00
S306500008060794
S30650000807FC9E
S306500008081386
S306500008090593
S3065000080A0790
S3065000080B0096
S3065000080C672E
S3065000080D8014
S3065000080E0093
S3065000080F0092
S30650000810038E
S30650000811256B
S30650000812850A
S30650000813008E
S30650000814038A
S306500008152765
S306500008160586
S30650000817008A
S306500008181376
S306500008190781
S3065000081A4740
S3065000081B0086
S3065000081C8302
S3065000081D473D
S3065000081E077C
S3065000081F0082
S3065000082093EE
S30650000821F789
S30650000822F788
S306500008230F6F
S30650000824B3CA
S30650000825C7B5
S306500008261764
S30650000827C0BA
S306500008282356
S306500008290078
S3065000082AF780
S3065000082B0076
S3065000082C670E
S3065000082D80F4
S3065000082E0073
S3065000082F0072
S30650000830036E
S30650000831254B
S3065000083285EA
S30650000833006E
S3065000083483EA
S306500008352745
S306500008360566
S30650000837006A
S3065000083893D6
S3065000083987E1
S3065000083A4720
S3065000083B0066
S3065000083C0362
S3065000083DC79D
S3065000083E075C
S3065000083F0062
S30650000840134E
S3065000084177E9
S30650000842D788
S306500008430F4F
S30650000844233A
S3065000084580DC
S30650000846E774
S30650000847005A
S3065000084867F2
S3065000084980D8
S3065000084A0057
S3065000084B0056
S3065000084C0352
S3065000084D252F
S3065000084E85CE
S3065000084F0052
S30650000850034E
S30650000851450B
S3065000085295BA
S30650000853004E
S30650000854133A
S3065000085575D7
S3065000085665E6
S30650000857004A
S306500008581336
S306500008590543
S3065000085AE562
S3065000085BFF47
S3065000085C1332
S3065000085D350F
S3065000085E152E
S3065000085F0042
S3065000086067DA
S3065000086180C0
S30650000862003F
S30650000863003E
S30650000864033A
S306500008652517
S3065000086685B6
S30650000867003A
S3065000086883B6
S306500008692711
S3065000086A0532
S3065000086B0036
S3065000086C93A2
S3065000086D87AD
S3065000086E47EC
S3065000086F0131
S30650000870032E
S30650000871C56B
S306500008720728
S30650000873002E
S30650000874131A
S3065000087575B7
S306500008760526
S306500008770624
S306500008781316
S306500008790523
S3065000087A0522
S3065000087BFA2C
S3065000087C1312
S3065000087D35EF
S3065000087E150E
S3065000087F0022
S3065000088067BA
S3065000088180A0
S30650000882001F
S30650000883001E
S30650000884031A
S3065000088525F7
S306500008868596
S30650000887001A
S306500008880316
S3065000088927F1
S3065000088A0512
S3065000088B0016
S3065000088C1302
S3065000088D070D
S3065000088E47CC
S3065000088F0012
S30650000890838E
S3065000089147C9
S306500008920708
S30650000893000E
S30650000894937A
S30650000895F715
S30650000896F714
S306500008970FFB
S30650000898B356
S30650000899C741
S3065000089A0700
S3065000089BC046
S3065000089C23E2
S3065000089D0004
S3065000089EF70C
S3065000089F0002
S306500008A0679A
S306500008A18080
S306500008A200FF
S306500008A300FE
S306500008A403FA
S306500008A525D7
S306500008A68576
S306500008A700FA
S306500008A88376
S306500008A927D1
S306500008AA05F2
S306500008AB00F6
S306500008AC9362
S306500008AD876D
S306500008AE47AC
S306500008AF00F2
S306500008B003EE
S306500008B1C729
S306500008B207E8
S306500008B300EE
S306500008B413DA
S306500008B57775
S306500008B6E704
S306500008B70FDB
S306500008B823C6
S306500008B98068
S306500008BAE700
S306500008BB00E6
S306500008BC677E
S306500008BD8064
S306500008BE00E3
S306500008BF00E2
S306500008C003DE
S306500008C125BB
S306500008C2855A
S306500008C300DE
S306500008C403DA
S306500008C54597
S306500008C69546
S306500008C700DA
S306500008C813C6
S306500008C97563
S306500008CA6572
S306500008CB00D6
S306500008CC13C2
S306500008CD05CF
S306500008CEC50E
S306500008CFFFD3
S306500008D013BE
S306500008D1359B
S306500008D215BA
S306500008D300CE
S306500008D46766
S306500008D5804C
S306500008D600CB
S306500008D700CA
S306500008D803C6
S306500008D925A3
S306500008DA8542
S306500008DB00C6
S306500008DC03C2
S306500008DD279D
S306500008DE05BE
S306500008DF00C2
S306500008E013AE
S306500008E107B9
S306500008E24778
S306500008E300BE
S306500008E4833A
S306500008E54775
S306500008E607B4
S306500008E700BA
S306500008E89326
S306500008E9F7C1
S306500008EAF7C0
S306500008EB0FA7
S306500008ECB302
S306500008EDC7ED
S306500008EE278C
S306500008EFC0F2
S306500008F0238E
S306500008F100B0
S306500008F2F7B8
S306500008F300AE
S306500008F46746
S306500008F5802C
S306500008F600AB
S306500008F700AA
S306500008F803A6
S306500008F92583
S306500008FA8522
S306500008FB00A6
S306500008FC8322
S306500008FD277D
S306500008FE059E
S306500008FF00A2
S30650000900930D
S306500009018718
S306500009024757
S30650000903009D
S306500009040399
S30650000905C7D4
S306500009060793
S306500009070099
S306500009081385
S306500009097720
S3065000090AB7DF
S3065000090B0F86
S3065000090C2371
S3065000090D8013
S3065000090EE7AB
S3065000090F0091
S306500009106729
S30650000911800F
S30650000912008E
S30650000913008D
S306500009140389
S306500009152566
S306500009168505
S306500009170089
S306500009180385
S306500009194542
S3065000091A95F1
S3065000091B0085
S3065000091C3351
S3065000091D354E
S3065000091E156D
S3065000091FFC85
S30650000920136D
S30650000921453A
S306500009221569
S30650000923007D
S306500009246715
S3065000092580FB
S30650000926007A
S306500009270079
S306500009280375
S306500009292552
S3065000092A85F1
S3065000092B0075
S3065000092C83F1
S3065000092D274C
S3065000092E056D
S3065000092F0071
S3065000093093DD
S3065000093187E8
S3065000093287E7
S30650000933006D
S3065000093483E9
S30650000935C7A4
S306500009360763
S306500009370069
S30650000938A3C5
S306500009390463
S3065000093AF571
S3065000093B0065
S3065000093C1351
S3065000093D055E
S3065000093E1052
S3065000093F0061
S3065000094067F9
S3065000094180DF
S30650000942005E
S30650000943005D
S306500009440359
S306500009452536
S3065000094685D5
S306500009470059
S306500009482335
S306500009492631
S3065000094AB5A1
S3065000094B0055
S3065000094C67ED
S3065000094D80D3
S3065000094E0052
S3065000094F0051
S30650000950034D
S30650000951232C
S3065000095285C9
S30650000953004D
S306500009540349
S306500009552328
S30650000956C387
S306500009570049
S3065000095863E5
S306500009590443
S3065000095A0343
S3065000095B0045
S3065000095C67DD
S3065000095D0043
S3065000095E033F
S3065000095F0041
S3065000096067D9
S3065000096180BF
S30650000962003E
S30650000963003D
S306500009641329
S306500009650536
S3065000096680BA
S306500009670138
S306500009686FC9
S3065000096940F7
S3065000096A50E6
S3065000096B1F16
S3065000096C1321
S3065000096D052E
S3065000096E40F2
S3065000096F0130
S306500009706FC1
S3065000097140EF
S30650000972D05E
S306500009731E0F
S30650000974B775
S3065000097537F4
S30650000976101A
S306500009771A0F
S306500009782305
S30650000979A087
S3065000097A071F
S3065000097B0025
S3065000097CB76D
S3065000097D27FC
S3065000097E0022
S3065000097F51D0
S30650000980938D
S306500009818798
S3065000098247D7
S30650000983D04D
S30650000984B765
S3065000098526F5
S30650000986001A
S3065000098751C8
S306500009880315
S30650000989A770
S3065000098A070F
S3065000098B0015
S3065000098C8391
S3065000098DA66D
S3065000098E868C
S3065000098FCF42
S3065000099033DD
S306500009910708
S30650000992D737
S30650000993000D
S3065000099423E9
S30650000995A06B
S30650000996E723
S306500009970009
S30650000998B751
S3065000099927E0
S3065000099A0006
S3065000099B51B4
S3065000099C0301
S3065000099DA55E
S3065000099E47BB
S3065000099FCF32
S306500009A06F91
S306500009A150AF
S306500009A250AE
S306500009A37F7E
S306500009A413E9
S306500009A501FA
S306500009A601F9
S306500009A7FFFA
S306500009A813E5
S306500009A905F2
S306500009AAD026
S306500009AB01F4
S306500009AC23D1
S306500009AD26CD
S306500009AE11E1
S306500009AF00F1
S306500009B0EF01
S306500009B140AF
S306500009B2D01E
S306500009B31AD3
S306500009B4B735
S306500009B537B4
S306500009B610DA
S306500009B71ACF
S306500009B823C5
S306500009B9A047
S306500009BA07DF
S306500009BB00E5
S306500009BC37AD
S306500009BD27BC
S306500009BE00E2
S306500009BF5190
S306500009C003DD
S306500009C127B8
S306500009C28757
S306500009C3CF0E
S306500009C48359
S306500009C520BB
S306500009C6C119
S306500009C700D9
S306500009C823B5
S306500009C9A433
S306500009CAE7EF
S306500009CB00D5
S306500009CC13C1
S306500009CD07CC
S306500009CE10C2
S306500009CF00D1
S306500009D013BD
S306500009D105CA
S306500009D200CE
S306500009D300CD
S306500009D423A9
S306500009D5A229
S306500009D6E7E3
S306500009D700C9
S306500009D813B5
S306500009D901C6
S306500009DA01C5
S306500009DB01C4
S306500009DC675D
S306500009DD8043
S306500009DE00C2
S306500009DF00C1
S306500009E003BD
S306500009E1239C
S306500009E24579
S306500009E300BD
S306500009E403B9
S306500009E52398
S306500009E603B7
S306500009E701B8
S306500009E86355
S306500009E904B3
S306500009EA03B3
S306500009EB00B5
S306500009EC674D
S306500009ED00B3
S306500009EE03AF
S306500009EF00B1
S306500009F0139D
S306500009F105AA
S306500009F200AE
S306500009F300AD
S306500009F46745
S306500009F5802B
S306500009F600AA
S306500009F700A9
S306500009F803A5
S306500009F92384
S306500009FA4561
S306500009FB00A5
S306500009FC03A1
S306500009FD2380
S306500009FE831F
S306500009FF01A0
S30650000A00633C
S30650000A01049A
S30650000A02039A
S30650000A03009C
S30650000A046734
S30650000A05009A
S30650000A060396
S30650000A070098
S30650000A086730
S30650000A098016
S30650000A0A0095
S30650000A0B0094
S30650000A0C0390
S30650000A0D236F
S30650000A0E454C
S30650000A0F0090
S30650000A10038C
S30650000A11236B
S30650000A12038A
S30650000A13028A
S30650000A146328
S30650000A150486
S30650000A160386
S30650000A170088
S30650000A186720
S30650000A190086
S30650000A1A0382
S30650000A1B0084
S30650000A1C671C
S30650000A1D8002
S30650000A1E0081
S30650000A1F0080
S30650000A20037C
S30650000A21235B
S30650000A224538
S30650000A23007C
S30650000A240378
S30650000A252357
S30650000A264336
S30650000A270276
S30650000A286314
S30650000A290472
S30650000A2A0372
S30650000A2B0074
S30650000A2C670C
S30650000A2D0072
S30650000A2E036E
S30650000A2F0070
S30650000A306708
S30650000A3180EE
S30650000A32006D
S30650000A33006C
S30650000A34B7B4
S30650000A352743
S30650000A360069
S30650000A375117
S30650000A3893D4
S30650000A3987DF
S30650000A3A075E
S30650000A3BB8AC
S30650000A3CA3C0
S30650000A3D8FD3
S30650000A3E075A
S30650000A3F0060
S30650000A40233C
S30650000A419CC2
S30650000A420756
S30650000A43005C
S30650000A442338
S30650000A458ECC
S30650000A460752
S30650000A470058
S30650000A482334
S30650000A498FC7
S30650000A4A074E
S30650000A4B0054
S30650000A4CA3B0
S30650000A4D8EC4
S30650000A4E074A
S30650000A4F0050
S30650000A5067E8
S30650000A5180CE
S30650000A52004D
S30650000A53004C
S30650000A543714
S30650000A550545
S30650000A560049
S30650000A5751F7
S30650000A581334
S30650000A590145
S30650000A5A0144
S30650000A5BFF45
S30650000A5C1330
S30650000A5D053D
S30650000A5EC57C
S30650000A5F1B25
S30650000A60231C
S30650000A612618
S30650000A62112C
S30650000A63003C
S30650000A64EF4C
S30650000A6540FA
S30650000A6650E9
S30650000A6755E3
S30650000A68B780
S30650000A69270F
S30650000A6A0035
S30650000A6B51E3
S30650000A6C2310
S30650000A6DA48E
S30650000A6EA78A
S30650000A6FD060
S30650000A70939C
S30650000A710727
S30650000A72A08D
S30650000A73FE2E
S30650000A7463C8
S30650000A750A20
S30650000A760524
S30650000A770028
S30650000A7837F0
S30650000A790521
S30650000A7A0025
S30650000A7B51D3
S30650000A7C1310
S30650000A7D051D
S30650000A7E45DC
S30650000A7F6BB5
S30650000A80EF30
S30650000A8140DE
S30650000A82C05D
S30650000A83021A
S30650000A849388
S30650000A850713
S30650000A860019
S30650000A870018
S30650000A888394
S30650000A8920F6
S30650000A8AC154
S30650000A8B0014
S30650000A8C1300
S30650000A8D858D
S30650000A8E070A
S30650000A8F0010
S30650000A9013FC
S30650000A91010D
S30650000A92010C
S30650000A93010B
S30650000A9467A4
S30650000A95808A
S30650000A960009
S30650000A970008
S30650000A98B750
S30650000A9925E1
S30650000A9A0005
S30650000A9B51B3
S30650000A9C9370
S30650000A9D857D
S30650000A9E05FC
S30650000A9FB848
S30650000AA003FC
S30650000AA1C638
S30650000AA2E518
S30650000AA301FB
S30650000AA413E8
S30650000AA505F5
S30650000AA68574
S30650000AA700F8
S30650000AA89364
S30650000AA98571
S30650000AAA05F0
S30650000AAB02F2
S30650000AAC6F84
S30650000AAD40B2
S30650000AAE9061
S30650000AAF01EF
S30650000AB013DC
S30650000AB101ED
S30650000AB201EC
S30650000AB3FEEE
S30650000AB423C8
S30650000AB52EBC
S30650000AB611D8
S30650000AB700E8
S30650000AB823C4
S30650000AB92CBA
S30650000ABA8164
S30650000ABB00E4
S30650000ABC23C0
S30650000ABD2AB8
S30650000ABE9150
S30650000ABF00E0
S30650000AC037A8
S30650000AC124BA
S30650000AC200DD
S30650000AC3518B
S30650000AC49348
S30650000AC504D6
S30650000AC605D4
S30650000AC700D8
S30650000AC8EFE8
S30650000AC95086
S30650000ACA9045
S30650000ACB3C98
S30650000ACC379C
S30650000ACD27AB
S30650000ACE00D1
S30650000ACF517F
S30650000AD013BC
S30650000AD104CA
S30650000AD204C9
S30650000AD3B814
S30650000AD49338
S30650000AD507C3
S30650000AD64782
S30650000AD7992F
S30650000AD88344
S30650000AD9487E
S30650000ADA04C1
S30650000ADB02C2
S30650000ADC03C0
S30650000ADD487A
S30650000ADEF4CD
S30650000ADF01BF
S30650000AE0B708
S30650000AE12698
S30650000AE200BD
S30650000AE3516B
S30650000AE42398
S30650000AE5209A
S30650000AE6F1C8
S30650000AE700B8
S30650000AE83780
S30650000AE906B0
S30650000AEA00B5
S30650000AEB5163
S30650000AEC9320
S30650000AED07AB
S30650000AEE05AC
S30650000AEF00B0
S30650000AF0B7F8
S30650000AF105A9
S30650000AF200AD
S30650000AF3515B
S30650000AF43774
S30650000AF505A5
S30650000AF600A9
S30650000AF75157
S30650000AF81394
S30650000AF9079F
S30650000AFA475E
S30650000AFB990B
S30650000AFC9310
S30650000AFD861C
S30650000AFE861B
S30650000AFFCBD5
S30650000B00138B
S30650000B010697
S30650000B020696
S30650000B031D7E
S30650000B049307
S30650000B058514
S30650000B068513
S30650000B071D7A
S30650000B081383
S30650000B090590
S30650000B0AC5CF
S30650000B0B1D76
S30650000B0CEFA3
S30650000B0D1081
S30650000B0E8010
S30650000B0F414E
S30650000B10830B
S30650000B114746
S30650000B12F498
S30650000B13018A
S30650000B146327
S30650000B15B8D1
S30650000B164741
S30650000B170285
S30650000B188303
S30650000B19473E
S30650000B1A0480
S30650000B1B0281
S30650000B1C136F
S30650000B1D077A
S30650000B1E1070
S30650000B1F007F
S30650000B2093EB
S30650000B2187F6
S30650000B222755
S30650000B23FF7C
S30650000B2493E7
S30650000B25F782
S30650000B26F781
S30650000B270F68
S30650000B286313
S30650000B29660F
S30650000B2AF77D
S30650000B2B0271
S30650000B2C135F
S30650000B2D85EC
S30650000B2E046C
S30650000B2F006F
S30650000B3083EB
S30650000B31204D
S30650000B32C1AB
S30650000B33016A
S30650000B340367
S30650000B352445
S30650000B3681E7
S30650000B370166
S30650000B3883E3
S30650000B392441
S30650000B3A4123
S30650000B3B0162
S30650000B3C134F
S30650000B3D0160
S30650000B3E015F
S30650000B3F025D
S30650000B406FEF
S30650000B41401D
S30650000B42401C
S30650000B432338
S30650000B4463F7
S30650000B45B8A1
S30650000B462731
S30650000B470057
S30650000B4893C3
S30650000B4985D0
S30650000B4A0450
S30650000B4B0053
S30650000B4C133F
S30650000B4D054C
S30650000B4E3020
S30650000B4F004F
S30650000B506FDF
S30650000B51004D
S30650000B52C08C
S30650000B53004B
S30650000B5493B7
S30650000B5585C4
S30650000B560444
S30650000B570047
S30650000B581333
S30650000B590540
S30650000B5A1034
S30650000B5B0043
S30650000B5C83BF
S30650000B5D2021
S30650000B5EC17F
S30650000B5F013E
S30650000B60033B
S30650000B612419
S30650000B6281BB
S30650000B63013A
S30650000B6483B7
S30650000B652415
S30650000B6641F7
S30650000B670136
S30650000B681323
S30650000B690134
S30650000B6A0133
S30650000B6B0231
S30650000B6C6FC3
S30650000B6D40F1
S30650000B6E40F0
S30650000B6F1B14
S30650000B70131B
S30650000B71012C
S30650000B72012B
S30650000B73FC2F
S30650000B742307
S30650000B752EFB
S30650000B761117
S30650000B770225
S30650000B782303
S30650000B792CF9
S30650000B7A81A3
S30650000B7B0221
S30650000B7C23FF
S30650000B7D2AF7
S30650000B7E918F
S30650000B7F021D
S30650000B8023FB
S30650000B8128F5
S30650000B8221FB
S30650000B830318
S30650000B8423F7
S30650000B8526F3
S30650000B8631E7
S30650000B870314
S30650000B8823F3
S30650000B8924F1
S30650000B8A41D3
S30650000B8B0310
S30650000B8C23EF
S30650000B8D2EE3
S30650000B8E719F
S30650000B8F010E
S30650000B9023EB
S30650000B912CE1
S30650000B92818B
S30650000B93010A
S30650000B9423E7
S30650000B952ADF
S30650000B969177
S30650000B970106
S30650000B9823E3
S30650000B9928DD
S30650000B9AA163
S30650000B9B0102
S30650000B9C23DF
S30650000B9D22DF
S30650000B9E51AF
S30650000B9F03FC
S30650000BA023DB
S30650000BA120DD
S30650000BA2619B
S30650000BA303F8
S30650000BA423D7
S30650000BA526D3
S30650000BA6B147
S30650000BA701F6
S30650000BA8EF07
S30650000BA950A5
S30650000BAA9064
S30650000BAB2EC5
S30650000BACB73B
S30650000BAD24CD
S30650000BAE00F0
S30650000BAF519E
S30650000BB037B7
S30650000BB10AE3
S30650000BB200EC
S30650000BB3519A
S30650000BB4B733
S30650000BB509E0
S30650000BB600E8
S30650000BB75196
S30650000BB89353
S30650000BB907DE
S30650000BBA05DF
S30650000BBB00E3
S30650000BBC37AB
S30650000BBD09D8
S30650000BBE00E0
S30650000BBF518E
S30650000BC037A7
S30650000BC105D8
S30650000BC200DC
S30650000BC3518A
S30650000BC437A3
S30650000BC524B5
S30650000BC600D8
S30650000BC75186
S30650000BC813C3
S30650000BC9884D
S30650000BCA4490
S30650000BCB993A
S30650000BCC13BF
S30650000BCD874A
S30650000BCE448C
S30650000BCF9936
S30650000BD0933B
S30650000BD106C7
S30650000BD2C903
S30650000BD36962
S30650000BD413B7
S30650000BD506C3
S30650000BD60ABE
S30650000BD71DAA
S30650000BD89333
S30650000BD98540
S30650000BDA893B
S30650000BDB1DA6
S30650000BDC13AF
S30650000BDD05BC
S30650000BDEC5FB
S30650000BDF209F
S30650000BE013AB
S30650000BE104B9
S30650000BE204B8
S30650000BE3B803
S30650000BE4EFCB
S30650000BE510A9
S30650000BE600B8
S30650000BE73483
S30650000BE89323
S30650000BE90BAA
S30650000BEA0AAA
S30650000BEB00B3
S30650000BEC139F
S30650000BED8C25
S30650000BEE09A7
S30650000BEF00AF
S30650000BF0B7F7
S30650000BF10CA1
S30650000BF200AC
S30650000BF3515A
S30650000BF41397
S30650000BF50D9C
S30650000BF64464
S30650000BF700A7
S30650000BF8EFB7
S30650000BF95055
S30650000BFA9014
S30650000BFB297A
S30650000BFC039F
S30650000BFD2879
S30650000BFE049C
S30650000BFF009F
S30650000C00930A
S30650000C010795
S30650000C020596
S30650000C03009A
S30650000C049306
S30650000C058810
S30650000C064453
S30650000C0799FD
S30650000C081382
S30650000C09870D
S30650000C0A444F
S30650000C0B99F9
S30650000C0C93FE
S30650000C0D068A
S30650000C0EC9C6
S30650000C0F6925
S30650000C10137A
S30650000C110686
S30650000C120A81
S30650000C131D6D
S30650000C1493F6
S30650000C158503
S30650000C1689FE
S30650000C171D69
S30650000C181372
S30650000C1985FF
S30650000C1ACCB7
S30650000C1B2260
S30650000C1CEF92
S30650000C1D1070
S30650000C1E80FF
S30650000C1F304E
S30650000C2083FA
S30650000C214735
S30650000C22C4B7
S30650000C230179
S30650000C246316
S30650000C2582F6
S30650000C260770
S30650000C270A6C
S30650000C2883F2
S30650000C29274D
S30650000C2A046F
S30650000C2B0072
S30650000C2C630E
S30650000C2D9ED2
S30650000C2E0768
S30650000C2F0866
S30650000C30135A
S30650000C310567
S30650000C32F07B
S30650000C33FF6B
S30650000C34EF7A
S30650000C35F078
S30650000C36DF88
S30650000C37E77F
S30650000C382342
S30650000C392044
S30650000C3AA4BF
S30650000C3B0062
S30650000C3CEF72
S30650000C3D5010
S30650000C3E500F
S30650000C3F2539
S30650000C403726
S30650000C412636
S30650000C42005B
S30650000C435109
S30650000C4493C6
S30650000C450850
S30650000C464611
S30650000C4799BD
S30650000C4893C2
S30650000C49074D
S30650000C4A054E
S30650000C4B0052
S30650000C4C371A
S30650000C4D064A
S30650000C4E004F
S30650000C4F51FD
S30650000C50034A
S30650000C512824
S30650000C520447
S30650000C53004A
S30650000C543712
S30650000C550543
S30650000C560047
S30650000C5751F5
S30650000C5893B2
S30650000C59063E
S30650000C5AC67D
S30650000C5B69D9
S30650000C5C132E
S30650000C5D87B9
S30650000C5E44FB
S30650000C5F99A5
S30650000C60132A
S30650000C6186B6
S30650000C620B30
S30650000C631D1D
S30650000C6493A6
S30650000C650533
S30650000C668CAB
S30650000C671D19
S30650000C681322
S30650000C69052F
S30650000C6AC56E
S30650000C6B240E
S30650000C6CEF42
S30650000C6D1020
S30650000C6E80AF
S30650000C6F2B03
S30650000C70032A
S30650000C712507
S30650000C720427
S30650000C73002A
S30650000C7483A6
S30650000C755ACE
S30650000C7684A3
S30650000C770125
S30650000C781312
S30650000C79051F
S30650000C7A859E
S30650000C7B0022
S30650000C7CEF32
S30650000C7D40E0
S30650000C7E001F
S30650000C7F6CB2
S30650000C8063BA
S30650000C8170AC
S30650000C8255C6
S30650000C830515
S30650000C84B762
S30650000C850711
S30650000C860017
S30650000C8751C5
S30650000C8837DE
S30650000C89070D
S30650000C8A0013
S30650000C8B51C1
S30650000C8C37DA
S30650000C8D060A
S30650000C8E000F
S30650000C8F51BD
S30650000C9037D6
S30650000C910507
S30650000C92000B
S30650000C9351B9
S30650000C949376
S30650000C958781
S30650000C960700
S30650000C9727DF
S30650000C9813F2
S30650000C9907FD
S30650000C9A877C
S30650000C9B27DB
S30650000C9C936E
S30650000C9D06FA
S30650000C9EC936
S30650000C9F6995
S30650000CA013EA
S30650000CA106F6
S30650000CA206F5
S30650000CA328D2
S30650000CA49366
S30650000CA58573
S30650000CA6896E
S30650000CA71DD9
S30650000CA813E2
S30650000CA905EF
S30650000CAA856E
S30650000CAB28CA
S30650000CACEF02
S30650000CAD10E0
S30650000CAE806F
S30650000CAF27C7
S30650000CB0836A
S30650000CB15795
S30650000CB28467
S30650000CB301E9
S30650000CB423C6
S30650000CB51DCB
S30650000CB6F4F3
S30650000CB700E6
S30650000CB8EFF6
S30650000CB9F0F4
S30650000CBADF04
S30650000CBBD70B
S30650000CBC6F72
S30650000CBD00E0
S30650000CBEC01F
S30650000CBF00DE
S30650000CC003DA
S30650000CC125B7
S30650000CC204D7
S30650000CC300DA
S30650000CC4EFEA
S30650000CC5F0E8
S30650000CC65F78
S30650000CC7DDF9
S30650000CC8B71E
S30650000CC92AAA
S30650000CCA00D3
S30650000CCB5181
S30650000CCC03CE
S30650000CCDA52B
S30650000CCE8A45
S30650000CCFD0FE
S30650000CD0B716
S30650000CD10DBF
S30650000CD200CB
S30650000CD35179
S30650000CD4EFDA
S30650000CD5F0D8
S30650000CD69F28
S30650000CD7D3F3
S30650000CD89332
S30650000CD905BF
S30650000CDAF0D3
S30650000CDBFFC3
S30650000CDC13AE
S30650000CDD05BB
S30650000CDE0DB2
S30650000CDF00BE
S30650000CE0EFCE
S30650000CE1407C
S30650000CE200BB
S30650000CE34872
S30650000CE413A6
S30650000CE50BAD
S30650000CE605B2
S30650000CE700B6
S30650000CE89322
S30650000CE98A2A
S30650000CEA8A29
S30650000CEBD0E2
S30650000CEC03AE
S30650000CEDA50B
S30650000CEE0AA5
S30650000CEF00AE
S30650000CF0EFBE
S30650000CF1F0BC
S30650000CF2DFCC
S30650000CF3D1D9
S30650000CF4EFBA
S30650000CF55058
S30650000CF6D0D7
S30650000CF7198D
S30650000CF89312
S30650000CF9079D
S30650000CFA059E
S30650000CFB00A2
S30650000CFC138E
S30650000CFD0898
S30650000CFE0B94
S30650000CFF009E
S30650000D009309
S30650000D018813
S30650000D024456
S30650000D039900
S30650000D041385
S30650000D058710
S30650000D064452
S30650000D0799FC
S30650000D089301
S30650000D09068D
S30650000D0AC9C9
S30650000D0B6928
S30650000D0C137D
S30650000D0D0689
S30650000D0E0A84
S30650000D0F1D70
S30650000D1093F9
S30650000D118506
S30650000D128901
S30650000D131D6C
S30650000D141375
S30650000D158502
S30650000D164D39
S30650000D172B5A
S30650000D18EF95
S30650000D191073
S30650000D1AC0C2
S30650000D1B2061
S30650000D1C136D
S30650000D1D057A
S30650000D1E0B73
S30650000D1F007D
S30650000D20EF8D
S30650000D21304B
S30650000D2280FA
S30650000D235A1F
S30650000D24EF89
S30650000D255027
S30650000D26D0A6
S30650000D270F66
S30650000D280371
S30650000D29A5CE
S30650000D2A0A68
S30650000D2B0071
S30650000D2CEF81
S30650000D2DF07F
S30650000D2E5F0F
S30650000D2FCF9E
S30650000D303735
S30650000D312546
S30650000D32006A
S30650000D335118
S30650000D3493D5
S30650000D350562
S30650000D360066
S30650000D370065
S30650000D381351
S30650000D39055E
S30650000D3A451D
S30650000D3BB8A9
S30650000D3CEF71
S30650000D3D401F
S30650000D3E401E
S30650000D3F421B
S30650000D401349
S30650000D410B50
S30650000D420555
S30650000D430059
S30650000D44E375
S30650000D451443
S30650000D460551
S30650000D47FA5B
S30650000D486FE5
S30650000D49F063
S30650000D4A1F33
S30650000D4BEB66
S30650000D4C133D
S30650000D4D014E
S30650000D4E014D
S30650000D4FFE4F
S30650000D502329
S30650000D512C1F
S30650000D5281C9
S30650000D530049
S30650000D541335
S30650000D550443
S30650000D560541
S30650000D570045
S30650000D582321
S30650000D592E15
S30650000D5A1131
S30650000D5B0041
S30650000D5CEF51
S30650000D5D50EF
S30650000D5E50EE
S30650000D5F132A
S30650000D6083B9
S30650000D6157E4
S30650000D62E456
S30650000D630039
S30650000D643701
S30650000D652710
S30650000D660036
S30650000D6751E4
S30650000D68B381
S30650000D69072C
S30650000D6AF43E
S30650000D6B0031
S30650000D6C939D
S30650000D6D87A8
S30650000D6E37F7
S30650000D6F012C
S30650000D70B379
S30650000D71B774
S30650000D720723
S30650000D73C267
S30650000D7483A5
S30650000D75C85F
S30650000D76071F
S30650000D770025
S30650000D789391
S30650000D79071C
S30650000D7A47DB
S30650000D7B9988
S30650000D7C23FD
S30650000D7D22FD
S30650000D7EF12D
S30650000D7F001D
S30650000D808399
S30650000D8157C4
S30650000D82C456
S30650000D830019
S30650000D84B761
S30650000D8526F1
S30650000D860016
S30650000D8751C4
S30650000D8823F1
S30650000D8920F3
S30650000D8AF121
S30650000D8B0011
S30650000D8C37D9
S30650000D8D0609
S30650000D8E000E
S30650000D8F51BC
S30650000D909379
S30650000D910704
S30650000D920505
S30650000D930009
S30650000D94B751
S30650000D950502
S30650000D960006
S30650000D9751B4
S30650000D9837CD
S30650000D9905FE
S30650000D9A0002
S30650000D9B51B0
S30650000D9C13ED
S30650000D9D08F7
S30650000D9E04FA
S30650000D9F00FD
S30650000DA013E9
S30650000DA107F4
S30650000DA247B3
S30650000DA39960
S30650000DA49365
S30650000DA58671
S30650000DA606F0
S30650000DA7CB2A
S30650000DA813E1
S30650000DA906ED
S30650000DAA06EC
S30650000DAB1DD4
S30650000DAC935D
S30650000DAD856A
S30650000DAE8569
S30650000DAF1DD0
S30650000DB013D9
S30650000DB105E6
S30650000DB205E5
S30650000DB32EBB
S30650000DB4EFF9
S30650000DB510D7
S30650000DB600E6
S30650000DB717CE
S30650000DB837AD
S30650000DB925BE
S30650000DBA00E2
S30650000DBB5190
S30650000DBC13CD
S30650000DBD05DA
S30650000DBEC519
S30650000DBFBA23
S30650000DC09349
S30650000DC105D6
S30650000DC204D6
S30650000DC300D9
S30650000DC4EFE9
S30650000DC54097
S30650000DC6C016
S30650000DC74293
S30650000DC8B71D
S30650000DC927AC
S30650000DCA00D2
S30650000DCB5180
S30650000DCC03CD
S30650000DCDA52A
S30650000DCE8747
S30650000DCFD0FD
S30650000DD08349
S30650000DD127A4
S30650000DD24585
S30650000DD300C9
S30650000DD48345
S30650000DD5A720
S30650000DD6477F
S30650000DD701C4
S30650000DD86361
S30650000DD9843F
S30650000DDA07BB
S30650000DDB00C1
S30650000DDCE7D9
S30650000DDD803F
S30650000DDE07B7
S30650000DDF00BD
S30650000DE08339
S30650000DE1209B
S30650000DE2C1F9
S30650000DE301B8
S30650000DE413A5
S30650000DE505B2
S30650000DE600B6
S30650000DE700B5
S30650000DE803B1
S30650000DE9248F
S30650000DEA8131
S30650000DEB01B0
S30650000DEC139D
S30650000DED01AE
S30650000DEE01AD
S30650000DEF02AB
S30650000DF06745
S30650000DF1802B
S30650000DF200AA
S30650000DF300A9
S30650000DF41395
S30650000DF501A6
S30650000DF601A5
S30650000DF7FBAA
S30650000DF82381
S30650000DF9267D
S30650000DFA1191
S30650000DFB049D
S30650000DFC237D
S30650000DFD247B
S30650000DFE811D
S30650000DFF0499
S30650000E00EFAC
S30650000E01504A
S30650000E021089
S30650000E03098F
S30650000E049304
S30650000E05078F
S30650000E060590
S30650000E070094
S30650000E08375C
S30650000E09276B
S30650000E0A0091
S30650000E0B513F
S30650000E0CB7D8
S30650000E0D2668
S30650000E0E008D
S30650000E0F513B
S30650000E103754
S30650000E110684
S30650000E120089
S30650000E135137
S30650000E14B7D0
S30650000E150581
S30650000E160085
S30650000E175133
S30650000E18374C
S30650000E19057D
S30650000E1A0081
S30650000E1B512F
S30650000E1C3748
S30650000E1D245A
S30650000E1E007D
S30650000E1F512B
S30650000E201368
S30650000E210872
S30650000E224732
S30650000E2399DF
S30650000E2493E4
S30650000E2586F0
S30650000E2686EF
S30650000E27CAAA
S30650000E281360
S30650000E29076B
S30650000E2A472A
S30650000E2B99D7
S30650000E2C135C
S30650000E2D0668
S30650000E2E0667
S30650000E2F1D4F
S30650000E3093D8
S30650000E3185E5
S30650000E3285E4
S30650000E331D4B
S30650000E341354
S30650000E350462
S30650000E3684E1
S30650000E37D094
S30650000E381350
S30650000E39055D
S30650000E3AC59C
S30650000E3B3030
S30650000E3CEF70
S30650000E3D104E
S30650000E3E80DD
S30650000E3F0E4E
S30650000E400358
S30650000E412535
S30650000E420455
S30650000E430058
S30650000E44EF68
S30650000E45F066
S30650000E46DF76
S30650000E47BD97
S30650000E480350
S30650000E49252D
S30650000E4A044D
S30650000E4B0050
S30650000E4CEF60
S30650000E4DF05E
S30650000E4EDF6E
S30650000E4FBA92
S30650000E500348
S30650000E512525
S30650000E520445
S30650000E530048
S30650000E541334
S30650000E550640
S30650000E560045
S30650000E570242
S30650000E5893B0
S30650000E59053D
S30650000E5AC180
S30650000E5B013F
S30650000E5CEF50
S30650000E5DF04E
S30650000E5E5FDE
S30650000E5FB884
S30650000E600338
S30650000E612515
S30650000E620435
S30650000E630038
S30650000E6483B4
S30650000E65270F
S30650000E6645F0
S30650000E670034
S30650000E6863D0
S30650000E698CA6
S30650000E6A072A
S30650000E6B0030
S30650000E6C83AC
S30650000E6DA787
S30650000E6E0726
S30650000E6F0428
S30650000E7063C8
S30650000E7188A2
S30650000E720722
S30650000E730028
S30650000E74B770
S30650000E751511
S30650000E760025
S30650000E7750D4
S30650000E789390
S30650000E79859D
S30650000E7AC55C
S30650000E7BEC34
S30650000E7CE738
S30650000E7D809E
S30650000E7E0716
S30650000E7F001C
S30650000E80B764
S30650000E811604
S30650000E820019
S30650000E8350C8
S30650000E84B760
S30650000E8525F1
S30650000E860015
S30650000E8751C3
S30650000E8837DC
S30650000E8925ED
S30650000E8A0011
S30650000E8B51BF
S30650000E8C23EC
S30650000E8D22EC
S30650000E8E010C
S30650000E8F000C
S30650000E9023E8
S30650000E9120EA
S30650000E920108
S30650000E930008
S30650000E949374
S30650000E9508FE
S30650000E968085
S30650000E97FF05
S30650000E9813F0
S30650000E9908FA
S30650000E9A0001
S30650000E9B0000
S30650000E9C936C
S30650000E9D07F7
S30650000E9E00FD
S30650000E9F00FC
S30650000EA013E8
S30650000EA107F3
S30650000EA200F9
S30650000EA300F8
S30650000EA49364
S30650000EA58670
S30650000EA606EF
S30650000EA7B73D
S30650000EA813E0
S30650000EA906EC
S30650000EAAC031
S30650000EAB529E
S30650000EAC935C
S30650000EAD8569
S30650000EAE05E8
S30650000EAF48A4
S30650000EB013D8
S30650000EB105E5
