S00D00007A65706879722E73313945
S306500000001396
S3065000000100A8
S3065000000200A7
S3065000000300A6
S306500000041392
S3065000000500A4
S3065000000600A3
S3065000000700A2
S30650000008138E
S3065000000900A0
S3065000000A009F
S3065000000B009E
S3065000000C138A
S3065000000D009C
S3065000000E009B
S3065000000F009A
S306500000101386
S306500000110098
S306500000120097
S306500000130096
S306500000141382
S306500000150094
S306500000160093
S306500000170092
S30650000018137E
S306500000190090
S3065000001A008F
S3065000001B008E
S3065000001C137A
S3065000001D008C
S3065000001E008B
S3065000001F008A
S306500000201376
S306500000210088
S306500000220087
S306500000230086
S306500000241372
S306500000250084
S306500000260083
S306500000270082
S30650000028136E
S306500000290080
S3065000002A007F
S3065000002B007E
S3065000002C136A
S3065000002D007C
S3065000002E007B
S3065000002F007A
S306500000301366
S306500000310078
S306500000320077
S306500000330076
S306500000341362
S306500000350074
S306500000360073
S306500000370072
S30650000038135E
S306500000390070
S3065000003A006F
S3065000003B006E
S3065000003C6FFE
S3065000003D006C
S3065000003E80EB
S3065000003F0565
S306500000406FFA
S306500000410068
S306500000424027
S306500000430561
S306500000446FF6
S306500000450064
S306500000460063
S30650000047055D
S306500000486FF2
S306500000490060
S3065000004AC09F
S3065000004B045A
S3065000004C6FEE
S3065000004D005C
S3065000004E80DB
S3065000004F0456
S306500000506FEA
S306500000510058
S306500000524017
S306500000530452
S306500000546FE6
S306500000550054
S306500000560053
S30650000057044E
S306500000586FE2
S306500000590050
S3065000005AC08F
S3065000005B034B
S3065000005C6FDE
S3065000005D004C
S3065000005E80CB
S3065000005F0347
S306500000606FDA
S306500000610048
S306500000624007
S306500000630343
S306500000646FD6
S306500000650044
S306500000660043
S30650000067033F
S306500000686FD2
S306500000690040
S3065000006AC07F
S3065000006B023C
S3065000006C6FCE
S3065000006D003C
S3065000006E80BB
S3065000006F0238
S306500000706FCA
S306500000710038
S3065000007240F7
S306500000730234
S306500000746FC6
S306500000750034
S306500000760033
S306500000770230
S306500000786FC2
S306500000790030
S3065000007AC06F
S3065000007B012D
S3065000007C6FBE
S3065000007D002C
S3065000007E80AB
S3065000007F0129
S306500000806FBA
S306500000810028
S306500000820027
S306500000830125
S306500000846FB6
S306500000850024
S306500000860023
S306500000870121
S306500000886FB2
S306500000890020
S3065000008AC05F
S3065000008B001E
S3065000008C6FAE
S3065000008D001C
S3065000008E809B
S3065000008F001A
S30650000090EF2A
S306500000910018
S306500000921007
S306500000936DA9
S306500000941302
S306500000950113
S306500000960112
S30650000097F919
S3065000009823EE
S3065000009920F0
S3065000009A11FE
S3065000009B000E
S3065000009C23EA
S3065000009D22EA
S3065000009E31DA
S3065000009F000A
S306500000A023E6
S306500000A124E4
S306500000A241C6
S306500000A30006
S306500000A423E2
S306500000A526DE
S306500000A651B2
S306500000A70002
S306500000A823DE
S306500000A928D8
S306500000AA619E
S306500000AB00FE
S306500000AC23DA
S306500000AD2AD2
S306500000AE718A
S306500000AF00FA
S306500000B023D6
S306500000B12CCC
S306500000B2C136
S306500000B301F5
S306500000B423D2
S306500000B52EC6
S306500000B6D122
S306500000B701F1
S306500000B823CE
S306500000B920D0
S306500000BAE10E
S306500000BB03EB
S306500000BC23CA
S306500000BD22CA
S306500000BEF1FA
S306500000BF03E7
S306500000C023C6
S306500000C124C4
S306500000C2A146
S306500000C302E4
S306500000C423C2
S306500000C526BE
S306500000C6B132
S306500000C702E0
S306500000C823BE
S306500000C928B8
S306500000CAC11E
S306500000CB02DC
S306500000CC23BA
S306500000CD2AB2
S306500000CED10A
S306500000CF02D8
S306500000D023B6
S306500000D12CAC
S306500000D2E1F6
S306500000D302D4
S306500000D423B2
S306500000D52EA6
S306500000D6F1E2
S306500000D702D0
S306500000D823AE
S306500000D920B0
S306500000DA01CE
S306500000DB05C9
S306500000DC23AA
S306500000DD22AA
S306500000DE11BA
S306500000DF05C5
S306500000E0F3D6
S306500000E122A6
S306500000E210B7
S306500000E33492
S306500000E423A2
S306500000E524A0
S306500000E65172
S306500000E704BE
S306500000E8F3CE
S306500000E9229E
S306500000EA00BF
S306500000EB7C42
S306500000EC239A
S306500000ED2696
S306500000EE516A
S306500000EF04B6
S306500000F0EFCA
S306500000F100B8
S306500000F28037
S306500000F31C9A
S306500000F4EFC6
S306500000F500B4
S306500000F600B3
S306500000F7258D
S306500000F8139E
S306500000F903AD
S306500000FA00AF
S306500000FB00AE
S306500000FC634A
S306500000FD1A92
S306500000FE05A6
S306500000FF02A8
S306500001008325
S306500001012285
S306500001028125
S3065000010304A1
S306500001049311
S306500001058221
S306500001064260
S3065000010700A1
S30650000108237D
S30650000109247B
S3065000010A514D
S3065000010B0499
S3065000010CF3A9
S3065000010D2279
S3065000010E207A
S3065000010F3465
S306500001109305
S306500001110394
S30650000112F0A6
S306500001130194
S30650000114B3E1
S30650000115F2A1
S306500001167220
S306500001170091
S30650000118137D
S30650000119038C
S3065000011AB0DE
S3065000011B008D
S3065000011C6329
S3065000011D8407
S3065000011E6228
S3065000011F0A7F
S306500001201375
S306500001210582
S306500001220185
S306500001230085
S3065000012497ED
S306500001250083
S306500001260082
S306500001270081
S3065000012893ED
S3065000012980FF
S3065000012A007E
S3065000012B136A
S3065000012C6F0D
S3065000012D007B
S3065000012E90EA
S3065000012F7EFB
S3065000013093E5
S306500001310275
S306500001320175
S306500001330075
S3065000013497DD
S306500001350370
S306500001360072
S306500001370170
S3065000013893DD
S3065000013983EC
S3065000013A036B
S3065000013B5914
S3065000013C0369
S3065000013DA1CA
S3065000013E4327
S3065000013F0069
S306500001401355
S306500001410166
S306500001420165
S30650000143FF66
S306500001442341
S306500001452043
S306500001465111
S306500001470061
S30650000148035D
S30650000149AEB1
S3065000014A035B
S3065000014B005D
S3065000014C1349
S3065000014D0E4D
S3065000014E1E3C
S3065000014F0059
S306500001502335
S30650000151A0B7
S30650000152C393
S306500001530154
S3065000015463F1
S30650000155084B
S30650000156034F
S306500001570051
S3065000015897B9
S30650000159004F
S3065000015A004E
S3065000015B004D
S3065000015C93B9
S3065000015D80CB
S3065000015E80CA
S3065000015F0346
S306500001606FD9
S306500001611037
S30650000162C086
S306500001630F36
S3065000016473D1
S30650000165251E
S306500001662022
S30650000167340D
S3065000016893AD
S30650000169023D
S3065000016AF04E
S3065000016B013C
S3065000016C3309
S3065000016D75C6
S3065000016E55E5
S3065000016F0039
S30650000170EF49
S306500001710037
S306500001720036
S306500001731B1A
S30650000174979D
S306500001750231
S306500001760032
S306500001770130
S30650000178939D
S3065000017982AD
S3065000017AC26C
S3065000017BEB42
S3065000017C1319
S3065000017D1516
S3065000017E35F5
S3065000017F0029
S30650000180B375
S3065000018182A5
S30650000182A284
S306500001830025
S306500001840321
S30650000185A57E
S306500001860220
S306500001870021
S30650000188031D
S30650000189A37C
S3065000018A42DC
S3065000018B001D
S3065000018CE735
S3065000018D001B
S3065000018E0317
S3065000018F0019
S306500001901701
S306500001910314
S306500001920016
S306500001930114
S306500001941301
S306500001950310
S3065000019643CF
S3065000019753BE
S30650000198838D
S3065000019923EC
S3065000019A030B
S3065000019B000D
S3065000019C9379
S3065000019D8388
S3065000019EF317
S3065000019FFF0A
S306500001A023E5
S306500001A120E7
S306500001A27393
S306500001A30005
S306500001A48381
S306500001A522E1
S306500001A60101
S306500001A70001
S306500001A813ED
S306500001A9817E
S306500001AA02FC
S306500001AB00FD
S306500001AC8379
S306500001AD23D8
S306500001AE8377
S306500001AF00F9
S306500001B003F5
S306500001B1DE19
S306500001B2A353
S306500001B300F5
S306500001B49361
S306500001B50EE5
S306500001B600F2
S306500001B708E9
S306500001B8638D
S306500001B97E71
S306500001BADE10
S306500001BB09E4
S306500001BC03E9
S306500001BD2EBD
S306500001BE43A7
S306500001BF01E8
S306500001C06385
S306500001C10ADD
S306500001C27E68
S306500001C308DD
S306500001C4EFF5
S306500001C510D3
S306500001C640A2
S306500001C7627F
S306500001C89749
S306500001C902DD
S306500001CA00DE
S306500001CB01DC
S306500001CC9349
S306500001CD8259
S306500001CEC218
S306500001CF4F8A
S306500001D003D5
S306500001D1A334
S306500001D28254
S306500001D300D5
S306500001D423B1
S306500001D526AD
S306500001D6834F
S306500001D702CF
S306500001D823AD
S306500001D928A7
S306500001DA933B
S306500001DB02CB
S306500001DC23A9
S306500001DD2AA1
S306500001DE23A7
S306500001DF03C6
S306500001E023A5
S306500001E12C9B
S306500001E23393
S306500001E303C2
S306500001E423A1
S306500001E52E95
S306500001E6437F
S306500001E703BE
S306500001E8239D
S306500001E9209F
S306500001EA536B
S306500001EB05B8
S306500001EC2399
S306500001ED2299
S306500001EE6357
S306500001EF05B4
S306500001F02395
S306500001F12493
S306500001F27343
S306500001F305B0
S306500001F42391
S306500001F5268D
S306500001F6832F
S306500001F705AC
S306500001F8238D
S306500001F92887
S306500001FA931B
S306500001FB05A8
S306500001FC2389
S306500001FD2A81
S306500001FEA307
S306500001FF05A4
S306500002002384
S306500002012C7A
S30650000202B3F2
S30650000203059F
S306500002042380
S30650000205247E
S30650000206237E
S30650000207029E
S306500002089708
S30650000209039B
S3065000020A009D
S3065000020B019B
S3065000020C9308
S3065000020D8317
S3065000020E8316
S3065000020F3B5D
S306500002100394
S30650000211AEE8
S306500002120392
S306500002130094
S306500002142370
S30650000215246E
S30650000216C3CE
S306500002170789
S30650000218038C
S30650000219A3EB
S3065000021A424B
S3065000021B018B
S3065000021C2368
S3065000021DA4E6
S3065000021E6227
S3065000021F0088
S306500002200384
S306500002212165
S306500002228302
S306500002230282
S306500002240380
S30650000225245E
S30650000226C3BE
S30650000227027E
S3065000022883FC
S30650000229245A
S3065000022A037A
S3065000022B0379
S3065000022C0378
S3065000022D2951
S3065000022E4336
S3065000022F0375
S3065000023083F4
S30650000231294D
S3065000023283F2
S306500002330371
S306500002340370
S306500002352A48
S30650000236C3AE
S30650000237036D
S3065000023883EC
S306500002392A44
S3065000023A036A
S3065000023B0468
S3065000023C0368
S3065000023D2B3F
S3065000023E4326
S3065000023F0464
S3065000024083E4
S306500002412B3B
S3065000024283E2
S306500002430460
S306500002440360
S306500002452C36
S30650000246C39E
S30650000247045C
S3065000024883DC
S306500002492C32
S3065000024A035A
S3065000024B0557
S3065000024C0358
S3065000024D2D2D
S3065000024E4316
S3065000024F0553
S3065000025083D4
S306500002512D29
S3065000025283D2
S30650000253054F
S30650000254EF64
S306500002550052
S3065000025680D1
S306500002570947
S3065000025883CC
S30650000259222C
S3065000025A81CC
S3065000025B0448
S3065000025C73D8
S3065000025D90BA
S3065000025E1237
S3065000025F3414
S3065000026083C4
S306500002612224
S30650000262C184
S306500002630440
S3065000026473D0
S3065000026590B2
S30650000266023F
S306500002677CC4
S3065000026883BC
S30650000269201E
S3065000026A013C
S3065000026B003C
S3065000026C83B8
S3065000026D2119
S3065000026E41F8
S3065000026F0038
S306500002700334
S306500002712214
S3065000027281B4
S306500002730034
S3065000027483B0
S306500002752210
S30650000276C170
S306500002770030
S30650000278032C
S30650000279230B
S3065000027A012C
S3065000027B012B
S3065000027C83A8
S3065000027D2307
S3065000027E41E8
S3065000027F0127
S306500002800324
S306500002812EF8
S3065000028281A4
S306500002830123
S3065000028483A0
S306500002852EF4
S30650000286C160
S30650000287011F
S30650000288031C
S306500002892FEF
S3065000028A011C
S3065000028B021A
S3065000028C8398
S3065000028D2FEB
S3065000028E41D8
S3065000028F0216
S306500002900314
S3065000029125F1
S306500002928194
S306500002930212
S306500002948390
S3065000029525ED
S30650000296C150
S30650000297020E
S30650000298030C
S3065000029926E8
S3065000029A010C
S3065000029B0309
S3065000029C8388
S3065000029D26E4
S3065000029E41C8
S3065000029F0305
S306500002A00304
S306500002A127DF
S306500002A28184
S306500002A30301
S306500002A48380
S306500002A527DB
S306500002A6C140
S306500002A703FD
S306500002A803FC
S306500002A928D6
S306500002AA01FC
S306500002AB04F8
S306500002AC8378
S306500002AD28D2
S306500002AE41B8
S306500002AF04F4
S306500002B013E4
S306500002B101F5
S306500002B201F4
S306500002B307ED
S306500002B47380
S306500002B500F2
S306500002B600F1
S306500002B710E0
S306500002B8F3FC
S306500002B922CC
S306500002BA00ED
S306500002BB7B71
S306500002BC7378
S306500002BD23C7
S306500002BE10D9
S306500002BF7B6D
S306500002C0F3F4
S306500002C123C3
S306500002C220C5
S306500002C37B69
S306500002C423C0
S306500002C528BA
S306500002C65190
S306500002C704DC
S306500002C823BC
S306500002C92AB4
S306500002CA617C
S306500002CB04D8
S306500002CC23B8
S306500002CD2CAE
S306500002CE7168
S306500002CF04D4
S306500002D0F3E4
S306500002D122B4
S306500002D24095
S306500002D37B59
S306500002D47360
S306500002D523AF
S306500002D65081
S306500002D77B55
S306500002D8F3DC
S306500002D923AB
S306500002DA606D
S306500002DB7B51
S306500002DC23A8
S306500002DD2E9C
S306500002DE5178
S306500002DF04C4
S306500002E023A4
S306500002E120A6
S306500002E26164
S306500002E306BE
S306500002E423A0
S306500002E522A0
S306500002E67150
S306500002E706BA
S306500002E86758
S306500002E9803E
S306500002EA00BD
S306500002EB00BC
S306500002EC8338
S306500002ED2298
S306500002EE01B8
S306500002EF05B3
S306500002F003B4
S306500002F12393
S306500002F24174
S306500002F305AF
S306500002F48330
S306500002F5238F
S306500002F68130
S306500002F705AB
S306500002F8733C
S306500002F9901E
S306500002FA02AB
S306500002FB7B31
S306500002FC7338
S306500002FD109A
S306500002FE1396
S306500002FF7B2D
S306500003007333
S306500003019015
S306500003022381
S306500003037B28
S30650000304831F
S30650000305227F
S30650000306C1DF
S30650000307059A
S30650000308039B
S30650000309237A
S3065000030A019B
S3065000030B0695
S3065000030C8317
S3065000030D2376
S3065000030E4157
S3065000030F0691
S306500003107323
S306500003119005
S306500003124252
S306500003137B18
S30650000314731F
S306500003151081
S30650000316533D
S306500003177B14
S30650000318731B
S3065000031990FD
S3065000031A6329
S3065000031B7B10
S3065000031C6723
S3065000031D8009
S3065000031E0088
S3065000031F0087
S30650000320374F
S306500003214342
S306500003221074
S306500003231A69
S30650000324136F
S30650000325037E
S30650000326C3BD
S30650000327007F
S3065000032893EB
S30650000329037A
S3065000032A106C
S3065000032B007B
S3065000032C3347
S3065000032D9EDB
S3065000032EA3D5
S3065000032F0077
S306500003302353
S306500003312055
S30650000332C3B1
S306500003330172
S30650000334373B
S30650000335432E
S306500003361060
S306500003371A55
S30650000338135B
S30650000339036A
S3065000033AC3A9
S3065000033B016A
S3065000033C2347
S3065000033D2049
S3065000033EC3A5
S3065000033F0166
S3065000034067FF
S3065000034180E5
S306500003420064
S306500003430063
S30650000344F36F
S30650000345223F
S306500003462040
S30650000347342B
S3065000034893CB
S30650000349F26B
S3065000034AF26A
S3065000034B015A
S3065000034C1347
S3065000034D0356
S3065000034EF068
S3065000034F0057
S306500003501343
S306500003510550
S306500003520054
S306500003530053
S3065000035463EF
S30650000355C48D
S3065000035662EE
S30650000357004F
S30650000358133B
S306500003590548
S3065000035A1537
S3065000035B004B
S3065000035C67E3
S3065000035D80C9
S3065000035E0048
S3065000035F0047
S3065000036073D3
S306500003610045
S306500003620044
S306500003630043
S3065000036497AB
S30650000365023F
S306500003660040
S30650000367013E
S3065000036893AB
S3065000036982BB
S3065000036A023A
S3065000036B3605
S3065000036C0337
S3065000036DA396
S3065000036E82B6
S3065000036F0037
S3065000037083B3
S306500003712312
S3065000037283B1
S30650000373062D
S30650000374131F
S3065000037575BC
S30650000376151B
S30650000377002F
S30650000378F33B
S30650000379220B
S3065000037A0527
S3065000037B30FB
S3065000037C1317
S3065000037D85A4
S3065000037E0325
S3065000037F0027
S3065000038067BF
S3065000038180A5
S306500003820024
S306500003830023
S30650000384B76B
S30650000385051C
S306500003860020
S3065000038751CE
S3065000038837E7
S306500003890518
S3065000038A001C
S3065000038B51CA
S3065000038C9387
S3065000038D8594
S3065000038E0513
S3065000038F1304
S306500003901303
S306500003910510
S30650000392858F
S306500003931300
S306500003946FA3
S306500003950011
S30650000396D040
S3065000039731DE
S306500003988B83
S3065000039947C6
S3065000039A15F7
S3065000039B000B
S3065000039C0BFF
S3065000039DC742
S3065000039E15F3
S3065000039F0007
S306500003A063A3
S306500003A1966F
S306500003A2E71D
S306500003A30003
S306500003A4E31F
S306500003A59A67
S306500003A607F9
S306500003A7FE01
S306500003A813EB
S306500003A98776
S306500003AA07F5
S306500003AB00FB
S306500003AC33C7
S306500003AD8574
S306500003AEE711
S306500003AF40B7
S306500003B0678F
S306500003B18075
S306500003B200F4
S306500003B300F3
S306500003B4935F
S306500003B5F6FB
S306500003B6F5FB
S306500003B70FE0
S306500003B8935B
S306500003B907E6
S306500003BA05E7
S306500003BB00EB
S306500003BC13D7
S306500003BD07E2
S306500003BE16D2
S306500003BF00E7
S306500003C033B3
S306500003C1B82D
S306500003C227BD
S306500003C3FAE9
S306500003C4637F
S306500003C50ED3
S306500003C608D8
S306500003C700DF
S306500003C813CB
S306500003C907D6
S306500003CAF7E5
S306500003CBFFDC
S306500003CC6377
S306500003CD14C5
S306500003CE07D1
S306500003CF00D7
S306500003D0676F
S306500003D18055
S306500003D200D4
S306500003D300D3
S306500003D4AB27
S306500003D58051
S306500003D6D7F9
S306500003D700CF
S306500003D813BB
S306500003D906C7
S306500003DAF6D6
S306500003DBFFCC
S306500003DC6F5B
S306500003DDF0D9
S306500003DE5F69
S306500003DFFEC9
S306500003E0B313
S306500003E1B510
S306500003E2853F
S306500003E3EED5
S306500003E413AF
S306500003E5972A
S306500003E6853B
S306500003E700BF
S306500003E8B30B
S306500003E9E5D8
S306500003EAE5D7
S306500003EB00BB
S306500003EC13A7
S306500003ED9722
S306500003EE05B3
S306500003EF01B6
S306500003F0B303
S306500003F1E5D0
S306500003F2E5CF
S306500003F300B3
S306500003F4139F
S306500003F5575A
S306500003F6268A
S306500003F700AF
S306500003F8139B
S306500003F98825
S306500003FA07A5
S306500003FB00AB
S306500003FC1397
S306500003FD07A2
S306500003FE1791
S306500003FF00A7
S306500004001392
S30650000401079D
S30650000402F7AC
S30650000403FFA3
S30650000404633E
S306500004051090
S306500004060798
S30650000407029C
S30650000408138A
S306500004095745
S3065000040A2675
S3065000040B009A
S3065000040C9306
S3065000040D1583
S3065000040E2770
S3065000040F0096
S30650000410B3E2
S30650000411870D
S30650000412B7DC
S306500004130092
S3065000041493FE
S30650000415058B
S30650000416C0CF
S30650000417FF8F
S30650000418335A
S306500004190686
S3065000041AB7D4
S3065000041B4248
S3065000041C1376
S3065000041D0682
S3065000041E1671
S3065000041F0086
S306500004206F16
S306500004210084
S306500004220083
S306500004230181
S306500004242B56
S30650000425225E
S30650000426B8C7
S30650000427007E
S306500004286F0E
S30650000429F08C
S3065000042A9FDC
S3065000042BFD7D
S3065000042CABCE
S3065000042D80F8
S3065000042ED7A0
S3065000042F0076
S306500004301362
S30650000431066E
S30650000432F67D
S30650000433FF73
S30650000434E38E
S306500004351C54
S306500004360669
S30650000437FE70
S306500004386706
S3065000043980EC
S3065000043A006B
S3065000043B006A
S3065000043C1356
S3065000043D0167
S3065000043E0166
S3065000043FFF67
S306500004402342
S306500004412440
S3065000044281E2
S306500004430062
S30650000444372A
S30650000445045C
S30650000446005F
S30650000447510D
S30650000448233A
S30650000449223A
S3065000044A91CA
S3065000044B005A
S3065000044C2336
S3065000044D2632
S3065000044E1146
S3065000044F0056
S3065000045093C2
S306500004510450
S30650000452054E
S306500004530052
S30650000454133E
S30650000455044C
S30650000456044B
S306500004575DF1
S3065000045863EA
S306500004593C10
S3065000045AA5A6
S3065000045B004A
S3065000045C0346
S3065000045D2523
S3065000045E0443
S3065000045F0046
S3065000046093B2
S30650000461053F
S30650000462D073
S306500004630042
S3065000046483BE
S306500004652719
S3065000046645FA
S30650000467003E
S3065000046883BA
S30650000469A795
S3065000046A47F4
S3065000046B003A
S3065000046CE752
S3065000046D80B8
S3065000046E0730
S3065000046F0036
S306500004700332
S30650000471250F
S30650000472042F
S306500004730032
S30650000474939E
S30650000475F53B
S30650000476F43B
S306500004770F1F
S3065000047883AA
S306500004792705
S3065000047A45E6
S3065000047B002A
S3065000047C83A6
S3065000047DA781
S3065000047E47E0
S3065000047F0026
S30650000480E73E
S3065000048180A4
S30650000482071C
S306500004830022
S30650000484839E
S306500004852000
S30650000486C15E
S30650000487001E
S30650000488130A
S306500004898597
S3065000048A0417
S3065000048B001A
S3065000048C0316
S3065000048D24F4
S3065000048E8196
S3065000048F0016
S306500004908392
S3065000049124F0
S3065000049241D2
S306500004930012
S3065000049413FE
S30650000495010F
S30650000496010E
S30650000497010D
S3065000049867A6
S30650000499808C
S3065000049A000B
S3065000049B000A
S3065000049C37D2
S3065000049D0503
S3065000049E0007
S3065000049F50B6
S306500004A013F2
S306500004A105FF
S306500004A2C53E
S306500004A343BF
S306500004A46F92
S306500004A50000
S306500004A6C03F
S306500004A7639B
S306500004A837C6
S306500004A905F7
S306500004AA00FB
S306500004AB51A9
S306500004AC13E6
S306500004AD01F7
S306500004AE01F6
S306500004AFFFF7
S306500004B013E2
S306500004B105EF
S306500004B2C52E
S306500004B314DE
S306500004B423CE
S306500004B526CA
S306500004B611DE
S306500004B700EE
S306500004B8EFFE
S306500004B900EC
S306500004BA509B
S306500004BB6288
S306500004BCB732
S306500004BD07E1
S306500004BE00E7
S306500004BF5195
S306500004C023C2
S306500004C1A83C
S306500004C2A73C
S306500004C35C86
S306500004C4EFF2
S306500004C5F0F0
S306500004C69F40
S306500004C7FDE1
S306500004C8835A
S306500004C920BC
S306500004CAC11A
S306500004CB00DA
S306500004CC13C6
S306500004CD05D3
S306500004CE00D7
S306500004CF00D6
S306500004D013C2
S306500004D101D3
S306500004D201D2
S306500004D301D1
S306500004D4676A
S306500004D58050
S306500004D600CF
S306500004D700CE
S306500004D8834A
S306500004D928A4
S306500004DA8546
S306500004DB00CA
S306500004DC13B6
S306500004DD07C1
S306500004DE10B7
S306500004DF00C6
S306500004E07352
S306500004E1378D
S306500004E207BC
S306500004E33092
S306500004E403BE
S306500004E5A61A
S306500004E64877
S306500004E700BE
S306500004E8338A
S306500004E93785
S306500004EA17A4
S306500004EBFCBE
S306500004EC6356
S306500004ED0AAE
S306500004EE06B1
S306500004EF06B0
S306500004F08332
S306500004F1278D
S306500004F205AE
S306500004F300B2
S306500004F4832E
S306500004F5A709
S306500004F68728
S306500004F700AE
S306500004F8832A
S306500004F9A705
S306500004FA07A4
S306500004FB00AA
S306500004FC6346
S306500004FD8226
S306500004FE07A0
S306500004FF06A0
S30650000500B3F1
S30650000501D7CC
S30650000502C7DB
S30650000503029F
S30650000504039D
S30650000505237C
S306500005068519
S30650000507009D
S306500005088319
S306500005092675
S3065000050A0397
S3065000050B0099
S3065000050C1385
S3065000050D0E89
S3065000050E0096
S3065000050FF89D
S306500005109301
S30650000511860D
S30650000512C6CC
S306500005130091
S30650000514830D
S30650000515C5CA
S306500005160688
S30650000517008D
S306500005182369
S30650000519800B
S3065000051AC6C4
S3065000051B0188
S3065000051C93F5
S3065000051DF592
S3065000051EF591
S3065000051F0F76
S306500005201371
S30650000521D8AB
S30650000522473B
S306500005230081
S3065000052493ED
S306500005257609
S30650000526F886
S306500005270F6E
S306500005280379
S306500005292853
S3065000052A85F5
S3065000052B0079
S3065000052C0375
S3065000052D284F
S3065000052E086E
S3065000052F0075
S3065000053093E1
S30650000531D79C
S30650000532C7AB
S306500005330071
S30650000534234D
S30650000535006F
S30650000536D896
S30650000537006D
S3065000053883E9
S306500005392645
S3065000053A85E5
S3065000053B0069
S3065000053C83E5
S3065000053DA6C1
S3065000053E0660
S3065000053F0065
S3065000054093D1
S30650000541F76C
S30650000542F76B
S306500005430F52
S3065000054493CD
S3065000054586D9
S306500005464618
S30650000547005D
S306500005482339
S3065000054980DB
S3065000054AF664
S3065000054B0059
S3065000054C83D5
S3065000054D2730
S3065000054E85D1
S3065000054F0055
S3065000055083D1
S30650000551A7AC
S30650000552074B
S306500005530051
S3065000055493BD
S3065000055587C8
S30650000556C787
S30650000557004D
S306500005582329
S3065000055980CB
S3065000055AB793
S3065000055B0049
S3065000055C2325
S3065000055D2225
S3065000055EC383
S3065000055F0045
S3065000056083C1
S30650000561271C
S3065000056285BD
S306500005630041
S3065000056483BD
S30650000565A798
S306500005660737
S30650000567003D
S3065000056893A9
S306500005690635
S3065000056A300A
S3065000056B0039
S3065000056C93A5
S3065000056D87B0
S3065000056EC76F
S3065000056F0035
S306500005702311
S3065000057180B3
S30650000572D75B
S306500005730031
S3065000057483AD
S30650000575C768
S3065000057688A6
S30650000577002D
S306500005789399
S306500005790625
S3065000057AB07A
S3065000057B0029
S3065000057CB375
S3065000057DB770
S3065000057E170F
S3065000057FFC29
S3065000058063C1
S30650000581849F
S30650000582071B
S306500005830021
S30650000584938D
S306500005850619
S30650000586B06E
S30650000587021B
S306500005888399
S3065000058927F4
S3065000058A8595
S3065000058B0019
S3065000058C8395
S3065000058DA770
S3065000058E070F
S3065000058F0015
S306500005909381
S30650000591878C
S30650000592070B
S306500005930110
S3065000059423ED
S30650000595808F
S30650000596D737
S30650000597000D
S306500005988389
S3065000059927E4
S3065000059A8585
S3065000059B0009
S3065000059C8385
S3065000059DA760
S3065000059E07FF
S3065000059F0005
S306500005A09371
S306500005A106FD
S306500005A27092
S306500005A3FA07
S306500005A4936D
S306500005A58778
S306500005A68777
S306500005A700FD
S306500005A823D9
S306500005A9807B
S306500005AAD723
S306500005AB00F9
S306500005AC03F5
S306500005AD25D2
S306500005AE8571
S306500005AF00F5
S306500005B08371
S306500005B127CC
S306500005B205ED
S306500005B300F1
S306500005B48B65
S306500005B58669
S306500005B647A7
S306500005B700ED
S306500005B823C9
S306500005B9806B
S306500005BA07E3
S306500005BB00E9
S306500005BC7375
S306500005BD27C0
S306500005BE07DF
S306500005BF30B5
S306500005C013D1
S306500005C105DE
S306500005C200E2
S306500005C300E1
S306500005C46779
S306500005C5805F
S306500005C600DE
S306500005C700DD
S306500005C803D9
S306500005C925B6
S306500005CA8555
S306500005CB00D9
S306500005CC03D5
S306500005CD27B0
S306500005CE05D1
S306500005CF00D5
S306500005D09341
S306500005D107CC
S306500005D2478B
S306500005D301D0
S306500005D4834D
S306500005D5C708
S306500005D607C7
S306500005D700CD
S306500005D8B319
S306500005D9B714
S306500005DA17B3
S306500005DBFCCD
S306500005DC6365
S306500005DD8A3D
S306500005DE07BF
S306500005DF00C5
S306500005E08341
S306500005E1477C
S306500005E207BB
S306500005E300C1
S306500005E413AD
S306500005E505BA
S306500005E600BE
S306500005E700BD
S306500005E82399
S306500005E9803B
S306500005EAF5C5
S306500005EB00B9
S306500005EC6751
S306500005ED8037
S306500005EE00B6
S306500005EF00B5
S306500005F013A1
S306500005F105AE
S306500005F2F0C2
S306500005F3FFB2
S306500005F46749
S306500005F5802F
S306500005F600AE
S306500005F700AD
S306500005F803A9
S306500005F92586
S306500005FA8525
S306500005FB00A9
S306500005FC03A5
S306500005FD2780
S306500005FE05A1
S306500005FF00A5
S306500006009310
S30650000601069C
S30650000602475A
S30650000603019F
S30650000604831C
S30650000605C7D7
S306500006060697
S30650000607009C
S306500006089308
S30650000609F7A3
S3065000060A0792
S3065000060B0494
S3065000060CE3B4
S3065000060D8C0A
S3065000060E078E
S3065000060FFE96
S306500006102370
S306500006110092
S30650000612B7DA
S306500006130090
S30650000614137C
S306500006158509
S306500006160588
S30650000617008C
S306500006186724
S30650000619800A
S3065000061A0089
S3065000061B0088
S3065000061C0384
S3065000061D2561
S3065000061E8500
S3065000061F0084
S306500006208300
S30650000621275B
S30650000622057C
S306500006230080
S3065000062493EC
S3065000062587F7
S306500006264736
S30650000627017B
S306500006280378
S30650000629C5B5
S3065000062A0772
S3065000062B0078
S3065000062C1364
S3065000062D7501
S3065000062EE590
S3065000062F0173
S306500006301360
S30650000631551D
S30650000632155C
S306500006330070
S306500006346708
S3065000063580EE
S30650000636006D
S30650000637006C
S30650000638B7B4
S306500006393733
S3065000063A1059
S3065000063B1A4E
S3065000063C2344
S3065000063DA0C6
S3065000063E075E
S3065000063F0064
S30650000640B7AC
S30650000641075B
S306500006420061
S30650000643510F
S3065000064493CC
S3065000064587D7
S306500006464716
S306500006475DFF
S30650000648B7A4
S306500006490654
S3065000064A0059
S3065000064B5107
S3065000064C0354
S3065000064DA7AF
S3065000064E074E
S3065000064F0054
S3065000065083D0
S30650000651A6AC
S30650000652C68B
S306500006535CF4
S30650000654331C
S306500006550747
S30650000656D776
S30650000657004C
S306500006582328
S30650000659A0AA
S3065000065AE762
S3065000065B0048
S3065000065CB790
S3065000065D073F
S3065000065E0045
S3065000065F51F3
S306500006600340
S30650000661A59D
S3065000066287BA
S306500006635CE4
S306500006646FD0
S30650000665102E
S30650000666003D
S306500006671923
S306500006681328
S306500006690139
S3065000066A0138
S3065000066BFF39
S3065000066C1324
S3065000066D0531
S3065000066ED065
S3065000066F0133
S306500006702310
S30650000671260C
S306500006721120
S306500006730030
S30650000674EF40
S30650000675002E
S30650000676D05D
S306500006770725
S30650000678B774
S3065000067937F3
S3065000067A1019
S3065000067B1A0E
S3065000067C2304
S3065000067DA086
S3065000067E071E
S3065000067F0024
S3065000068037EC
S30650000681071B
S306500006820021
S3065000068351CF
S30650000684031C
S3065000068527F7
S30650000686C756
S306500006875CC0
S306500006888398
S3065000068920FA
S3065000068AC158
S3065000068B0018
S3065000068C23F4
S3065000068DA472
S3065000068EE72E
S3065000068F0014
S306500006901300
S30650000691070B
S306500006921001
S306500006930010
S3065000069413FC
S306500006950509
S30650000696000D
S30650000697000C
S3065000069823E8
S30650000699A268
S3065000069AE722
S3065000069B0008
S3065000069C13F4
S3065000069D0105
S3065000069E0104
S3065000069F0103
S306500006A0679C
S306500006A18082
S306500006A20001
S306500006A30000
S306500006A4837C
S306500006A527D7
S306500006A605F8
S306500006A700FC
S306500006A813E8
S306500006A901F9
S306500006AA01F8
S306500006ABFFF9
S306500006AC8374
S306500006ADA74F
S306500006AE876E
S306500006AF00F4
S306500006B023D0
S306500006B122D0
S306500006B29160
S306500006B300F0
S306500006B4836C
S306500006B5A44A
S306500006B607E6
S306500006B700EC
S306500006B88368
S306500006B927C3
S306500006BA8564
S306500006BB00E8
S306500006BC23C4
S306500006BD24C2
S306500006BE8164
S306500006BF00E4
S306500006C003E0
S306500006C1A43E
S306500006C207DA
S306500006C300E0
S306500006C423BC
S306500006C526B8
S306500006C611CC
S306500006C700DC
S306500006C823B8
S306500006C920BA
S306500006CA21B8
S306500006CB01D7
S306500006CC8354
S306500006CDA432
S306500006CE8451
S306500006CF01D3
S306500006D06370
S306500006D108CA
S306500006D204CD
S306500006D302CE
S306500006D413BC
S306500006D509C5
S306500006D605C8
S306500006D700CC
S306500006D88348
S306500006D927A3
S306500006DA8445
S306500006DB00C8
S306500006DCB314
S306500006DDF7CF
S306500006DEF4D1
S306500006DF00C4
S306500006E06360
S306500006E18C36
S306500006E207BA
S306500006E300C0
S306500006E4833C
S306500006E52797
S306500006E64479
S306500006E700BC
S306500006E813A8
S306500006E98634
S306500006EA04B5
S306500006EB00B8
S306500006EC9324
S306500006ED05B1
S306500006EE04B1
S306500006EF00B4
S306500006F013A0
S306500006F105AD
S306500006F209A8
S306500006F300B0
S306500006F4E7C8
S306500006F5802E
S306500006F607A6
S306500006F700AC
S306500006F803A8
S306500006F92486
S306500006FA04A5
S306500006FB00A8
S306500006FCE3C4
S306500006FD1E88
S306500006FE04A1
S306500006FFFCA8
S30650000700831F
S306500007012081
S30650000702C1DF
S30650000703009F
S30650000704039B
S306500007052479
S30650000706811B
S30650000707009B
S306500007088317
S306500007092475
S3065000070A4157
S3065000070B0097
S3065000070C0393
S3065000070D296C
S3065000070E0193
S3065000070F0093
S30650000710137F
S306500007110190
S30650000712018F
S30650000713018E
S306500007146727
S30650000715800D
S30650000716008C
S30650000717008B
S306500007188307
S306500007192762
S3065000071A0583
S3065000071B0087
S3065000071C8303
S3065000071DA7DE
S3065000071E87FD
S3065000071F0083
S3065000072083FF
S30650000721A7DA
S306500007220779
S30650000723007F
S30650000724631B
S3065000072586F7
S306500007260577
S30650000727007B
S306500007281367
S306500007290574
S3065000072AD0A8
S3065000072BFD7A
S3065000072C670F
S3065000072D80F5
S3065000072E0074
S3065000072F0073
S30650000730135F
S30650000731076A
S30650000732F080
S30650000733016E
S30650000734630B
S3065000073576F7
S30650000736C7A5
S30650000737006B
S306500007381357
S306500007390564
S3065000073AA0C8
S3065000073BFE69
S3065000073C67FF
S3065000073D80E5
S3065000073E0064
S3065000073F0063
S3065000074093CF
S30650000741055C
S306500007421050
S30650000743005F
S30650000744332B
S30650000745B8A5
S306500007461646
S30650000747FC5F
S306500007480357
S30650000749A7B2
S3065000074A0751
S3065000074B0057
S3065000074CB3A3
S3065000074D95C0
S3065000074EC58F
S3065000074F0053
S3065000075063EF
S30650000751064B
S306500007520848
S30650000753004F
S30650000754B39B
S30650000755E568
S30650000756E567
S30650000757004B
S306500007586FDB
S306500007590049
S3065000075AC088
S3065000075B0047
S3065000075C93B3
S3065000075DC580
S3065000075EF54F
S3065000075FFF44
S30650000760B38F
S30650000761F54C
S30650000762E55B
S30650000763003F
S30650000764132B
S30650000765F548
S306500007662616
S30650000767003B
S306500007682317
S30650000769A099
S3065000076AB781
S3065000076B0037
S3065000076C63D3
S3065000076D0C29
S3065000076E052F
S3065000076F062D
S30650000770E34F
S30650000771141D
S306500007720828
S30650000773FC33
S30650000774131B
S30650000775F538
S306500007760626
S306500007770427
S30650000778E347
S306500007791811
S3065000077A0523
S3065000077BFA2D
S3065000077C1313
S3065000077DF72E
S3065000077E061E
S3065000077F0221
S30650000780938F
S30650000781051C
S306500007821010
S30650000783001F
S3065000078463BB
S306500007850A13
S306500007860715
S30650000787001B
S306500007880317
S30650000789A772
S3065000078A47D1
S3065000078B0116
S3065000078CB363
S3065000078D9580
S3065000078EC54F
S3065000078F0013
S30650000790B35F
S30650000791E52C
S30650000792E52B
S30650000793000F
S306500007946F9F
S30650000795000D
S3065000079640CC
S30650000797010A
S30650000798B357
S306500007999574
S3065000079AC543
S3065000079B0007
S3065000079C0303
S3065000079DA75E
S3065000079E47BD
S3065000079F0102
S306500007A0936F
S306500007A1C53C
S306500007A2F50B
S306500007A3FF00
S306500007A4B34B
S306500007A5F508
S306500007A6E517
S306500007A700FB
S306500007A89367
S306500007A9F603
S306500007AA46B2
S306500007AB00F7
S306500007AC23D3
S306500007ADAA4B
S306500007AEB73D
S306500007AF00F3
S306500007B013DF
S306500007B107EA
S306500007B210E0
S306500007B300EF
S306500007B4638B
S306500007B58E5F
S306500007B606E6
S306500007B700EB
S306500007B833B7
S306500007B917D2
S306500007BAC721
S306500007BB00E7
S306500007BC8363
S306500007BDA63F
S306500007BE07DD
S306500007BF01E2
S306500007C013CF
S306500007C1479A
S306500007C2F7E9
S306500007C3FFE0
S306500007C433AB
S306500007C57766
S306500007C6D705
S306500007C700DB
S306500007C823B7
S306500007C9A831
S306500007CAE7F1
S306500007CB00D7
S306500007CC676F
S306500007CD8055
S306500007CE00D4
S306500007CF00D3
S306500007D0834F
S306500007D1A62B
S306500007D207C9
S306500007D301CE
S306500007D4339B
S306500007D517B6
S306500007D6C705
S306500007D700CB
S306500007D83397
S306500007D96762
S306500007DAD7F1
S306500007DB00C7
S306500007DC23A3
S306500007DDA81D
S306500007DEE7DD
S306500007DF00C3
S306500007E013AF
S306500007E105BC
S306500007E200C0
S306500007E300BF
S306500007E46757
S306500007E5803D
S306500007E600BC
S306500007E700BB
S306500007E803B7
S306500007E92792
S306500007EA05B3
S306500007EB00B7
S306500007EC03B3
S306500007ED278E
S306500007EE872D
S306500007EF00B3
S306500007F003AF
S306500007F1278A
S306500007F207A9
S306500007F300AF
S306500007F4634B
S306500007F59C11
S306500007F605A7
S306500007F702A9
S306500007F89317
S306500007F907A2
S306500007FA1098
S306500007FB00A7
S306500007FC6343
S306500007FD8A1B
S306500007FE069E
S306500007FF00A3
S30650000800831E
S30650000801267A
S306500008028718
S30650000803009E
S30650000804B3EA
S306500008059705
S30650000806C7D4
S30650000807009A
S30650000808B3E6
S30650000809E7B1
S3065000080AD7C0
S3065000080B0096
S3065000080C6F26
S3065000080D0094
S3065000080E4053
S3065000080F0191
S30650000810B3DE
S3065000081197F9
S30650000812C7C8
S30650000813008E
S30650000814830A
S306500008152666
S306500008168704
S30650000817008A
S3065000081893F6
S30650000819C7C1
S3065000081AF790
S3065000081BFF87
S3065000081CB3D2
S3065000081DF78D
S3065000081ED7AC
S3065000081F0082
S30650000820235E
S30650000821245C
S30650000822F788
S30650000823007E
S30650000824136A
S306500008250577
S30650000826007B
S30650000827007A
S306500008286712
S3065000082980F8
S3065000082A0077
S3065000082B0076
S3065000082C1362
S3065000082D056F
S3065000082ED0A3
S3065000082FFD75
S30650000830670A
S3065000083180F0
S30650000832006F
S30650000833006E
S3065000083483EA
S306500008352745
S306500008360566
S30650000837006A
S3065000083883E6
S30650000839A7C1
S3065000083A87E0
S3065000083B0066
S3065000083C83E2
S3065000083DA7BD
S3065000083E075C
S3065000083F0062
S3065000084063FE
S306500008419AC6
S30650000842055A
S30650000843025C
S30650000844035A
S30650000845A7B5
S306500008460754
S30650000847005A
S306500008483326
S306500008495701
S3065000084AC790
S3065000084B0056
S3065000084C3322
S3065000084D371D
S3065000084E173C
S3065000084FFC56
S3065000085063EE
S30650000851064A
S306500008520748
S30650000853004E
S3065000085483CA
S30650000855A7A5
S3065000085687C4
S30650000857004A
S306500008586FDA
S306500008590048
S3065000085A80C7
S3065000085B0046
S3065000085C83C2
S3065000085DA79D
S3065000085E47FC
S3065000085F0042
S30650000860330E
S30650000861D66A
S30650000862C778
S30650000863003E
S30650000864330A
S306500008653606
S306500008661625
S30650000867FC3E
S306500008682316
S30650000869A098
S3065000086AC671
S3065000086B0036
S3065000086C1322
S3065000086D052F
S3065000086E0033
S3065000086F0032
S3065000087067CA
S3065000087180B0
S30650000872002F
S30650000873002E
S30650000874131A
S306500008750527
S30650000876D05B
S30650000877FD2D
S3065000087867C2
S3065000087980A8
S3065000087A0027
S3065000087B0026
S3065000087C0322
S3065000087D25FF
S3065000087E859E
S3065000087F0022
S30650000880839E
S3065000088127F9
S30650000882051A
S30650000883001E
S30650000884130A
S306500008850715
S30650000886001B
S30650000887001A
S3065000088863B6
S306500008890414
S3065000088A0611
S3065000088B0214
S3065000088C23F2
S3065000088DA074
S3065000088EF51E
S3065000088F0012
S30650000890838E
S3065000089127E9
S3065000089245CA
S30650000893000E
S3065000089423EA
S3065000089520EC
S30650000896B556
S30650000897000A
S3065000089863A6
S306500008999672
S3065000089A0700
S3065000089B0402
S3065000089C23E2
S3065000089D22E2
S3065000089EB54E
S3065000089F0002
S306500008A06F92
S306500008A10000
S306500008A240BF
S306500008A304FA
S306500008A4639A
S306500008A58A72
S306500008A6F506
S306500008A700FA
S306500008A813E6
S306500008A98771
S306500008AA07F0
S306500008AB00F6
S306500008AC8372
S306500008ADA74D
S306500008AE07EC
S306500008AF00F2
S306500008B0E30E
S306500008B19A56
S306500008B207E8
S306500008B3FEF0
S306500008B46F7E
S306500008B500EC
S306500008B600EB
S306500008B703E7
S306500008B88366
S306500008B926C2
S306500008BA45A2
S306500008BB00E6
S306500008BC8362
S306500008BDA73D
S306500008BE05DE
S306500008BF00E2
S306500008C0637E
S306500008C11AC6
S306500008C207D8
S306500008C300DE
S306500008C423BA
S306500008C520BC
S306500008C6F5E6
S306500008C700DA
S306500008C86376
S306500008C99C3C
S306500008CAD502
S306500008CB00D6
S306500008CC23B2
S306500008CD22B2
S306500008CEF5DE
S306500008CF00D2
S306500008D06F62
S306500008D100D0
S306500008D200CF
S306500008D301CD
S306500008D423AA
S306500008D520AC
S306500008D6F7D4
S306500008D700CA
S306500008D86366
S306500008D99434
S306500008DAD5F2
S306500008DB00C6
S306500008DC23A2
S306500008DD22A2
S306500008DEE5DE
S306500008DF00C2
S306500008E0239E
S306500008E1A020
S306500008E205BA
S306500008E300BE
S306500008E413AA
S306500008E505B7
S306500008E600BB
S306500008E700BA
S306500008E86752
S306500008E98038
S306500008EA00B7
S306500008EB00B6
S306500008EC8332
S306500008ED278D
S306500008EE05AE
S306500008EF00B2
S306500008F0832E
S306500008F1A709
S306500008F28728
S306500008F300AE
S306500008F4832A
S306500008F5A606
S306500008F607A4
S306500008F700AA
S306500008F86346
S306500008F99018
S306500008FA05A2
S306500008FB02A4
S306500008FC1392
S306500008FD079D
S306500008FE1093
S306500008FF00A2
S30650000900831D
S30650000901A7F8
S30650000902C6D8
S30650000903009D
S306500009043369
S306500009051685
S30650000906C7D3
S306500009070099
S306500009083365
S306500009096631
S3065000090AF6A0
S3065000090B0095
S3065000090C2371
S3065000090DA6ED
S3065000090EC6CC
S3065000090F0091
S30650000910137D
S30650000911058A
S30650000912008E
S30650000913008D
S306500009146725
S30650000915800B
S30650000916008A
S306500009170089
S306500009181375
S306500009190582
S3065000091AD0B6
S3065000091BFD88
S3065000091C671D
S3065000091D8003
S3065000091E0082
S3065000091F0081
S3065000092083FD
S306500009212758
S306500009220579
S30650000923007D
S3065000092483F9
S30650000925A7D4
S3065000092687F3
S306500009270079
S3065000092883F5
S30650000929A6D1
S3065000092A076F
S3065000092B0075
S3065000092C6311
S3065000092D92E1
S3065000092E056D
S3065000092F026F
S3065000093093DD
S306500009310768
S30650000932105E
S30650000933006D
S306500009343339
S3065000093596D5
S30650000936C7A3
S306500009370069
S306500009380365
S30650000939A7C0
S3065000093AC6A0
S3065000093B0065
S3065000093C1351
S3065000093D461D
S3065000093EF66C
S3065000093FFF62
S30650000940332D
S3065000094176E9
S30650000942E678
S30650000943005D
S306500009442339
S30650000945A6B5
S30650000946C694
S306500009470059
S306500009481345
S306500009490552
S3065000094A0056
S3065000094B0055
S3065000094C67ED
S3065000094D80D3
S3065000094E0052
S3065000094F0051
S30650000950133D
S30650000951054A
S30650000952D07E
S30650000953FD50
S3065000095467E5
S3065000095580CB
S30650000956004A
S306500009570049
S3065000095883C5
S306500009592720
S3065000095A0541
S3065000095B0045
S3065000095C1331
S3065000095D0142
S3065000095E0141
S3065000095FFF42
S3065000096083BD
S30650000961A798
S3065000096287B7
S30650000963003D
S306500009642319
S306500009652615
S306500009661129
S306500009670039
S3065000096883B5
S30650000969A790
S3065000096A47EF
S3065000096B0035
S3065000096CE74D
S3065000096D80B3
S3065000096E072B
S3065000096F0031
S3065000097083AD
S30650000971200F
S30650000972C16D
S30650000973002D
S306500009741319
S306500009750526
S30650000976002A
S306500009770029
S306500009781315
S306500009790126
S3065000097A0125
S3065000097B0124
S3065000097C67BD
S3065000097D80A3
S3065000097E0022
S3065000097F0021
S30650000980130D
S30650000981051A
S30650000982908E
S30650000983011C
S306500009846FAD
S30650000985001B
S30650000986C05A
S3065000098756C3
S306500009881305
S306500009890512
S3065000098A0016
S3065000098B0015
S3065000098C67AD
S3065000098D8093
S3065000098E0012
S3065000098F0011
S30650000990838D
S30650000991A768
S306500009920509
S30650000993000D
S306500009949379
S306500009958784
S3065000099617F3
S306500009970009
S3065000099823E5
S30650000999A067
S3065000099AF511
S3065000099B0005
S3065000099CB74D
S3065000099D07FC
S3065000099E0002
S3065000099F51B0
S306500009A003FD
S306500009A1A35C
S306500009A2C737
S306500009A35BA2
S306500009A46795
S306500009A500FB
S306500009A603F7
S306500009A700F9
S306500009A813E5
S306500009A901F6
S306500009AA01F5
S306500009ABFCF9
S306500009AC9361
S306500009AD07EC
S306500009AE10E2
S306500009AF00F1
S306500009B023CD
S306500009B128C7
S306500009B221CD
S306500009B303EA
S306500009B423C9
S306500009B522C9
S306500009B65199
S306500009B703E6
S306500009B823C5
S306500009B920C7
S306500009BA6185
S306500009BB03E2
S306500009BC23C1
S306500009BD2EB5
S306500009BE7171
S306500009BF01E0
S306500009C023BD
S306500009C12CB3
S306500009C2815D
S306500009C301DC
S306500009C423B9
S306500009C52EAD
S306500009C611C9
S306500009C702D7
S306500009C823B5
S306500009C92CAB
S306500009CA8155
S306500009CB02D3
S306500009CC23B1
S306500009CD2AA9
S306500009CE9141
S306500009CF02CF
S306500009D023AD
S306500009D126A9
S306500009D2319D
S306500009D303CA
S306500009D423A9
S306500009D524A7
S306500009D64189
S306500009D703C6
S306500009D823A5
S306500009D92A9D
S306500009DA9135
S306500009DB01C4
S306500009DC23A1
S306500009DD289B
S306500009DEA121
S306500009DF01C0
S306500009E0239D
S306500009E12699
S306500009E2B10D
S306500009E301BC
S306500009E49329
S306500009E50AB1
S306500009E605B5
S306500009E700B9
S306500009E813A5
S306500009E98B2C
S306500009EA05B1
S306500009EB00B5
S306500009EC9321
S306500009ED8B28
S306500009EE06AC
S306500009EF00B1
S306500009F0337D
S306500009F16946
S306500009F2F7B7
S306500009F304A9
S306500009F41399
S306500009F50C9F
S306500009F600AA
S306500009F703A6
S306500009F86345
S306500009F98423
S306500009FAF6B0
S306500009FB00A5
S306500009FC1391
S306500009FD0C97
S306500009FE00A2
S306500009FF029F
S30650000A00138C
S30650000A010A94
S30650000A02A0FD
S30650000A03009C
S30650000A04B7E4
S30650000A05D4C6
S30650000A069AFF
S30650000A073B5D
S30650000A081384
S30650000A090492
S30650000A0A068F
S30650000A0B0094
S30650000A0C9300
S30650000A0D0989
S30650000A0E1081
S30650000A0F0090
S30650000A1093FC
S30650000A110D81
S30650000A12008D
S30650000A13008C
S30650000A1493F8
S30650000A158406
S30650000A16F495
S30650000A179FE9
S30650000A181374
S30650000A190D79
S30650000A1A2065
S30650000A1B0084
S30650000A1C93F0
S30650000A1D0C76
S30650000A1E0A77
S30650000A1F0080
S30650000A20631C
S30650000A2194EA
S30650000A220D70
S30650000A23007C
S30650000A246318
S30650000A25F288
S30650000A2684F5
S30650000A270276
S30650000A281364
S30650000A2985F1
S30650000A2A1461
S30650000A2B0074
S30650000A2C3340
S30650000A2D551D
S30650000A2EA4CD
S30650000A2F026E
S30650000A3093DC
S30650000A310569
S30650000A320B62
S30650000A33006C
S30650000A3493D8
S30650000A3589E1
S30650000A361950
S30650000A370068
S30650000A3893D4
S30650000A390D59
S30650000A3A1055
S30650000A3B0064
S30650000A3C1350
S30650000A3D055D
S30650000A3E055C
S30650000A3F035D
S30650000A40E778
S30650000A4180DE
S30650000A420A53
S30650000A43005C
S30650000A446FEC
S30650000A45005A
S30650000A46C099
S30650000A470157
S30650000A4863F4
S30650000A494C0A
S30650000A4A490C
S30650000A4B0153
S30650000A4C63F0
S30650000A4D6AE8
S30650000A4E7DD4
S30650000A4F014F
S30650000A5093BC
S30650000A510549
S30650000A520B42
S30650000A53004C
S30650000A541338
S30650000A550545
S30650000A560C3D
S30650000A570048
S30650000A58E760
S30650000A5980C6
S30650000A5A0A3B
S30650000A5B0044
S30650000A5C93B0
S30650000A5D89B9
S30650000A5E1928
S30650000A5F0040
S30650000A6093AC
S30650000A6187B7
S30650000A621429
S30650000A63003C
S30650000A643308
S30650000A6557E3
S30650000A66F445
S30650000A670236
S30650000A681324
S30650000A690A2C
S30650000A6AFA3B
S30650000A6BFF35
S30650000A6C3300
S30650000A6D141E
S30650000A6EF73A
S30650000A6F42EE
S30650000A70B37C
S30650000A71D45A
S30650000A729499
S30650000A730329
S30650000A74E348
S30650000A7536F4
S30650000A761A0F
S30650000A77FA2E
S30650000A781314
S30650000A790521
S30650000A7A0421
S30650000A7B0321
S30650000A7C9390
S30650000A7D051D
S30650000A7E0B16
S30650000A7F0020
S30650000A80E738
S30650000A81809E
S30650000A820A13
S30650000A83001C
S30650000A8433E8
S30650000A850416
S30650000A8639E0
S30650000A8741D7
S30650000A8863B4
S30650000A89BE58
S30650000A8A3BDA
S30650000A8B0014
S30650000A8C63B0
S30650000A8D5CB6
S30650000A8E8091
S30650000A8F0010
S30650000A90937C
S30650000A910509
S30650000A920B02
S30650000A93000C
S30650000A9413F8
S30650000A950505
S30650000A960009
S30650000A970206
S30650000A98E720
S30650000A998086
S30650000A9A0AFB
S30650000A9B0004
S30650000A9C13F0
S30650000A9D04FE
S30650000A9EF40D
S30650000A9FFF01
S30650000AA06F90
S30650000AA1F00E
S30650000AA2DF1E
S30650000AA3FEFE
S30650000AA48378
S30650000AA520DA
S30650000AA6C138
S30650000AA703F5
S30650000AA803F4
S30650000AA924D2
S30650000AAA8174
S30650000AAB03F1
S30650000AAC8370
S30650000AAD24CE
S30650000AAE41B0
S30650000AAF03ED
S30650000AB003EC
S30650000AB129C5
S30650000AB201EC
S30650000AB303E9
S30650000AB48368
S30650000AB529C1
S30650000AB6C128
S30650000AB702E6
S30650000AB803E4
S30650000AB92ABC
S30650000ABA8164
S30650000ABB02E2
S30650000ABC8360
S30650000ABD2AB8
S30650000ABE41A0
S30650000ABF02DE
S30650000AC003DC
S30650000AC12BB3
S30650000AC201DC
S30650000AC302DA
S30650000AC48358
S30650000AC52BAF
S30650000AC6C118
S30650000AC701D7
S30650000AC803D4
S30650000AC92CAA
S30650000ACA8154
S30650000ACB01D3
S30650000ACC8350
S30650000ACD2CA6
S30650000ACE4190
S30650000ACF01CF
S30650000AD003CC
S30650000AD12DA1
S30650000AD201CC
S30650000AD301CB
S30650000AD48348
S30650000AD52D9D
S30650000AD6C108
S30650000AD700C8
S30650000AD813B4
S30650000AD901C5
S30650000ADA01C4
S30650000ADB04C0
S30650000ADC675C
S30650000ADD8042
S30650000ADE00C1
S30650000ADF00C0
S30650000AE0B708
S30650000AE107B7
S30650000AE200BD
S30650000AE3516B
S30650000AE42398
S30650000AE5AE0C
S30650000AE6A712
S30650000AE75A5E
S30650000AE86750
S30650000AE98036
S30650000AEA00B5
S30650000AEB00B4
S30650000AEC13A0
S30650000AED01B1
S30650000AEE01B0
S30650000AEFFBB5
S30650000AF0238C
S30650000AF1248A
S30650000AF2812C
S30650000AF304A8
S30650000AF42388
S30650000AF52288
S30650000AF69118
S30650000AF704A4
S30650000AF82384
S30650000AF92086
S30650000AFA2184
S30650000AFB059F
S30650000AFC2380
S30650000AFD2E74
S30650000AFE3170
S30650000AFF039D
S30650000B00237B
S30650000B012C71
S30650000B02415B
S30650000B030398
S30650000B042377
S30650000B052A6F
S30650000B065147
S30650000B070394
S30650000B082373
S30650000B09286D
S30650000B0A6133
S30650000B0B0390
S30650000B0C236F
S30650000B0D246D
S30650000B0E810F
S30650000B0F038C
S30650000B10236B
S30650000B11226B
S30650000B1291FB
S30650000B130388
S30650000B142367
S30650000B152663
S30650000B161177
S30650000B170483
S30650000B182363
S30650000B19265F
S30650000B1A7113
S30650000B1B0380
S30650000B1C235F
S30650000B1D2061
S30650000B1EA1DF
S30650000B1F037C
S30650000B20235B
S30650000B212E4F
S30650000B22B1CB
S30650000B23017A
S30650000B241367
S30650000B250475
S30650000B260573
S30650000B270077
S30650000B2893E3
S30650000B2984F1
S30650000B2A056F
S30650000B2B0073
S30650000B2C135F
S30650000B2D8CE5
S30650000B2E066A
S30650000B2F006F
S30650000B3093DB
S30650000B310A63
S30650000B320666
S30650000B33006B
S30650000B341357
S30650000B350A5F
S30650000B360068
S30650000B370067
S30650000B3893D3
S30650000B39095C
S30650000B3AF074
S30650000B3BFF64
S30650000B3C134F
S30650000B3D0958
S30650000B3E0060
S30650000B3F005F
S30650000B4093CB
S30650000B410C51
S30650000B42005C
S30650000B43005B
S30650000B441347
S30650000B450B4E
S30650000B461048
S30650000B470057
S30650000B480B4B
S30650000B49C590
S30650000B4A1A3A
S30650000B4B0053
S30650000B4C63EF
S30650000B4D0A47
S30650000B4E054B
S30650000B4F2E21
S30650000B5063EB
S30650000B519CB1
S30650000B520C40
S30650000B53004B
S30650000B5493B7
S30650000B550742
S30650000B5650F8
S30650000B570245
S30650000B5863E3
S30650000B590441
S30650000B5AF54F
S30650000B5B2C17
S30650000B5C93AF
S30650000B5D85BC
S30650000B5E043C
S30650000B5F003F
S30650000B60E757
S30650000B61003D
S30650000B620438
S30650000B63003B
S30650000B646FCB
S30650000B65F049
S30650000B665FD9
S30650000B67FE39
S30650000B681323
S30650000B69072E
S30650000B6A40F4
S30650000B6B062D
S30650000B6C63CF
S30650000B6D0A27
S30650000B6EE54B
S30650000B6F0E21
S30650000B7063CB
S30650000B716EBF
S30650000B72A785
S30650000B730427
S30650000B749397
S30650000B750722
S30650000B769098
S30650000B770324
S30650000B7863C3
S30650000B79E63F
S30650000B7AA77D
S30650000B7B0221
S30650000B7C938F
S30650000B7D071A
S30650000B7E1010
S30650000B7F031C
S30650000B8063BB
S30650000B817CA1
S30650000B82F527
S30650000B830A11
S30650000B849387
S30650000B850712
S30650000B86D048
S30650000B870215
S30650000B8863B3
S30650000B890E07
S30650000B8AF51F
S30650000B8B080B
S30650000B8C937F
S30650000B8D070A
S30650000B8E0010
S30650000B8F030C
S30650000B9063AB
S30650000B910EFF
S30650000B92F517
S30650000B930803
S30650000B949377
S30650000B950702
S30650000B9650B8
S30650000B970205
S30650000B9863A3
S30650000B9914F1
S30650000B9AF50F
S30650000B9B26DD
S30650000B9C936F
S30650000B9D857C
S30650000B9E04FC
S30650000B9F00FF
S30650000BA06F8F
S30650000BA100FD
S30650000BA240BC
S30650000BA327D4
S30650000BA49367
S30650000BA507F2
S30650000BA68078
S30650000BA705F2
S30650000BA86393
S30650000BA90CE9
S30650000BAAF5FF
S30650000BAB14DF
S30650000BAC935F
S30650000BAD07EA
S30650000BAE30C0
S30650000BAF06E9
S30650000BB0638B
S30650000BB118D5
S30650000BB2F5F7
S30650000BB324C7
S30650000BB403E7
S30650000BB525C4
S30650000BB60CDC
S30650000BB700E7
S30650000BB89353
S30650000BB90BDA
S30650000BBA4C98
S30650000BBB00E3
S30650000BBC934F
S30650000BBD855C
S30650000BBE04DC
S30650000BBF00DF
S30650000BC0E7F7
S30650000BC100DD
S30650000BC204D8
S30650000BC300DB
S30650000BC413C7
S30650000BC58C4D
S30650000BC60BCD
S30650000BC700D7
S30650000BC86F67
S30650000BC900D5
S30650000BCA00D4
S30650000BCB25AE
S30650000BCC933F
S30650000BCD07CA
S30650000BCE00D0
S30650000BCF07C8
S30650000BD0636B
S30650000BD108C5
S30650000BD2F5D7
S30650000BD310BB
S30650000BD46367
S30650000BD5EEDB
S30650000BD6A721
S30650000BD700C7
S30650000BD89333
S30650000BD907BE
S30650000BDA9034
S30650000BDB06BD
S30650000BDC635F
S30650000BDD02BF
S30650000BDEF5CB
S30650000BDF08B7
S30650000BE0932B
S30650000BE107B6
S30650000BE2C0FC
S30650000BE306B5
S30650000BE46357
S30650000BE50AAF
S30650000BE6F5C3
S30650000BE706B1
S30650000BE89323
S30650000BE907AE
S30650000BEA8034
S30650000BEB06AD
S30650000BEC6F43
S30650000BED00B1
S30650000BEE00B0
S30650000BEF03AC
S30650000BF0139B
S30650000BF107A6
S30650000BF2505C
S30650000BF307A4
S30650000BF46347
S30650000BF50A9F
S30650000BF6E5C3
S30650000BF70A9D
S30650000BF86343
S30650000BF96C39
S30650000BFAA7FD
S30650000BFB00A3
S30650000BFC930F
S30650000BFD079A
S30650000BFE3070
S30650000BFF0798
S30650000C00633A
S30650000C01108C
S30650000C02F5A6
S30650000C03207A
S30650000C049306
S30650000C050C8C
S30650000C064C4B
S30650000C070096
S30650000C088312
S30650000C092B69
S30650000C0A0C87
S30650000C0B0092
S30650000C0C6F22
S30650000C0D0090
S30650000C0E800F
S30650000C0F1D71
S30650000C1093FA
S30650000C110785
S30650000C12800B
S30650000C130783
S30650000C146326
S30650000C150682
S30650000C16F592
S30650000C170E78
S30650000C1893F2
S30650000C19077D
S30650000C1AA0E3
S30650000C1B077B
S30650000C1C631E
S30650000C1D0878
S30650000C1EF58A
S30650000C1F205E
S30650000C206F0E
S30650000C21007C
S30650000C22007B
S30650000C231E5C
S30650000C241366
S30650000C25096F
S30650000C263047
S30650000C270076
S30650000C286F06
S30650000C290074
S30650000C2A4033
S30650000C2B2052
S30650000C2C630E
S30650000C2DD898
S30650000C2E0966
S30650000C2F006E
S30650000C30630A
S30650000C31026A
S30650000C320962
S30650000C33204A
S30650000C346FFA
S30650000C350068
S30650000C360067
S30650000C370165
S30650000C386302
S30650000C39C69E
S30650000C3A095A
S30650000C3B0062
S30650000C3C93CE
S30650000C3D0759
S30650000C3EA0BF
S30650000C3F005E
S30650000C40332A
S30650000C4185D7
S30650000C42F962
S30650000C434218
S30650000C4493C6
S30650000C45094F
S30650000C460552
S30650000C47FD59
S30650000C4893C2
S30650000C490C48
S30650000C4A1043
S30650000C4B0052
S30650000C4CE36E
S30650000C4D1E32
S30650000C4E0946
S30650000C4FEE60
S30650000C50133A
S30650000C510943
S30650000C52202B
S30650000C53004A
S30650000C546FDA
S30650000C55F058
S30650000C565FE8
S30650000C57EF57
S30650000C581332
S30650000C590A3A
S30650000C5A1A29
S30650000C5B0042
S30650000C5C6FD2
S30650000C5D0040
S30650000C5E003F
S30650000C5F1D21
S30650000C6063DA
S30650000C6148F4
S30650000C624BF0
S30650000C630139
S30650000C6483B6
S30650000C652B0D
S30650000C660C2B
S30650000C670036
S30650000C681322
S30650000C690C28
S30650000C6A4CE7
S30650000C6B0032
S30650000C6C6FC2
S30650000C6D0030
S30650000C6E40EF
S30650000C6F012D
S30650000C70939A
S30650000C710725
S30650000C727CAF
S30650000C73002A
S30650000C74B376
S30650000C75B771
S30650000C760720
S30650000C77C462
S30650000C7883A2
S30650000C79AB79
S30650000C7A071C
S30650000C7B0022
S30650000C7C130E
S30650000C7D8C94
S30650000C7E8798
S30650000C7F001E
S30650000C8063BA
S30650000C81DC40
S30650000C820B10
S30650000C83001A
S30650000C849386
S30650000C858593
S30650000C860413
S30650000C870016
S30650000C881302
S30650000C89050F
S30650000C8AD043
S30650000C8B0210
S30650000C8CE72A
S30650000C8D0010
S30650000C8E040B
S30650000C8F000E
S30650000C90B35A
S30650000C910B01
S30650000C92709B
S30650000C9341C9
S30650000C949376
S30650000C95897F
S30650000C96F90E
S30650000C97FF07
S30650000C9813F2
S30650000C99877D
S30650000C9A09FA
S30650000C9B0002
S30650000C9C936E
S30650000C9D06FA
S30650000C9E09F6
S30650000C9F00FE
S30650000CA013EA
S30650000CA18676
S30650000CA20BF0
S30650000CA300FA
S30650000CA46F8A
S30650000CA500F8
S30650000CA6C037
S30650000CA702F4
S30650000CA86392
S30650000CA948AC
S30650000CAA4BA8
S30650000CAB01F1
S30650000CAC03EE
S30650000CAD26CA
S30650000CAE0CE3
S30650000CAF00EE
S30650000CB013DA
S30650000CB10CE0
S30650000CB24C9F
S30650000CB300EA
S30650000CB46F7A
S30650000CB500E8
S30650000CB640A7
S30650000CB701E5
S30650000CB89352
S30650000CB907DD
S30650000CBA7C67
S30650000CBB00E2
S30650000CBCB32E
S30650000CBDB729
S30650000CBE07D8
S30650000CBFC41A
S30650000CC003DA
S30650000CC1A636
S30650000CC207D4
S30650000CC300DA
S30650000CC413C6
S30650000CC58C4C
S30650000CC68750
S30650000CC700D6
S30650000CC813C2
S30650000CC9874D
S30650000CCA09CA
S30650000CCB00D2
S30650000CCC933E
S30650000CCD06CA
S30650000CCE09C6
S30650000CCF00CE
S30650000CD0933A
S30650000CD18547
S30650000CD204C7
S30650000CD300CA
S30650000CD413B6
S30650000CD505C3
S30650000CD604C3
S30650000CD700C6
S30650000CD8EFD6
S30650000CD9F0D4
S30650000CDA1FA4
S30650000CDBCDF5
S30650000CDC6F52
S30650000CDD00C0
S30650000CDEC0FF
S30650000CDF13AB
S30650000CE0932A
S30650000CE18537
S30650000CE204B7
S30650000CE300BA
S30650000CE413A6
S30650000CE505B3
S30650000CE600B7
S30650000CE703B3
S30650000CE8E7CE
S30650000CE900B4
S30650000CEA04AF
S30650000CEB00B2
S30650000CEC931E
S30650000CED852B
S30650000CEE04AB
S30650000CEF00AE
S30650000CF0139A
S30650000CF105A7
S30650000CF2802B
S30650000CF307A3
S30650000CF4E7C2
S30650000CF500A8
S30650000CF604A3
S30650000CF700A6
S30650000CF89312
S30650000CF9099B
S30650000CFA8023
S30650000CFB00A2
S30650000CFC138E
S30650000CFD0997
S30650000CFE108F
S30650000CFF009E
S30650000D006339
S30650000D014A51
S30650000D024B4F
S30650000D030198
S30650000D040395
S30650000D052770
S30650000D060C8A
S30650000D070095
S30650000D081381
S30650000D090C87
S30650000D0A4C46
S30650000D0B0091
S30650000D0C236D
S30650000D0D246B
S30650000D0EE1AD
S30650000D0F008D
S30650000D106F1D
S30650000D11008B
S30650000D12800A
S30650000D130188
S30650000D1493F5
S30650000D150780
S30650000D167C0A
S30650000D170085
S30650000D18B3D1
S30650000D19B7CC
S30650000D1A077B
S30650000D1BC4BD
S30650000D1C136D
S30650000D1D8CF3
S30650000D1E87F7
S30650000D1F007D
S30650000D2083F9
S30650000D21A7D4
S30650000D220773
S30650000D230079
S30650000D242355
S30650000D252453
S30650000D26F185
S30650000D270075
S30650000D281361
S30650000D290D66
S30650000D2A80F2
S30650000D2B0071
S30650000D2C93DD
S30650000D2D0B64
S30650000D2E006E
S30650000D2F006D
S30650000D3093D9
S30650000D310D5E
S30650000D32006A
S30650000D330069
S30650000D3493D5
S30650000D350C5B
S30650000D360D59
S30650000D370065
S30650000D3893D1
S30650000D398CD7
S30650000D3AFC66
S30650000D3BFF62
S30650000D3C134D
S30650000D3D95CA
S30650000D3E2C32
S30650000D3F005D
S30650000D4083D9
S30650000D412734
S30650000D4281D9
S30650000D430059
S30650000D443325
S30650000D45D582
S30650000D46A7AF
S30650000D470055
S30650000D483321
S30650000D49351E
S30650000D4A450D
S30650000D4BF65B
S30650000D4C63ED
S30650000D4D1837
S30650000D4E0549
S30650000D4F004D
S30650000D5063E9
S30650000D519CAF
S30650000D520D3D
S30650000D530049
S30650000D5463E5
S30650000D559AAD
S30650000D560C3A
S30650000D570243
S30650000D586FD5
S30650000D590043
S30650000D5A0042
S30650000D5B0140
S30650000D5C132D
S30650000D5D0738
S30650000D5E90AE
S30650000D5F003D
S30650000D6093A9
S30650000D610734
S30650000D6270CA
S30650000D630534
S30650000D6463D5
S30650000D6564D3
S30650000D66A78F
S30650000D670035
S30650000D6893A1
S30650000D69072C
S30650000D6A0032
S30650000D6B032E
S30650000D6C939D
S30650000D6D85AA
S30650000D6E042A
S30650000D6F002D
S30650000D7033F9
S30650000D710526
S30650000D72F535
S30650000D730029
S30650000D74E741
S30650000D750027
S30650000D760422
S30650000D770025
S30650000D789391
S30650000D798B98
S30650000D7A1B07
S30650000D7B0021
S30650000D7C23FD
S30650000D7D26F9
S30650000D7EA17D
S30650000D7F011C
S30650000D809389
S30650000D810D0E
S30650000D82100A
S30650000D830019
S30650000D846FA9
S30650000D850017
S30650000D860016
S30650000D870312
S30650000D889381
S30650000D89070C
S30650000D8AFD15
S30650000D8BFF12
S30650000D8C23ED
S30650000D8D26E9
S30650000D8EF11D
S30650000D8F000D
S30650000D9063A9
S30650000D91C249
S30650000D92A961
S30650000D930306
S30650000D9463A5
S30650000D9538CF
S30650000D9619ED
S30650000D970005
S30650000D989371
S30650000D99857E
S30650000D9A04FE
S30650000D9B0001
S30650000D9C13ED
S30650000D9D05FA
S30650000D9E00FE
S30650000D9F03FA
S30650000DA06F8D
S30650000DA100FB
S30650000DA200FA
S30650000DA301F8
S30650000DA46395
S30650000DA538BF
S30650000DA629CD
S30650000DA700F5
S30650000DA89361
S30650000DA9856E
S30650000DAA04EE
S30650000DAB00F1
S30650000DAC13DD
S30650000DAD05EA
S30650000DAE00EE
S30650000DAF02EB
S30650000DB0E705
S30650000DB100EB
S30650000DB204E6
S30650000DB300E9
S30650000DB46385
S30650000DB58661
S30650000DB60CDA
S30650000DB700E5
S30650000DB803E1
S30650000DB92DB6
S30650000DBAC121
S30650000DBB00E1
S30650000DBC6F71
S30650000DBDF0EF
S30650000DBEDFFF
S30650000DBFF7E6
S30650000DC0E3F9
S30650000DC134A7
S30650000DC239A1
S30650000DC3D801
S30650000DC49345
S30650000DC59740
S30650000DC619BD
S30650000DC700D5
S30650000DC8B321
S30650000DC98B48
S30650000DCA775B
S30650000DCB4190
S30650000DCC636D
S30650000DCD5679
S30650000DCE705E
S30650000DCF05C8
S30650000DD09339
S30650000DD18546
S30650000DD204C6
S30650000DD300C9
S30650000DD413B5
S30650000DD505C2
S30650000DD600C6
S30650000DD702C3
S30650000DD8E7DD
S30650000DD900C3
S30650000DDA04BE
S30650000DDB00C1
S30650000DDC932D
S30650000DDD8B34
S30650000DDEFBC3
S30650000DDFFFBE
S30650000DE06F4D
S30650000DE1F0CB
S30650000DE2DFDB
S30650000DE3FEBB
S30650000DE40BAD
S30650000DE5C5F2
S30650000DE61B9B
S30650000DE700B5
S30650000DE86351
S30650000DE908AB
S30650000DEA05AD
S30650000DEB00B1
S30650000DEC931D
S30650000DED852A
S30650000DEE04AA
S30650000DEF00AD
S30650000DF0E7C5
S30650000DF100AB
S30650000DF204A6
S30650000DF300A9
S30650000DF46F39
S30650000DF5F0B7
S30650000DF61F87
S30650000DF7FFA6
S30650000DF81391
S30650000DF98C17
S30650000DFA0C96
S30650000DFB00A1
S30650000DFC6F31
S30650000DFD009F
S30650000DFEC0DE
S30650000DFF019C
S30650000E009308
S30650000E018515
S30650000E020495
S30650000E030098
S30650000E041384
S30650000E050591
S30650000E065045
S30650000E070292
S30650000E08E7AC
S30650000E090092
S30650000E0A048D
S30650000E0B0090
S30650000E0C038C
S30650000E0DC5C9
S30650000E0EFA93
S30650000E0FFF8D
S30650000E1093F8
S30650000E118505
S30650000E120485
S30650000E130088
S30650000E14E7A0
S30650000E150086
S30650000E160481
S30650000E170084
S30650000E1893F0
S30650000E190C76
S30650000E1A0081
S30650000E1B0080
S30650000E1C6F10
S30650000E1DF08E
S30650000E1EDF9E
S30650000E1FD2AA
S30650000E201368
S30650000E210A70
S30650000E220079
S30650000E230078
S30650000E2493E4
S30650000E25096D
S30650000E26F085
S30650000E27FF75
S30650000E281360
S30650000E290969
S30650000E2A0071
S30650000E2B0070
S30650000E2C93DC
S30650000E2D0C62
S30650000E2E105D
S30650000E2F006C
S30650000E306FFC
S30650000E31F07A
S30650000E329FCA
S30650000E33D197
S30650000E341354
S30650000E35095D
S30650000E361055
S30650000E370064
S30650000E3893D0
S30650000E390C56
S30650000E3A0958
S30650000E3B0060
S30650000E3C6FF0
S30650000E3DF06E
S30650000E3EDF7E
S30650000E3FD08C
S30650000E4083D8
S30650000E41203A
S30650000E42C198
S30650000E430454
S30650000E440354
S30650000E452432
S30650000E4681D4
S30650000E470450
S30650000E4883D0
S30650000E49242E
S30650000E4A4110
S30650000E4B044C
S30650000E4C034C
S30650000E4D2925
S30650000E4E014C
S30650000E4F0448
S30650000E5083C8
S30650000E512921
S30650000E52C188
S30650000E530345
S30650000E540344
S30650000E552A1C
S30650000E5681C4
S30650000E570341
S30650000E5883C0
S30650000E592A18
S30650000E5A4100
S30650000E5B033D
S30650000E5C033C
S30650000E5D2B13
S30650000E5E013C
S30650000E5F0339
S30650000E6083B8
S30650000E612B0F
S30650000E62C178
S30650000E630236
S30650000E640334
S30650000E652C0A
S30650000E6681B4
S30650000E670232
S30650000E6883B0
S30650000E692C06
S30650000E6A41F0
S30650000E6B022E
S30650000E6C032C
S30650000E6D2D01
S30650000E6E012C
S30650000E6F022A
S30650000E7083A8
S30650000E712DFD
S30650000E72C168
S30650000E730127
S30650000E741314
S30650000E750125
S30650000E760124
S30650000E77051F
S30650000E7867BC
S30650000E7980A2
S30650000E7A0021
S30650000E7B0020
S30650000E7C130C
S30650000E7D011D
S30650000E7E011C
S30650000E7FFE1E
S30650000E801308
S30650000E810614
S30650000E820514
S30650000E830018
S30650000E8437E0
S30650000E851501
S30650000E860015
S30650000E8750C4
S30650000E889380
S30650000E89868C
S30650000E8A050C
S30650000E8B0010
S30650000E8C13FC
S30650000E8D0509
S30650000E8E0508
S30650000E8F9973
S30650000E909378
S30650000E910505
S30650000E92C148
S30650000E930008
S30650000E9423E4
S30650000E952ED8
S30650000E9611F4
S30650000E970004
S30650000E9823E0
S30650000E9926DC
S30650000E9A0100
S30650000E9B0000
S30650000E9CEF10
S30650000E9DF00E
S30650000E9E1FDE
S30650000E9FC537
S30650000EA08378
S30650000EA120DA
S30650000EA2C138
S30650000EA301F7
S30650000EA403F4
S30650000EA525D1
S30650000EA6C134
S30650000EA700F4
S30650000EA813E0
S30650000EA901F1
S30650000EAA01F0
S30650000EAB02EE
S30650000EAC6788
S30650000EAD806E
S30650000EAE00ED
S30650000EAF00EC
S30650000EB013D8
S30650000EB101E9
