S00D00007A65706879722E73313945
S306500000001396
S3065000000100A8
S3065000000200A7
S3065000000300A6
S306500000041392
S3065000000500A4
S3065000000600A3
S3065000000700A2
S30650000008138E
S3065000000900A0
S3065000000A009F
S3065000000B009E
S3065000000C138A
S3065000000D009C
S3065000000E009B
S3065000000F009A
S306500000101386
S306500000110098
S306500000120097
S306500000130096
S306500000141382
S306500000150094
S306500000160093
S306500000170092
S30650000018137E
S306500000190090
S3065000001A008F
S3065000001B008E
S3065000001C137A
S3065000001D008C
S3065000001E008B
S3065000001F008A
S306500000201376
S306500000210088
S306500000220087
S306500000230086
S306500000241372
S306500000250084
S306500000260083
S306500000270082
S30650000028136E
S306500000290080
S3065000002A007F
S3065000002B007E
S3065000002C136A
S3065000002D007C
S3065000002E007B
S3065000002F007A
S306500000301366
S306500000310078
S306500000320077
S306500000330076
S306500000341362
S306500000350074
S306500000360073
S306500000370072
S30650000038135E
S306500000390070
S3065000003A006F
S3065000003B006E
S3065000003C6FFE
S3065000003D006C
S3065000003E80EB
S3065000003F0565
S306500000406FFA
S306500000410068
S306500000424027
S306500000430561
S306500000446FF6
S306500000450064
S306500000460063
S30650000047055D
S306500000486FF2
S306500000490060
S3065000004AC09F
S3065000004B045A
S3065000004C6FEE
S3065000004D005C
S3065000004E80DB
S3065000004F0456
S306500000506FEA
S306500000510058
S306500000524017
S306500000530452
S306500000546FE6
S306500000550054
S306500000560053
S30650000057044E
S306500000586FE2
S306500000590050
S3065000005AC08F
S3065000005B034B
S3065000005C6FDE
S3065000005D004C
S3065000005E80CB
S3065000005F0347
S306500000606FDA
S306500000610048
S306500000624007
S306500000630343
S306500000646FD6
S306500000650044
S306500000660043
S30650000067033F
S306500000686FD2
S306500000690040
S3065000006AC07F
S3065000006B023C
S3065000006C6FCE
S3065000006D003C
S3065000006E80BB
S3065000006F0238
S306500000706FCA
S306500000710038
S3065000007240F7
S306500000730234
S306500000746FC6
S306500000750034
S306500000760033
S306500000770230
S306500000786FC2
S306500000790030
S3065000007AC06F
S3065000007B012D
S3065000007C6FBE
S3065000007D002C
S3065000007E80AB
S3065000007F0129
S306500000806FBA
S306500000810028
S306500000820027
S306500000830125
S306500000846FB6
S306500000850024
S306500000860023
S306500000870121
S306500000886FB2
S306500000890020
S3065000008AC05F
S3065000008B001E
S3065000008C6FAE
S3065000008D001C
S3065000008E809B
S3065000008F001A
S30650000090EF2A
S306500000911008
S3065000009250C7
S306500000931204
S306500000941302
S306500000950113
S306500000960112
S30650000097F919
S3065000009823EE
S3065000009920F0
S3065000009A11FE
S3065000009B000E
S3065000009C23EA
S3065000009D22EA
S3065000009E31DA
S3065000009F000A
S306500000A023E6
S306500000A124E4
S306500000A241C6
S306500000A30006
S306500000A423E2
S306500000A526DE
S306500000A651B2
S306500000A70002
S306500000A823DE
S306500000A928D8
S306500000AA619E
S306500000AB00FE
S306500000AC23DA
S306500000AD2AD2
S306500000AE718A
S306500000AF00FA
S306500000B023D6
S306500000B12CCC
S306500000B2C136
S306500000B301F5
S306500000B423D2
S306500000B52EC6
S306500000B6D122
S306500000B701F1
S306500000B823CE
S306500000B920D0
S306500000BAE10E
S306500000BB03EB
S306500000BC23CA
S306500000BD22CA
S306500000BEF1FA
S306500000BF03E7
S306500000C023C6
S306500000C124C4
S306500000C2A146
S306500000C302E4
S306500000C423C2
S306500000C526BE
S306500000C6B132
S306500000C702E0
S306500000C823BE
S306500000C928B8
S306500000CAC11E
S306500000CB02DC
S306500000CC23BA
S306500000CD2AB2
S306500000CED10A
S306500000CF02D8
S306500000D023B6
S306500000D12CAC
S306500000D2E1F6
S306500000D302D4
S306500000D423B2
S306500000D52EA6
S306500000D6F1E2
S306500000D702D0
S306500000D823AE
S306500000D920B0
S306500000DA01CE
S306500000DB05C9
S306500000DC23AA
S306500000DD22AA
S306500000DE11BA
S306500000DF05C5
S306500000E0F3D6
S306500000E122A6
S306500000E210B7
S306500000E33492
S306500000E423A2
S306500000E524A0
S306500000E65172
S306500000E704BE
S306500000E8F3CE
S306500000E9229E
S306500000EA00BF
S306500000EB7C42
S306500000EC239A
S306500000ED2696
S306500000EE516A
S306500000EF04B6
S306500000F0EFCA
S306500000F100B8
S306500000F28037
S306500000F31C9A
S306500000F4EFC6
S306500000F500B4
S306500000F600B3
S306500000F7258D
S306500000F8139E
S306500000F903AD
S306500000FA00AF
S306500000FB00AE
S306500000FC634A
S306500000FD1A92
S306500000FE05A6
S306500000FF02A8
S306500001008325
S306500001012285
S306500001028125
S3065000010304A1
S306500001049311
S306500001058221
S306500001064260
S3065000010700A1
S30650000108237D
S30650000109247B
S3065000010A514D
S3065000010B0499
S3065000010CF3A9
S3065000010D2279
S3065000010E207A
S3065000010F3465
S306500001109305
S306500001110394
S30650000112F0A6
S306500001130194
S30650000114B3E1
S30650000115F2A1
S306500001167220
S306500001170091
S30650000118137D
S30650000119038C
S3065000011AB0DE
S3065000011B008D
S3065000011C6329
S3065000011D8407
S3065000011E6228
S3065000011F0A7F
S306500001201375
S306500001210582
S306500001220185
S306500001230085
S3065000012497ED
S306500001250083
S306500001260082
S306500001270081
S3065000012893ED
S3065000012980FF
S3065000012A007E
S3065000012B136A
S3065000012C6F0D
S3065000012D106B
S3065000012ED0AA
S3065000012F2356
S3065000013093E5
S306500001310275
S306500001320175
S306500001330075
S3065000013497DD
S306500001350370
S306500001360072
S306500001370170
S3065000013893DD
S3065000013983EC
S3065000013A432B
S3065000013B72FB
S3065000013C0369
S3065000013DA1CA
S3065000013E4327
S3065000013F0069
S306500001401355
S306500001410166
S306500001420165
S30650000143FF66
S306500001442341
S306500001452043
S306500001465111
S306500001470061
S30650000148035D
S30650000149AEB1
S3065000014A035B
S3065000014B005D
S3065000014C1349
S3065000014D0E4D
S3065000014E1E3C
S3065000014F0059
S306500001502335
S30650000151A0B7
S30650000152C393
S306500001530154
S3065000015463F1
S30650000155084B
S30650000156034F
S306500001570051
S3065000015897B9
S30650000159004F
S3065000015A004E
S3065000015B004D
S3065000015C93B9
S3065000015D80CB
S3065000015E80CA
S3065000015F0346
S306500001606FD9
S306500001611037
S306500001621036
S306500001633510
S3065000016473D1
S30650000165251E
S306500001662022
S30650000167340D
S3065000016893AD
S30650000169023D
S3065000016AF04E
S3065000016B013C
S3065000016C3309
S3065000016D75C6
S3065000016E55E5
S3065000016F0039
S30650000170EF49
S306500001710037
S306500001720036
S306500001731B1A
S30650000174979D
S306500001750231
S306500001760032
S306500001770130
S30650000178939D
S3065000017982AD
S3065000017A022C
S3065000017BEE3F
S3065000017C1319
S3065000017D1516
S3065000017E35F5
S3065000017F0029
S30650000180B375
S3065000018182A5
S30650000182A284
S306500001830025
S306500001840321
S30650000185A57E
S306500001860220
S306500001870021
S30650000188031D
S30650000189A37C
S3065000018A42DC
S3065000018B001D
S3065000018CE735
S3065000018D001B
S3065000018E0317
S3065000018F0019
S306500001901701
S306500001910314
S306500001920016
S306500001930114
S306500001941301
S306500001950310
S30650000196838F
S306500001976CA5
S30650000198838D
S3065000019923EC
S3065000019A030B
S3065000019B000D
S3065000019C9379
S3065000019D8388
S3065000019EF317
S3065000019FFF0A
S306500001A023E5
S306500001A120E7
S306500001A27393
S306500001A30005
S306500001A48381
S306500001A522E1
S306500001A60101
S306500001A70001
S306500001A813ED
S306500001A9817E
S306500001AA02FC
S306500001AB00FD
S306500001AC8379
S306500001AD23D8
S306500001AE8377
S306500001AF00F9
S306500001B003F5
S306500001B1DE19
S306500001B2A353
S306500001B300F5
S306500001B49361
S306500001B50EE5
S306500001B600F2
S306500001B708E9
S306500001B8638D
S306500001B97E71
S306500001BADE10
S306500001BB09E4
S306500001BC03E9
S306500001BD2EBD
S306500001BE43A7
S306500001BF01E8
S306500001C06385
S306500001C10ADD
S306500001C27E68
S306500001C308DD
S306500001C4EFF5
S306500001C520C3
S306500001C68062
S306500001C71EC3
S306500001C89749
S306500001C902DD
S306500001CA00DE
S306500001CB01DC
S306500001CC9349
S306500001CD8259
S306500001CE02D8
S306500001CF6970
S306500001D003D5
S306500001D1A334
S306500001D28254
S306500001D300D5
S306500001D423B1
S306500001D526AD
S306500001D6834F
S306500001D702CF
S306500001D823AD
S306500001D928A7
S306500001DA933B
S306500001DB02CB
S306500001DC23A9
S306500001DD2AA1
S306500001DE23A7
S306500001DF03C6
S306500001E023A5
S306500001E12C9B
S306500001E23393
S306500001E303C2
S306500001E423A1
S306500001E52E95
S306500001E6437F
S306500001E703BE
S306500001E8239D
S306500001E9209F
S306500001EA536B
S306500001EB05B8
S306500001EC2399
S306500001ED2299
S306500001EE6357
S306500001EF05B4
S306500001F02395
S306500001F12493
S306500001F27343
S306500001F305B0
S306500001F42391
S306500001F5268D
S306500001F6832F
S306500001F705AC
S306500001F8238D
S306500001F92887
S306500001FA931B
S306500001FB05A8
S306500001FC2389
S306500001FD2A81
S306500001FEA307
S306500001FF05A4
S306500002002384
S306500002012C7A
S30650000202B3F2
S30650000203059F
S306500002042380
S30650000205247E
S30650000206237E
S30650000207029E
S306500002089708
S30650000209039B
S3065000020A009D
S3065000020B019B
S3065000020C9308
S3065000020D8317
S3065000020E4356
S3065000020F5345
S306500002100394
S30650000211AEE8
S306500002120392
S306500002130094
S306500002142370
S30650000215246E
S30650000216C3CE
S306500002170789
S30650000218038C
S30650000219A3EB
S3065000021A424B
S3065000021B018B
S3065000021C2368
S3065000021DA4E6
S3065000021E6227
S3065000021F0088
S306500002200384
S306500002212165
S306500002228302
S306500002230282
S306500002240380
S30650000225245E
S30650000226C3BE
S30650000227027E
S3065000022883FC
S30650000229245A
S3065000022A037A
S3065000022B0379
S3065000022C0378
S3065000022D2951
S3065000022E4336
S3065000022F0375
S3065000023083F4
S30650000231294D
S3065000023283F2
S306500002330371
S306500002340370
S306500002352A48
S30650000236C3AE
S30650000237036D
S3065000023883EC
S306500002392A44
S3065000023A036A
S3065000023B0468
S3065000023C0368
S3065000023D2B3F
S3065000023E4326
S3065000023F0464
S3065000024083E4
S306500002412B3B
S3065000024283E2
S306500002430460
S306500002440360
S306500002452C36
S30650000246C39E
S30650000247045C
S3065000024883DC
S306500002492C32
S3065000024A035A
S3065000024B0557
S3065000024C0358
S3065000024D2D2D
S3065000024E4316
S3065000024F0553
S3065000025083D4
S306500002512D29
S3065000025283D2
S30650000253054F
S30650000254EF64
S306500002550052
S3065000025680D1
S306500002570947
S3065000025883CC
S30650000259222C
S3065000025A81CC
S3065000025B0448
S3065000025C73D8
S3065000025D90BA
S3065000025E1237
S3065000025F3414
S3065000026083C4
S306500002612224
S30650000262C184
S306500002630440
S3065000026473D0
S3065000026590B2
S30650000266023F
S306500002677CC4
S3065000026883BC
S30650000269201E
S3065000026A013C
S3065000026B003C
S3065000026C83B8
S3065000026D2119
S3065000026E41F8
S3065000026F0038
S306500002700334
S306500002712214
S3065000027281B4
S306500002730034
S3065000027483B0
S306500002752210
S30650000276C170
S306500002770030
S30650000278032C
S30650000279230B
S3065000027A012C
S3065000027B012B
S3065000027C83A8
S3065000027D2307
S3065000027E41E8
S3065000027F0127
S306500002800324
S306500002812EF8
S3065000028281A4
S306500002830123
S3065000028483A0
S306500002852EF4
S30650000286C160
S30650000287011F
S30650000288031C
S306500002892FEF
S3065000028A011C
S3065000028B021A
S3065000028C8398
S3065000028D2FEB
S3065000028E41D8
S3065000028F0216
S306500002900314
S3065000029125F1
S306500002928194
S306500002930212
S306500002948390
S3065000029525ED
S30650000296C150
S30650000297020E
S30650000298030C
S3065000029926E8
S3065000029A010C
S3065000029B0309
S3065000029C8388
S3065000029D26E4
S3065000029E41C8
S3065000029F0305
S306500002A00304
S306500002A127DF
S306500002A28184
S306500002A30301
S306500002A48380
S306500002A527DB
S306500002A6C140
S306500002A703FD
S306500002A803FC
S306500002A928D6
S306500002AA01FC
S306500002AB04F8
S306500002AC8378
S306500002AD28D2
S306500002AE41B8
S306500002AF04F4
S306500002B013E4
S306500002B101F5
S306500002B201F4
S306500002B307ED
S306500002B47380
S306500002B500F2
S306500002B600F1
S306500002B710E0
S306500002B8F3FC
S306500002B922CC
S306500002BA00ED
S306500002BB7B71
S306500002BC7378
S306500002BD23C7
S306500002BE10D9
S306500002BF7B6D
S306500002C0F3F4
S306500002C123C3
S306500002C220C5
S306500002C37B69
S306500002C423C0
S306500002C528BA
S306500002C65190
S306500002C704DC
S306500002C823BC
S306500002C92AB4
S306500002CA617C
S306500002CB04D8
S306500002CC23B8
S306500002CD2CAE
S306500002CE7168
S306500002CF04D4
S306500002D0F3E4
S306500002D122B4
S306500002D24095
S306500002D37B59
S306500002D47360
S306500002D523AF
S306500002D65081
S306500002D77B55
S306500002D8F3DC
S306500002D923AB
S306500002DA606D
S306500002DB7B51
S306500002DC23A8
S306500002DD2E9C
S306500002DE5178
S306500002DF04C4
S306500002E023A4
S306500002E120A6
S306500002E26164
S306500002E306BE
S306500002E423A0
S306500002E522A0
S306500002E67150
S306500002E706BA
S306500002E86758
S306500002E9803E
S306500002EA00BD
S306500002EB00BC
S306500002EC8338
S306500002ED2298
S306500002EE01B8
S306500002EF05B3
S306500002F003B4
S306500002F12393
S306500002F24174
S306500002F305AF
S306500002F48330
S306500002F5238F
S306500002F68130
S306500002F705AB
S306500002F8733C
S306500002F9901E
S306500002FA02AB
S306500002FB7B31
S306500002FC7338
S306500002FD109A
S306500002FE1396
S306500002FF7B2D
S306500003007333
S306500003019015
S306500003022381
S306500003037B28
S30650000304831F
S30650000305227F
S30650000306C1DF
S30650000307059A
S30650000308039B
S30650000309237A
S3065000030A019B
S3065000030B0695
S3065000030C8317
S3065000030D2376
S3065000030E4157
S3065000030F0691
S306500003107323
S306500003119005
S306500003124252
S306500003137B18
S30650000314731F
S306500003151081
S30650000316533D
S306500003177B14
S30650000318731B
S3065000031990FD
S3065000031A6329
S3065000031B7B10
S3065000031C6723
S3065000031D8009
S3065000031E0088
S3065000031F0087
S30650000320374F
S306500003214342
S306500003221074
S306500003231A69
S30650000324136F
S30650000325037E
S30650000326C3BD
S30650000327007F
S3065000032893EB
S30650000329037A
S3065000032A106C
S3065000032B007B
S3065000032C3347
S3065000032D9EDB
S3065000032EA3D5
S3065000032F0077
S306500003302353
S306500003312055
S30650000332C3B1
S306500003330172
S30650000334373B
S30650000335432E
S306500003361060
S306500003371A55
S30650000338135B
S30650000339036A
S3065000033AC3A9
S3065000033B016A
S3065000033C2347
S3065000033D2049
S3065000033EC3A5
S3065000033F0166
S3065000034067FF
S3065000034180E5
S306500003420064
S306500003430063
S30650000344F36F
S30650000345223F
S306500003462040
S30650000347342B
S3065000034893CB
S30650000349F26B
S3065000034AF26A
S3065000034B015A
S3065000034C1347
S3065000034D0356
S3065000034EF068
S3065000034F0057
S306500003501343
S306500003510550
S306500003520054
S306500003530053
S3065000035463EF
S30650000355C48D
S3065000035662EE
S30650000357004F
S30650000358133B
S306500003590548
S3065000035A1537
S3065000035B004B
S3065000035C67E3
S3065000035D80C9
S3065000035E0048
S3065000035F0047
S3065000036073D3
S306500003610045
S306500003620044
S306500003630043
S3065000036497AB
S30650000365023F
S306500003660040
S30650000367013E
S3065000036893AB
S3065000036982BB
S3065000036A42FA
S3065000036B4FEC
S3065000036C0337
S3065000036DA396
S3065000036E82B6
S3065000036F0037
S3065000037083B3
S306500003712312
S3065000037283B1
S30650000373062D
S30650000374131F
S3065000037575BC
S30650000376151B
S30650000377002F
S30650000378F33B
S30650000379220B
S3065000037A0527
S3065000037B30FB
S3065000037C1317
S3065000037D85A4
S3065000037E0325
S3065000037F0027
S3065000038067BF
S3065000038180A5
S306500003820024
S306500003830023
S30650000384130F
S306500003850120
S30650000386011F
S30650000387FF20
S30650000388B767
S306500003899786
S3065000038A0418
S3065000038B001B
S3065000038C23F7
S3065000038D26F3
S3065000038E0117
S3065000038F0017
S306500003909383
S30650000391878E
S30650000392F71D
S306500003933DD6
S30650000394030F
S3065000039527EA
S30650000396C14F
S30650000397000F
S3065000039863AB
S30650000399CA43
S3065000039AE725
S3065000039B000B
S3065000039C0307
S3065000039D27E2
S3065000039EC147
S3065000039F0007
S306500003A013F3
S306500003A107FE
S306500003A217ED
S306500003A30003
S306500003A423DF
S306500003A526DB
S306500003A6E11F
S306500003A700FF
S306500003A86F8F
S306500003A9F00D
S306500003AADF1D
S306500003ABFEFD
S306500003AC13E7
S306500003AD01F8
S306500003AE01F7
S306500003AF01F6
S306500003B0678F
S306500003B18075
S306500003B200F4
S306500003B300F3
S306500003B413DF
S306500003B501F0
S306500003B601EF
S306500003B7FEF1
S306500003B837B7
S306500003B905E8
S306500003BA00EC
S306500003BB519A
S306500003BC23C7
S306500003BD2ABF
S306500003BE9157
S306500003BF00E7
S306500003C013D3
S306500003C105E0
S306500003C2855F
S306500003C316CD
S306500003C4B72B
S306500003C504DD
S306500003C600E0
S306500003C7518E
S306500003C823BB
S306500003C92EAF
S306500003CA11CB
S306500003CB00DB
S306500003CC23B7
S306500003CD2CAD
S306500003CE8157
S306500003CF00D7
S306500003D0EFE7
S306500003D110C5
S306500003D24094
S306500003D35380
S306500003D413BF
S306500003D5854C
S306500003D6844C
S306500003D717B8
S306500003D8EFDF
S306500003D910BD
S306500003DA903C
S306500003DB15B6
S306500003DC9337
S306500003DD8544
S306500003DE8444
S306500003DF17B0
S306500003E06363
S306500003E100C5
S306500003E205BF
S306500003E30CB7
S306500003E413AF
S306500003E504BD
S306500003E605BB
S306500003E700BF
S306500003E83787
S306500003E905B8
S306500003EA00BC
S306500003EB516A
S306500003EC9327
S306500003ED8534
S306500003EE8434
S306500003EF17A0
S306500003F013A3
S306500003F105B0
S306500003F2852F
S306500003F3199A
S306500003F4EFC3
S306500003F510A1
S306500003F600B0
S306500003F7515E
S306500003F8832B
S306500003F92786
S306500003FA4468
S306500003FB00AB
S306500003FC1397
S306500003FD06A3
S306500003FE1098
S306500003FF00A7
S306500004008322
S30650000401A7FD
S30650000402079C
S3065000040300A2
S30650000404930E
S30650000405059B
S306500004060699
S30650000407009E
S30650000408138A
S306500004090597
S3065000040A0497
S3065000040B009A
S3065000040CE7B2
S3065000040D8018
S3065000040E0790
S3065000040F0096
S306500004108312
S30650000411276D
S30650000412444F
S306500004130092
S30650000414830E
S30650000415A7E9
S306500004160788
S30650000417008E
S30650000418137A
S306500004190686
S3065000041A107B
S3065000041B008A
S3065000041C93F6
S3065000041D0583
S3065000041E3057
S3065000041F0086
S306500004201372
S30650000421057F
S30650000422047F
S306500004230082
S30650000424E79A
S306500004258000
S306500004260778
S30650000427007E
S3065000042883FA
S306500004292755
S3065000042A4437
S3065000042B007A
S3065000042C83F6
S3065000042DA7D1
S3065000042E4730
S3065000042F0076
S306500004301362
S30650000431066E
S3065000043281F2
S306500004330072
S3065000043493DE
S30650000435056B
S30650000436105F
S30650000437006E
S30650000438234A
S306500004392448
S3065000043A016A
S3065000043B006A
S3065000043C2346
S3065000043D2642
S3065000043E0166
S3065000043F0066
S306500004401352
S30650000441055F
S30650000442045F
S306500004430062
S30650000444E77A
S3065000044580E0
S306500004460758
S30650000447005E
S3065000044883DA
S306500004492735
S3065000044A4417
S3065000044B005A
S3065000044C83D6
S3065000044DA7B1
S3065000044E4710
S3065000044F0056
S306500004501342
S30650000451064E
S30650000452C192
S306500004530052
S3065000045493BE
S30650000455054B
S30650000456301F
S30650000457004E
S30650000458133A
S306500004590547
S3065000045A0447
S3065000045B004A
S3065000045CE762
S3065000045D80C8
S3065000045E0740
S3065000045F0046
S3065000046083C2
S30650000461271D
S3065000046281C2
S306500004630042
S3065000046463DE
S306500004658CB4
S306500004660738
S30650000467003E
S3065000046883BA
S306500004692715
S3065000046AC17A
S3065000046B003A
S3065000046C63D6
S3065000046D88B0
S3065000046E0730
S3065000046F0036
S3065000047037FE
S30650000471052F
S306500004720033
S3065000047351E1
S30650000474131E
S30650000475052B
S3065000047645EA
S306500004771A14
S306500004786FBE
S30650000479002C
S3065000047AC06B
S3065000047B002A
S3065000047C37F2
S3065000047D0523
S3065000047E0027
S3065000047F51D5
S306500004801312
S30650000481051F
S30650000482051E
S306500004831C06
S30650000484B76A
S30650000485041C
S30650000486001F
S3065000048751CD
S30650000488EF2E
S30650000489100C
S3065000048AC05B
S3065000048B47D3
S3065000048C1306
S3065000048D8593
S3065000048EC453
S3065000048F1DF9
S30650000490EF26
S306500004911004
S306500004921003
S306500004930A08
S3065000049413FE
S30650000495040C
S30650000496050A
S30650000497000E
S3065000049863AA
S306500004991CF0
S3065000049A0506
S3065000049B000A
S3065000049C9376
S3065000049D8583
S3065000049EC443
S3065000049F1DE9
S306500004A037CE
S306500004A105FF
S306500004A20003
S306500004A351B1
S306500004A413EE
S306500004A505FB
S306500004A645BA
S306500004A718E6
S306500004A8EF0E
S306500004A910EC
S306500004AAC03B
S306500004AB45B5
S306500004AC6F8A
S306500004AD00F8
S306500004AE40B7
S306500004AF07EF
S306500004B037BE
S306500004B105EF
S306500004B200F3
S306500004B351A1
S306500004B413DE
S306500004B505EB
S306500004B645AA
S306500004B71ED0
S306500004B8EFFE
S306500004B910DC
S306500004BAC02B
S306500004BB44A6
S306500004BC8366
S306500004BD27C1
S306500004BE44A3
S306500004BF00E6
S306500004C09352
S306500004C106DE
S306500004C210D3
S306500004C300E2
S306500004C4835E
S306500004C5A739
S306500004C607D8
S306500004C700DE
S306500004C813CA
S306500004C98656
S306500004CA06D5
S306500004CB00DA
S306500004CC9346
S306500004CD05D3
S306500004CE00D7
S306500004CF00D6
S306500004D013C2
S306500004D105CF
S306500004D204CF
S306500004D300D2
S306500004D4E7EA
S306500004D58050
S306500004D607C8
S306500004D700CE
S306500004D8933A
S306500004D904C8
S306500004DA10BB
S306500004DB00CA
S306500004DC6366
S306500004DD0CBC
S306500004DE05C2
S306500004DF00C6
S306500004E0378E
S306500004E105BF
S306500004E200C3
S306500004E35171
S306500004E413AE
S306500004E505BB
S306500004E6457A
S306500004E71F9F
S306500004E86F4E
S306500004E900BC
S306500004EA407B
S306500004EB03B7
S306500004EC9326
S306500004EDC4F4
S306500004EE14A3
S306500004EF00B6
S306500004F0EFC6
S306500004F1F0C4
S306500004F25F54
S306500004F3E9C9
S306500004F4832E
S306500004F52789
S306500004F6446B
S306500004F700AE
S306500004F8832A
S306500004F9A705
S306500004FA4764
S306500004FB00AA
S306500004FC9316
S306500004FD8622
S306500004FE04A3
S306500004FF00A6
S306500005001391
S30650000501069D
S306500005021092
S3065000050300A1
S30650000504930D
S30650000505059A
S30650000506009E
S30650000507009D
S306500005081389
S306500005090596
S3065000050A0496
S3065000050B0099
S3065000050CE7B1
S3065000050D8017
S3065000050E078F
S3065000050F0095
S30650000510E3B1
S306500005110E85
S30650000512058D
S30650000513FC95
S306500005143759
S30650000515058A
S30650000516008E
S30650000517513C
S306500005181379
S306500005190586
S3065000051A4545
S3065000051B2168
S3065000051CEF99
S3065000051D1077
S3065000051E8006
S3065000051F3E47
S306500005208301
S306500005212063
S30650000522C1C1
S306500005230180
S30650000524037D
S30650000525245B
S3065000052681FD
S30650000527017C
S3065000052883F9
S306500005292457
S3065000052A4139
S3065000052B0178
S3065000052C1365
S3065000052D0176
S3065000052E0175
S3065000052F0273
S30650000530670D
S3065000053180F3
S306500005320072
S306500005330071
S306500005348BE5
S306500005354728
S306500005361559
S30650000537006D
S306500005380B61
S30650000539C7A4
S3065000053A1555
S3065000053B0069
S3065000053C6305
S3065000053D96D1
S3065000053EE77F
S3065000053F0065
S30650000540E381
S306500005419AC9
S30650000542075B
S30650000543FE63
S30650000544134D
S3065000054587D8
S306500005460757
S30650000547005D
S306500005483329
S3065000054985D6
S3065000054AE773
S3065000054B4019
S3065000054C67F1
S3065000054D80D7
S3065000054E0056
S3065000054F0055
S3065000055093C1
S30650000551F65D
S30650000552F55D
S306500005530F42
S3065000055493BD
S306500005550748
S306500005560549
S30650000557004D
S306500005581339
S306500005590744
S3065000055A1634
S3065000055B0049
S3065000055C3315
S3065000055DB88F
S3065000055E271F
S3065000055FFA4B
S3065000056063E1
S306500005610E35
S30650000562083A
S306500005630041
S30650000564132D
S306500005650738
S30650000566F747
S30650000567FF3E
S3065000056863D9
S306500005691427
S3065000056A0733
S3065000056B0039
S3065000056C67D1
S3065000056D80B7
S3065000056E0036
S3065000056F0035
S30650000570AB89
S3065000057180B3
S30650000572D75B
S306500005730031
S30650000574131D
S306500005750629
S30650000576F638
S30650000577FF2E
S306500005786FBD
S30650000579F03B
S3065000057A5FCB
S3065000057BFE2B
S3065000057CB375
S3065000057DB572
S3065000057E85A1
S3065000057FEE37
S306500005801311
S30650000581978C
S30650000582859D
S306500005830021
S30650000584B36D
S30650000585E53A
S30650000586E539
S30650000587001D
S306500005881309
S306500005899784
S3065000058A0515
S3065000058B0118
S3065000058CB365
S3065000058DE532
S3065000058EE531
S3065000058F0015
S306500005901301
S3065000059157BC
S3065000059226EC
S306500005930011
S3065000059413FD
S306500005958887
S306500005960707
S30650000597000D
S3065000059813F9
S306500005990704
S3065000059A17F3
S3065000059B0009
S3065000059C13F5
S3065000059D0700
S3065000059EF70F
S3065000059FFF06
S306500005A063A1
S306500005A110F3
S306500005A207FB
S306500005A302FF
S306500005A413ED
S306500005A557A8
S306500005A626D8
S306500005A700FD
S306500005A89369
S306500005A915E6
S306500005AA27D3
S306500005AB00F9
S306500005ACB345
S306500005AD8770
S306500005AEB73F
S306500005AF00F5
S306500005B09361
S306500005B105EE
S306500005B2C032
S306500005B3FFF2
S306500005B433BD
S306500005B506E9
S306500005B6B737
S306500005B742AB
S306500005B813D9
S306500005B906E5
S306500005BA16D4
S306500005BB00E9
S306500005BC6F79
S306500005BD00E7
S306500005BE00E6
S306500005BF01E4
S306500005C02BB9
S306500005C122C1
S306500005C2B82A
S306500005C300E1
S306500005C46F71
S306500005C5F0EF
S306500005C69F3F
S306500005C7FDE0
S306500005C8AB31
S306500005C9805B
S306500005CAD703
S306500005CB00D9
S306500005CC13C5
S306500005CD06D1
S306500005CEF6E0
S306500005CFFFD6
S306500005D0E3F1
S306500005D11CB7
S306500005D206CC
S306500005D3FED3
S306500005D46769
S306500005D5804F
S306500005D600CE
S306500005D700CD
S306500005D813B9
S306500005D901CA
S306500005DA01C9
S306500005DBFFCA
S306500005DC23A5
S306500005DD24A3
S306500005DE8145
S306500005DF00C5
S306500005E0378D
S306500005E104BF
S306500005E200C2
S306500005E35170
S306500005E4239D
S306500005E5229D
S306500005E6912D
S306500005E700BD
S306500005E82399
S306500005E92695
S306500005EA11A9
S306500005EB00B9
S306500005EC9325
S306500005ED04B3
S306500005EE05B1
S306500005EF00B5
S306500005F013A1
S306500005F104AF
S306500005F204AE
S306500005F3753C
S306500005F4634D
S306500005F53C73
S306500005F6A509
S306500005F700AD
S306500005F803A9
S306500005F92586
S306500005FA04A6
S306500005FB00A9
S306500005FC9315
S306500005FD05A2
S306500005FED0D6
S306500005FF00A5
S306500006008320
S30650000601277B
S30650000602455C
S3065000060300A0
S30650000604831C
S30650000605A7F7
S306500006064756
S30650000607009C
S30650000608E7B4
S30650000609801A
S3065000060A0792
S3065000060B0098
S3065000060C0394
S3065000060D2571
S3065000060E0491
S3065000060F0094
S306500006109300
S30650000611F59D
S30650000612F49D
S306500006130F81
S30650000614830C
S306500006152767
S306500006164548
S30650000617008C
S306500006188308
S30650000619A7E3
S3065000061A4742
S3065000061B0088
S3065000061CE7A0
S3065000061D8006
S3065000061E077E
S3065000061F0084
S306500006208300
S306500006212062
S30650000622C1C0
S306500006230080
S30650000624136C
S3065000062585F9
S306500006260479
S30650000627007C
S306500006280378
S306500006292456
S3065000062A81F8
S3065000062B0078
S3065000062C83F4
S3065000062D2452
S3065000062E4134
S3065000062F0074
S306500006301360
S306500006310171
S306500006320170
S30650000633016F
S306500006346708
S3065000063580EE
S30650000636006D
S30650000637006C
S306500006383734
S306500006390565
S3065000063A0069
S3065000063B5018
S3065000063C1354
S3065000063D0561
S3065000063E85E0
S3065000063F5D07
S306500006406FF4
S306500006410062
S306500006425011
S306500006436FF1
S306500006443728
S306500006450559
S30650000646005D
S30650000647510B
S306500006481348
S306500006490159
S3065000064A0158
S3065000064BFF59
S3065000064C1344
S3065000064D0551
S3065000064E85D0
S3065000064F2232
S306500006502330
S30650000651262C
S306500006521140
S306500006530050
S30650000654EF60
S30650000655103E
S30650000656C08D
S306500006576DDF
S30650000658B794
S306500006590743
S3065000065A0049
S3065000065B51F7
S3065000065C2324
S3065000065DA89E
S3065000065EA79E
S3065000065F74D0
S30650000660EF54
S30650000661F052
S306500006629FA2
S30650000663FD43
S3065000066483BC
S30650000665201E
S30650000666C17C
S30650000667003C
S306500006681328
S306500006690535
S3065000066A0039
S3065000066B0038
S3065000066C1324
S3065000066D0135
S3065000066E0134
S3065000066F0133
S3065000067067CC
S3065000067180B2
S306500006720031
S306500006730030
S3065000067483AC
S306500006752806
S3065000067685A8
S30650000677002C
S306500006781318
S306500006790723
S3065000067A1019
S3065000067B0028
S3065000067C73B4
S3065000067D37EF
S3065000067E071E
S3065000067F30F4
S306500006800320
S30650000681A67C
S3065000068248D9
S306500006830020
S3065000068433EC
S3065000068537E7
S306500006861706
S30650000687FC20
S3065000068863B8
S306500006890A10
S3065000068A0613
S3065000068B0612
S3065000068C8394
S3065000068D27EF
S3065000068E0510
S3065000068F0014
S306500006908390
S30650000691A76B
S30650000692878A
S306500006930010
S30650000694838C
S30650000695A767
S306500006960706
S30650000697000C
S3065000069863A8
S306500006998288
S3065000069A0702
S3065000069B0602
S3065000069CB354
S3065000069DD72F
S3065000069EC73E
S3065000069F0202
S306500006A00300
S306500006A123DF
S306500006A2857C
S306500006A30000
S306500006A4837C
S306500006A526D8
S306500006A603FA
S306500006A700FC
S306500006A813E8
S306500006A90EEC
S306500006AA00F9
S306500006ABF800
S306500006AC9364
S306500006AD8670
S306500006AEC62F
S306500006AF00F4
S306500006B08370
S306500006B1C52D
S306500006B206EB
S306500006B300F0
S306500006B423CC
S306500006B5806E
S306500006B6C627
S306500006B701EB
S306500006B89358
S306500006B9F5F5
S306500006BAF5F4
S306500006BB0FD9
S306500006BC13D4
S306500006BDD80E
S306500006BE479E
S306500006BF00E4
S306500006C09350
S306500006C1766C
S306500006C2F8E9
S306500006C30FD1
S306500006C403DC
S306500006C528B6
S306500006C68558
S306500006C700DC
S306500006C803D8
S306500006C928B2
S306500006CA08D1
S306500006CB00D8
S306500006CC9344
S306500006CDD7FF
S306500006CEC70E
S306500006CF00D4
S306500006D023B0
S306500006D100D2
S306500006D2D8F9
S306500006D300D0
S306500006D4834C
S306500006D526A8
S306500006D68548
S306500006D700CC
S306500006D88348
S306500006D9A624
S306500006DA06C3
S306500006DB00C8
S306500006DC9334
S306500006DDF7CF
S306500006DEF7CE
S306500006DF0FB5
S306500006E09330
S306500006E1863C
S306500006E2467B
S306500006E300C0
S306500006E4239C
S306500006E5803E
S306500006E6F6C7
S306500006E700BC
S306500006E88338
S306500006E92793
S306500006EA8534
S306500006EB00B8
S306500006EC8334
S306500006EDA70F
S306500006EE07AE
S306500006EF00B4
S306500006F09320
S306500006F1872B
S306500006F2C7EA
S306500006F300B0
S306500006F4238C
S306500006F5802E
S306500006F6B7F6
S306500006F700AC
S306500006F82388
S306500006F92288
S306500006FAC3E6
S306500006FB00A8
S306500006FC8324
S306500006FD277F
S306500006FE8520
S306500006FF00A4
S30650000700831F
S30650000701A7FA
S306500007020799
S30650000703009F
S30650000704930B
S306500007050697
S30650000706306C
S30650000707009B
S306500007089307
S306500007098712
S3065000070AC7D1
S3065000070B0097
S3065000070C2373
S3065000070D8015
S3065000070ED7BD
S3065000070F0093
S30650000710830F
S30650000711C7CA
S306500007128808
S30650000713008F
S3065000071493FB
S306500007150687
S30650000716B0DC
S30650000717008B
S30650000718B3D7
S30650000719B7D2
S3065000071A1771
S3065000071BFC8B
S3065000071C6323
S3065000071D8401
S3065000071E077D
S3065000071F0083
S3065000072093EF
S30650000721067B
S30650000722B0D0
S30650000723027D
S3065000072483FB
S306500007252756
S3065000072685F7
S30650000727007B
S3065000072883F7
S30650000729A7D2
S3065000072A0771
S3065000072B0077
S3065000072C93E3
S3065000072D87EE
S3065000072E076D
S3065000072F0172
S30650000730234F
S3065000073180F1
S30650000732D799
S30650000733006F
S3065000073483EB
S306500007352746
S3065000073685E7
S30650000737006B
S3065000073883E7
S30650000739A7C2
S3065000073A0761
S3065000073B0067
S3065000073C93D3
S3065000073D065F
S3065000073E70F4
S3065000073FFA69
S3065000074093CF
S3065000074187DA
S3065000074287D9
S30650000743005F
S30650000744233B
S3065000074580DD
S30650000746D785
S30650000747005B
S306500007480357
S306500007492534
S3065000074A85D3
S3065000074B0057
S3065000074C83D3
S3065000074D272E
S3065000074E054F
S3065000074F0053
S306500007508BC7
S3065000075186CB
S306500007524709
S30650000753004F
S30650000754232B
S3065000075580CD
S306500007560745
S30650000757004B
S3065000075873D7
S306500007592722
S3065000075A0741
S3065000075B3017
S3065000075C1333
S3065000075D0540
S3065000075E0044
S3065000075F0043
S3065000076067DB
S3065000076180C1
S306500007620040
S30650000763003F
S30650000764033B
S306500007652518
S3065000076685B7
S30650000767003B
S306500007680337
S306500007692712
S3065000076A0533
S3065000076B0037
S3065000076C93A3
S3065000076D072E
S3065000076E47ED
S3065000076F0132
S3065000077083AF
S30650000771C76A
S306500007720729
S30650000773002F
S30650000774B37B
S30650000775B776
S306500007761715
S30650000777FC2F
S3065000077863C7
S306500007798A9F
S3065000077A0721
S3065000077B0027
S3065000077C83A3
S3065000077D47DE
S3065000077E071D
S3065000077F0023
S30650000780130F
S30650000781051C
S306500007820020
S30650000783001F
S3065000078423FB
S30650000785809D
S30650000786F527
S30650000787001B
S3065000078867B3
S306500007898099
S3065000078A0018
S3065000078B0017
S3065000078C1303
S3065000078D0510
S3065000078EF024
S3065000078FFF14
S3065000079067AB
S306500007918091
S306500007920010
S30650000793000F
S30650000794030B
S3065000079525E8
S306500007968587
S30650000797000B
S306500007980307
S3065000079927E2
S3065000079A0503
S3065000079B0007
S3065000079C9373
S3065000079D06FF
S3065000079E47BD
S3065000079F0102
S306500007A0837F
S306500007A1C73A
S306500007A206FA
S306500007A300FF
S306500007A4936B
S306500007A5F706
S306500007A607F5
S306500007A704F7
S306500007A8E317
S306500007A98C6D
S306500007AA07F1
S306500007ABFEF9
S306500007AC23D3
S306500007AD00F5
S306500007AEB73D
S306500007AF00F3
S306500007B013DF
S306500007B1856C
S306500007B205EB
S306500007B300EF
S306500007B46787
S306500007B5806D
S306500007B600EC
S306500007B700EB
S306500007B803E7
S306500007B925C4
S306500007BA8563
S306500007BB00E7
S306500007BC8363
S306500007BD27BE
S306500007BE05DF
S306500007BF00E3
S306500007C0934F
S306500007C1875A
S306500007C24799
S306500007C301DE
S306500007C403DB
S306500007C5C518
S306500007C607D5
S306500007C700DB
S306500007C813C7
S306500007C97564
S306500007CAE5F3
S306500007CB01D6
S306500007CC13C3
S306500007CD5580
S306500007CE15BF
S306500007CF00D3
S306500007D0676B
S306500007D18051
S306500007D200D0
S306500007D300CF
S306500007D4B717
S306500007D53796
S306500007D610BC
S306500007D71AB1
S306500007D823A7
S306500007D9A029
S306500007DA07C1
S306500007DB00C7
S306500007DCB70F
S306500007DD07BE
S306500007DE00C4
S306500007DF5172
S306500007E0932F
S306500007E1873A
S306500007E24779
S306500007E3754A
S306500007E4B707
S306500007E506B7
S306500007E600BC
S306500007E7516A
S306500007E803B7
S306500007E9A712
S306500007EA07B1
S306500007EB00B7
S306500007EC8333
S306500007EDA60F
S306500007EE862E
S306500007EF743F
S306500007F0337F
S306500007F107AA
S306500007F2D7D9
S306500007F300AF
S306500007F4238B
S306500007F5A00D
S306500007F6E7C5
S306500007F700AB
S306500007F8B7F3
S306500007F907A2
S306500007FA00A8
S306500007FB5156
S306500007FC03A3
S306500007FDA500
S306500007FE475D
S306500007FF742F
S306500008006F32
S306500008011090
S30650000802108F
S306500008035D41
S30650000804138A
S30650000805019B
S30650000806019A
S30650000807FF9B
S306500008081386
S306500008090593
S3065000080AD0C7
S3065000080B0195
S3065000080C2372
S3065000080D266E
S3065000080E1182
S3065000080F0092
S30650000810EFA2
S306500008111080
S30650000812404F
S30650000813137B
S30650000814B7D6
S306500008153755
S30650000816107B
S306500008171A70
S306500008182366
S30650000819A0E8
S3065000081A0780
S3065000081B0086
S3065000081C374E
S3065000081D077D
S3065000081E0083
S3065000081F5131
S30650000820037E
S306500008212759
S3065000082287F8
S30650000823740A
S3065000082483FA
S30650000825205C
S30650000826C1BA
S30650000827007A
S306500008282356
S30650000829A4D4
S3065000082AE790
S3065000082B0076
S3065000082C1362
S3065000082D076D
S3065000082E1063
S3065000082F0072
S30650000830135E
S30650000831056B
S30650000832006F
S30650000833006E
S30650000834234A
S30650000835A2CA
S30650000836E784
S30650000837006A
S306500008381356
S306500008390167
S3065000083A0166
S3065000083B0165
S3065000083C67FE
S3065000083D80E4
S3065000083E0063
S3065000083F0062
S30650000840134E
S30650000841055B
S30650000842A0BF
S30650000843015D
S306500008446FEE
S30650000845104C
S30650000846005B
S30650000847104A
S3065000084883D6
S306500008492731
S3065000084A0552
S3065000084B0056
S3065000084C0352
S3065000084D262E
S3065000084E85CE
S3065000084F0052
S3065000085083CE
S30650000851A7A9
S3065000085287C8
S30650000853004E
S3065000085483CA
S30650000855A6A6
S306500008560744
S30650000857004A
S30650000858B792
S306500008594701
S3065000085A1037
S3065000085B1A2C
S3065000085C93B2
S3065000085D87BD
S3065000085EC77C
S3065000085F0042
S30650000860033E
S30650000861A799
S306500008620738
S30650000863003E
S30650000864132A
S306500008650537
S3065000086646F5
S306500008670139
S306500008683306
S3065000086947F1
S3065000086AA790
S3065000086BC175
S3065000086C2312
S3065000086DA094
S3065000086EE74C
S3065000086F0032
S3065000087083AE
S30650000871A68A
S3065000087286A9
S30650000873022C
S306500008746FBE
S30650000875101C
S30650000876909B
S3065000087742E8
S306500008780326
S306500008792503
S3065000087A0522
S3065000087B0026
S3065000087C0322
S3065000087D25FF
S3065000087E859E
S3065000087F0022
S30650000880839E
S3065000088127F9
S30650000882C55A
S30650000883001E
S3065000088463BA
S30650000885928A
S306500008860714
S306500008870218
S306500008881306
S306500008890117
S3065000088A0116
S3065000088BFF17
S3065000088C1302
S3065000088D050F
S3065000088E45CE
S3065000088F0012
S3065000089023EE
S3065000089126EA
S3065000089211FE
S30650000893000E
S30650000894EF1E
S3065000089510FC
S30650000896907B
S3065000089740CA
S306500008988386
S3065000089920E8
S3065000089AC146
S3065000089B0006
S3065000089C13F2
S3065000089D05FF
S3065000089E0003
S3065000089F0002
S306500008A013EE
S306500008A101FF
S306500008A201FE
S306500008A301FD
S306500008A46796
S306500008A5807C
S306500008A600FB
S306500008A700FA
S306500008A813E6
S306500008A905F3
S306500008AA00F7
S306500008AB00F6
S306500008AC678E
S306500008AD8074
S306500008AE00F3
S306500008AF00F2
S306500008B013DE
S306500008B101EF
S306500008B201EE
S306500008B3FAF4
S306500008B423CA
S306500008B52EBE
S306500008B611DA
S306500008B704E6
S306500008B823C6
S306500008B92CBC
S306500008BA8166
S306500008BB04E2
S306500008BC23C2
S306500008BD2ABA
S306500008BE9152
S306500008BF04DE
S306500008C023BE
S306500008C128B8
S306500008C221BE
S306500008C305D9
S306500008C423BA
S306500008C526B6
S306500008C631AA
S306500008C705D5
S306500008C823B6
S306500008C924B4
S306500008CA4196
S306500008CB05D1
S306500008CC23B2
S306500008CD22B2
S306500008CE5182
S306500008CF05CD
S306500008D023AE
S306500008D120B0
S306500008D2616E
S306500008D305C9
S306500008D423AA
S306500008D52E9E
S306500008D6715A
S306500008D703C7
S306500008D86366
S306500008D914B4
S306500008DA06C1
S306500008DB00C6
S306500008DC6362
S306500008DD0EB6
S306500008DE07BC
S306500008DF4C76
S306500008E003BE
S306500008E12A96
S306500008E205BA
S306500008E300BE
S306500008E413AA
S306500008E50BB1
S306500008E605B6
S306500008E700BA
S306500008E803B6
S306500008E92494
S306500008EA8A2D
S306500008EB00B6
S306500008EC13A2
S306500008ED09AB
S306500008EE446F
S306500008EF00B2
S306500008F0931E
S306500008F18927
S306500008F205AA
S306500008F300AE
S306500008F4139A
S306500008F505A7
S306500008F609A2
S306500008F700AA
S306500008F89316
S306500008F905A3
S306500008FAF0B7
S306500008FBFFA7
S306500008FC9312
S306500008FD8420
S306500008FE069D
S306500008FF00A2
S30650000900930D
S306500009010B94
S306500009020698
S30650000903009D
S306500009049309
S306500009050A91
S306500009060793
S306500009070099
S30650000908EFA9
S306500009091087
S3065000090A9006
S3065000090B4550
S3065000090C8311
S3065000090D276C
S3065000090E0B87
S3065000090F0091
S30650000910830D
S30650000911A6E9
S306500009128707
S30650000913008D
S306500009148309
S30650000915A7E4
S306500009160783
S306500009170089
S306500009188305
S30650000919A7E0
S3065000091A87FF
S3065000091B0085
S3065000091C0381
S3065000091DA6DD
S3065000091E077B
S3065000091F0081
S3065000092083FD
S30650000921A7D8
S306500009220678
S30650000923007D
S306500009246319
S306500009250477
S30650000926FB7F
S306500009270277
S3065000092883F5
S306500009292750
S3065000092A4B2B
S3065000092B0075
S3065000092C1361
S3065000092D97DC
S3065000092E175B
S3065000092F0071
S30650000930B7B9
S30650000931F778
S30650000932FA74
S30650000933026B
S3065000093493D9
S3065000093587E4
S306500009360763
S306500009370861
S30650000938B3B5
S30650000939D790
S3065000093AE77F
S3065000093B0263
S3065000093C93D1
S3065000093D87DC
S3065000093EF76B
S3065000093FFF62
S30650000940B3AD
S30650000941D788
S306500009420757
S30650000943104D
S306500009442339
S306500009452239
S30650000946F664
S306500009470059
S306500009482335
S30650000949A0B7
S3065000094A66F0
S3065000094B0154
S3065000094C2331
S3065000094D2231
S3065000094E341E
S3065000094F034E
S30650000950232D
S30650000951242B
S3065000095274DA
S30650000953034A
S306500009542329
S306500009552625
S3065000095694B6
S306500009570247
S306500009582325
S30650000959281F
S3065000095A54F2
S3065000095B0342
S3065000095C63E1
S3065000095D8CB7
S3065000095E0939
S3065000095F0041
S3065000096083BD
S30650000961A798
S306500009620935
S30650000963003D
S3065000096483B9
S30650000965A992
S3065000096649F1
S306500009670039
S306500009682315
S306500009692A0D
S3065000096AF442
S3065000096B0233
S3065000096C2311
S3065000096D2C07
S3065000096E34FE
S3065000096F032E
S306500009706FC1
S30650000971002F
S30650000972C06E
S30650000973002D
S306500009742309
S306500009752A01
S306500009760426
S306500009770227
S306500009782305
S306500009792CFB
S3065000097A0422
S3065000097B0223
S3065000097C63C1
S3065000097D8C97
S3065000097E041E
S3065000097F0021
S30650000980839D
S30650000981A778
S30650000982041A
S30650000983001D
S306500009848399
S30650000985A477
S3065000098644D6
S306500009870019
S3065000098823F5
S306500009892EE9
S3065000098AF422
S3065000098B0213
S3065000098C23F1
S3065000098D20F3
S3065000098E947E
S3065000098F040D
S306500009906FA1
S30650000991000F
S30650000992C04E
S30650000993000D
S3065000099423E9
S306500009952EDD
S306500009960406
S306500009970207
S3065000099823E5
S3065000099920E7
S3065000099A0402
S3065000099B0401
S3065000099C63A1
S3065000099D966D
S3065000099E0BF7
S3065000099F0001
S306500009A0639D
S306500009A18679
S306500009A20AF4
S306500009A330CD
S306500009A46F8D
S306500009A500FB
S306500009A640BA
S306500009A72DCC
S306500009A803F5
S306500009A927D0
S306500009AA0AEC
S306500009AB00F5
S306500009AC23D1
S306500009AD24CF
S306500009AE01F1
S306500009AF00F1
S306500009B003ED
S306500009B127C8
S306500009B28767
S306500009B300ED
S306500009B48369
S306500009B526C5
S306500009B607E3
S306500009B700E9
S306500009B823C5
S306500009B926C1
S306500009BA01E5
S306500009BB00E5
S306500009BC8361
S306500009BD27BC
S306500009BE8A58
S306500009BF00E1
S306500009C023BD
S306500009C128B7
S306500009C201DD
S306500009C300DD
S306500009C413C9
S306500009C508D3
S306500009C6706A
S306500009C700D9
S306500009C823B5
S306500009C92AAD
S306500009CA01D5
S306500009CB00D5
S306500009CC9341
S306500009CD08CB
S306500009CE8052
S306500009CF00D1
S306500009D023AD
S306500009D124AB
S306500009D201CD
S306500009D302CB
S306500009D413B9
S306500009D503C8
S306500009D610BA
S306500009D700C9
S306500009D823A5
S306500009D926A1
S306500009DA01C5
S306500009DB02C3
S306500009DC03C1
S306500009DDA61D
S306500009DE873B
S306500009DF03BE
S306500009E0635D
S306500009E102BD
S306500009E206B8
S306500009E30CB1
S306500009E403B9
S306500009E52794
S306500009E64179
S306500009E701B8
S306500009E86355
S306500009E94E69
S306500009EAE8CE
S306500009EB0AAB
S306500009EC03B1
S306500009ED278C
S306500009EE4171
S306500009EF01B0
S306500009F0337D
S306500009F107A8
S306500009F2C7E7
S306500009F300AD
S306500009F46349
S306500009F5E8C3
S306500009F6E8C2
S306500009F70A9F
S306500009F86345
S306500009F97631
S306500009FAC3E3
S306500009FB04A1
S306500009FC1391
S306500009FD059E
S306500009FE069C
S306500009FF00A1
S30650000A00930C
S30650000A010599
S30650000A020697
S30650000A03009C
S30650000A04FBA0
S30650000A05C0DA
S30650000A066534
S30650000A070197
S30650000A080394
S30650000A09AEE8
S30650000A0A474E
S30650000A0B0391
S30650000A0C9300
S30650000A0D0E84
S30650000A0E1E73
S30650000A0F0090
S30650000A10038C
S30650000A112767
S30650000A12414C
S30650000A13018B
S30650000A143358
S30650000A150783
S30650000A16A7E2
S30650000A170088
S30650000A182364
S30650000A19AADC
S30650000A1AD7AE
S30650000A1B0381
S30650000A1C1370
S30650000A1D077B
S30650000A1EF78A
S30650000A1FFF81
S30650000A20037C
S30650000A214E30
S30650000A220E6F
S30650000A23007C
S30650000A2493E8
S30650000A250E6C
S30650000A260178
S30650000A270375
S30650000A283344
S30650000A2987EF
S30650000A2AEE87
S30650000A2B0074
S30650000A2C2350
S30650000A2D0C66
S30650000A2EC7AA
S30650000A2FFF71
S30650000A30135C
S30650000A310569
S30650000A32F578
S30650000A33FF6D
S30650000A340368
S30650000A352743
S30650000A364128
S30650000A370167
S30650000A383334
S30650000A390660
S30650000A3AC79E
S30650000A3B0064
S30650000A3C2340
S30650000A3D2A38
S30650000A3EC1A0
S30650000A3F0060
S30650000A406FF0
S30650000A41005E
S30650000A4280DD
S30650000A43025A
S30650000A440358
S30650000A45A6B4
S30650000A464712
S30650000A470355
S30650000A480354
S30650000A49272F
S30650000A4A4114
S30650000A4B0153
S30650000A4C1340
S30650000A4D054D
S30650000A4E0150
S30650000A4F034D
S30650000A50034C
S30650000A514608
S30650000A520647
S30650000A53004C
S30650000A543318
S30650000A550743
S30650000A56E564
S30650000A570048
S30650000A582324
S30650000A590C3A
S30650000A5AC77E
S30650000A5BFE46
S30650000A5C0340
S30650000A5D271B
S30650000A5E4100
S30650000A5F013F
S30650000A60132C
S30650000A610737
S30650000A621726
S30650000A63003C
S30650000A642318
S30650000A652A10
S30650000A66E158
S30650000A670038
S30650000A680334
S30650000A69A78F
S30650000A6A47EE
S30650000A6B0232
S30650000A6C1320
S30650000A6D062C
S30650000A6E87AA
S30650000A6F0030
S30650000A70230C
S30650000A71A28C
S30650000A72C766
S30650000A73022A
S30650000A740328
S30650000A75A684
S30650000A7687A2
S30650000A770226
S30650000A781314
S30650000A790620
S30650000A7AF62F
S30650000A7BFF25
S30650000A7C2300
S30650000A7DAC76
S30650000A7E071A
S30650000A7F021E
S30650000A8023FC
S30650000A81A47A
S30650000A82C756
S30650000A83021A
S30650000A8463B8
S30650000A850C0E
S30650000A860613
S30650000A870018
S30650000A880314
S30650000A8926F0
S30650000A8A878E
S30650000A8B0014
S30650000A8C0310
S30650000A8D27EB
S30650000A8EC74A
S30650000A8F0010
S30650000A9023EC
S30650000A91AA64
S30650000A92C746
S30650000A93020A
S30650000A9423E8
S30650000A95AC5E
S30650000A96E722
S30650000A970206
S30650000A986F98
S30650000A99F016
S30650000A9A5FA6
S30650000A9BF410
S30650000A9C23E0
S30650000A9DAA58
S30650000A9E07FA
S30650000A9F02FE
S30650000AA06F90
S30650000AA1F00E
S30650000AA2DF1E
S30650000AA3F309
S30650000AA48378
S30650000AA548B2
S30650000AA68178
S30650000AA702F6
S30650000AA803F4
S30650000AA945B1
S30650000AAA9164
S30650000AAB02F2
S30650000AAC8370
S30650000AAD45AD
S30650000AAEA150
S30650000AAF02EE
S30650000AB003EC
S30650000AB147A7
S30650000AB2B13C
S30650000AB302EA
S30650000AB413D8
S30650000AB57575
S30650000AB6F5F4
S30650000AB70FD9
S30650000AB813D4
S30650000AB9786E
S30650000ABAF7EE
S30650000ABB0FD5
S30650000ABC13D0
S30650000ABD15CD
S30650000ABE05DC
S30650000ABF01DF
S30650000AC013CC
S30650000AC19747
S30650000AC28855
S30650000AC301DB
S30650000AC433A8
S30650000AC56773
S30650000AC6A732
S30650000AC700D8
S30650000AC89344
S30650000AC9F5E1
S30650000ACAF5E0
S30650000ACB0FC5
S30650000ACC33A0
S30650000ACD676B
S30650000ACE07CA
S30650000ACF01CF
S30650000AD0933C
S30650000AD19539
S30650000AD28548
S30650000AD300CC
S30650000AD43398
S30650000AD56763
S30650000AD6B712
S30650000AD700C8
S30650000AD823A4
S30650000AD9A422
S30650000ADAE6DF
S30650000ADB00C4
S30650000ADC8340
S30650000ADD487A
S30650000ADEC100
S30650000ADF02BE
S30650000AE003BC
S30650000AE14777
S30650000AE2D1EC
S30650000AE302BA
S30650000AE403B8
S30650000AE54575
S30650000AE6E1D8
S30650000AE702B6
S30650000AE88334
S30650000AE94571
S30650000AEAF1C4
S30650000AEB02B2
S30650000AEC13A0
S30650000AED773B
S30650000AEEF7BA
S30650000AEF0FA1
S30650000AF0139C
S30650000AF1F8B6
S30650000AF2F5B8
S30650000AF30F9D
S30650000AF41398
S30650000AF51793
S30650000AF607A2
S30650000AF701A7
S30650000AF89314
S30650000AF99511
S30650000AFA881D
S30650000AFB01A3
S30650000AFCB3F0
S30650000AFDE5BD
S30650000AFEE5BC
S30650000AFF00A0
S30650000B00138B
S30650000B017528
S30650000B02F5A7
S30650000B030F8C
S30650000B04B3E7
S30650000B05E5B4
S30650000B060593
S30650000B070196
S30650000B081383
S30650000B091580
S30650000B0A850F
S30650000B0B0093
S30650000B0CB3DF
S30650000B0DE5AC
S30650000B0EA5EB
S30650000B0F008F
S30650000B10236B
S30650000B11A6E7
S30650000B12B6D6
S30650000B13008B
S30650000B148307
S30650000B152564
S30650000B164147
S30650000B170186
S30650000B181373
S30650000B19077E
S30650000B1A4044
S30650000B1B0083
S30650000B1C631F
S30650000B1D4A37
S30650000B1EB7C9
S30650000B1F007F
S30650000B20037B
S30650000B212756
S30650000B22413B
S30650000B23017A
S30650000B241367
S30650000B251762
S30650000B263741
S30650000B270077
S30650000B282353
S30650000B29A8CD
S30650000B2AE68E
S30650000B2B0073
S30650000B2C6F03
S30650000B2D0071
S30650000B2E4030
S30650000B2F026D
S30650000B3083EB
S30650000B312548
S30650000B32412B
S30650000B33016A
S30650000B3493D7
S30650000B3585E4
S30650000B36C5A3
S30650000B37FF68
S30650000B381353
S30650000B3997CE
S30650000B3AB5AF
S30650000B3B0063
S30650000B3CB7AB
S30650000B3D451C
S30650000B3E0060
S30650000B3F005F
S30650000B4093CB
S30650000B4185D8
S30650000B420557
S30650000B43F06B
S30650000B44B3A7
S30650000B4575E4
S30650000B46B7A1
S30650000B470057
S30650000B48B3A3
S30650000B49C590
S30650000B4A55FF
S30650000B4BC093
S30650000B4C232F
S30650000B4DA8A9
S30650000B4EB69A
S30650000B4F004F
S30650000B50232B
S30650000B51AAA3
S30650000B520646
S30650000B53004B
S30650000B5463E7
S30650000B551237
S30650000B560642
S30650000B570245
S30650000B580343
S30650000B59A79E
S30650000B5A073D
S30650000B5B043F
S30650000B5C63DF
S30650000B5D1E23
S30650000B5E0739
S30650000B5F003F
S30650000B6093AB
S30650000B610736
S30650000B62201C
S30650000B63102B
S30650000B642317
S30650000B65A099
S30650000B66F642
S30650000B670037
S30650000B6883B3
S30650000B69A78E
S30650000B6A062E
S30650000B6B0033
S30650000B6CB37F
S30650000B6DB77A
S30650000B6E0729
S30650000B6FDF50
S30650000B70E34B
S30650000B71BC71
S30650000B721715
S30650000B73FE2D
S30650000B746FBB
S30650000B75F039
S30650000B76DF49
S30650000B77E245
S30650000B789393
S30650000B790520
S30650000B7A2004
S30650000B7B1013
S30650000B7C130F
S30650000B7D051C
S30650000B7E70B0
S30650000B7F001F
S30650000B80031B
S30650000B81A776
S30650000B828795
S30650000B830318
S30650000B84E337
S30650000B850E0B
S30650000B860711
S30650000B87E037
S30650000B880313
S30650000B89A66F
S30650000B8A060E
S30650000B8B0112
S30650000B8C13FF
S30650000B8D17FA
S30650000B8E37D9
S30650000B8F000F
S30650000B9023EB
S30650000B9124E9
S30650000B92C14B
S30650000B93000B
S30650000B9423E7
S30650000B9526E3
S30650000B96E127
S30650000B970007
S30650000B980303
S30650000B9926DF
S30650000B9AC143
S30650000B9B0003
S30650000B9C03FF
S30650000B9D27DA
S30650000B9E817F
S30650000B9F00FF
S30650000BA013EB
S30650000BA116E7
S30650000BA206F6
S30650000BA301FA
S30650000BA433C7
S30650000BA537C2
S30650000BA607F1
S30650000BA7DF18
S30650000BA833C3
S30650000BA9678E
S30650000BAAE60E
S30650000BAB00F3
S30650000BAC23CF
S30650000BADA849
S30650000BAEE60A
S30650000BAF00EF
S30650000BB003EB
S30650000BB127C6
S30650000BB2C12B
S30650000BB300EB
S30650000BB413D7
S30650000BB55792
S30650000BB65791
S30650000BB740A7
S30650000BB833B3
S30650000BB937AE
S30650000BBAB72D
S30650000BBBE8FB
S30650000BBC23BF
S30650000BBD28B9
S30650000BBEE1FF
S30650000BBF00DF
S30650000BC003DB
S30650000BC127B6
S30650000BC2C11B
S30650000BC300DB
S30650000BC433A7
S30650000BC537A2
S30650000BC65781
S30650000BC7F4E3
S30650000BC86373
S30650000BC908CD
S30650000BCA07CD
S30650000BCB00D3
S30650000BCC03CF
S30650000BCD27AA
S30650000BCE01CF
S30650000BCF01CE
S30650000BD013BB
S30650000BD107C6
S30650000BD217B5
S30650000BD300CB
S30650000BD423A7
S30650000BD528A1
S30650000BD6E1E7
S30650000BD700C7
S30650000BD803C3
S30650000BD9A81D
S30650000BDA477D
S30650000BDB03C0
S30650000BDC239F
S30650000BDDA021
S30650000BDEB60A
S30650000BDF00BF
S30650000BE0239B
S30650000BE12A93
S30650000BE201BB
S30650000BE300BB
S30650000BE413A7
S30650000BE507B2
S30650000BE601B7
S30650000BE703B4
S30650000BE803B3
S30650000BE9268F
S30650000BEA4173
S30650000BEB01B2
S30650000BEC03AF
S30650000BED278A
S30650000BEE07A9
S30650000BEFFEB1
S30650000BF0634B
S30650000BF15855
S30650000BF2E6C6
S30650000BF302A9
S30650000BF403A7
S30650000BF5A702
S30650000BF606A2
S30650000BF700A7
S30650000BF81393
S30650000BF9574E
S30650000BFA871D
S30650000BFB01A2
S30650000BFCE3BF
S30650000BFD6C35
S30650000BFEE5BB
S30650000BFFFEA1
S30650000C00039A
S30650000C012775
S30650000C02415A
S30650000C030199
S30650000C041386
S30650000C051781
S30650000C062770
S30650000C070096
S30650000C080392
S30650000C09771D
S30650000C0AE8AB
S30650000C0B2072
S30650000C0C236E
S30650000C0DACE4
S30650000C0EE6A9
S30650000C0F008E
S30650000C10038A
S30650000C112765
S30650000C12414A
S30650000C130189
S30650000C141376
S30650000C150781
S30650000C161770
S30650000C170086
S30650000C182362
S30650000C192A5A
S30650000C1AE1A2
S30650000C1B0082
S30650000C1C6F12
S30650000C1DF090
S30650000C1E9FE0
S30650000C1FFC82
S30650000C20037A
S30650000C21A7D5
S30650000C220675
S30650000C23007A
S30650000C243346
S30650000C253741
S30650000C260770
S30650000C27DF97
S30650000C28E392
S30650000C293C38
S30650000C2A175C
S30650000C2BFE74
S30650000C2C036E
S30650000C2DA7C9
S30650000C2E4728
S30650000C2F026C
S30650000C30135A
S30650000C310666
S30650000C3287E4
S30650000C33006A
S30650000C342346
S30650000C35A4C4
S30650000C360661
S30650000C370066
S30650000C382342
S30650000C39A6BE
S30650000C3A065D
S30650000C3B0062
S30650000C3C233E
S30650000C3DA8B8
S30650000C3E0659
S30650000C3F005E
S30650000C40233A
S30650000C41AAB2
S30650000C420655
S30650000C43005A
S30650000C442336
S30650000C45A2B6
S30650000C46C790
S30650000C470254
S30650000C480352
S30650000C49A6AE
S30650000C4A87CC
S30650000C4B0250
S30650000C4C133E
S30650000C4D064A
S30650000C4EF659
S30650000C4FFF4F
S30650000C50232A
S30650000C51ACA0
S30650000C520744
S30650000C530248
S30650000C542326
S30650000C55A4A4
S30650000C56C780
S30650000C570244
S30650000C5863E2
S30650000C590C38
S30650000C5A063D
S30650000C5B0042
S30650000C5C033E
S30650000C5D261A
S30650000C5E87B8
S30650000C5F003E
S30650000C60033A
S30650000C612715
S30650000C62C774
S30650000C63003A
S30650000C642316
S30650000C65AA8E
S30650000C66C770
S30650000C670234
S30650000C682312
S30650000C69AC88
S30650000C6AE74C
S30650000C6B0230
S30650000C6C6FC2
S30650000C6DF040
S30650000C6E5FD0
S30650000C6FF13D
S30650000C70230A
S30650000C71AA82
S30650000C720724
S30650000C730228
S30650000C746FBA
S30650000C75F038
S30650000C76DF48
S30650000C77F036
S30650000C780322
S30650000C7927FD
S30650000C7A0A19
S30650000C7B0022
S30650000C7C23FE
S30650000C7D2CF4
S30650000C7E011E
S30650000C7F001E
S30650000C80031A
S30650000C8127F5
S30650000C828794
S30650000C83001A
S30650000C840316
S30650000C8527F1
S30650000C860710
S30650000C870016
S30650000C8823F2
S30650000C892EE6
S30650000C8A0112
S30650000C8B0012
S30650000C8C23EE
S30650000C8D20F0
S30650000C8E010E
S30650000C8F020C
S30650000C9023EA
S30650000C9122EA
S30650000C92010A
S30650000C930208
S30650000C948386
S30650000C9526E2
S30650000C960700
S30650000C970105
S30650000C988382
S30650000C9927DD
S30650000C9A8A79
S30650000C9B0002
S30650000C9C23DE
S30650000C9D2CD4
S30650000C9ED12E
S30650000C9F00FE
S30650000CA0936A
S30650000CA105F7
S30650000CA210EB
S30650000CA310EA
S30650000CA48376
S30650000CA5A652
S30650000CA607F0
S30650000CA704F2
S30650000CA86392
S30650000CA99460
S30650000CAA06ED
S30650000CAB02F0
S30650000CAC13DE
S30650000CAD05EB
S30650000CAE44AB
S30650000CAF01ED
S30650000CB0EFFE
S30650000CB110DC
S30650000CB2C02B
S30650000CB37E6C
S30650000CB48366
S30650000CB527C1
S30650000CB604E3
S30650000CB700E6
S30650000CB88362
S30650000CB9D70D
S30650000CBA875C
S30650000CBB00E2
S30650000CBC13CE
S30650000CBD9848
S30650000CBE17C8
S30650000CBF01DD
S30650000CC0637A
S30650000CC14C90
S30650000CC208D3
S30650000CC30ECC
S30650000CC413C6
S30650000CC505D3
S30650000CC609CE
S30650000CC700D6
S30650000CC8EFE6
S30650000CC910C4
S30650000CCA4093
S30650000CCB7D55
S30650000CCC6F62
S30650000CCD00D0
S30650000CCEC00F
S30650000CCF0EC0
S30650000CD0933A
S30650000CD19636
S30650000CD23695
S30650000CD300CA
S30650000CD423A6
S30650000CD52E9A
S30650000CD6D1F6
S30650000CD700C6
S30650000CD803C2
S30650000CD9269E
S30650000CDAC102
S30650000CDB01C1
S30650000CDC833E
S30650000CDD269A
S30650000CDE813E
S30650000CDF01BD
S30650000CE013AA
S30650000CE116A6
S30650000CE206B5
S30650000CE301B9
S30650000CE4B306
S30650000CE5B602
S30650000CE606B1
S30650000CE7DFD7
S30650000CE8B302
S30650000CE9664E
S30650000CEAD6DD
S30650000CEB00B2
S30650000CEC238E
S30650000CED2888
S30650000CEED7D8
S30650000CEF00AE
S30650000CF0832A
S30650000CF12686
S30650000CF2C1EA
S30650000CF301A9
S30650000CF49316
S30650000CF5D6D2
S30650000CF65651
S30650000CF74066
S30650000CF8B3F2
S30650000CF9B6EE
S30650000CFAB6ED
S30650000CFBE8BA
S30650000CFC237E
S30650000CFD2080
S30650000CFED1CE
S30650000CFF029C
S30650000D008319
S30650000D012675
S30650000D02C1D9
S30650000D030198
S30650000D04B3E5
S30650000D05B6E1
S30650000D065640
S30650000D07F4A1
S30650000D086331
S30650000D09880B
S30650000D0A068C
S30650000D0B0091
S30650000D0C830D
S30650000D0D2669
S30650000D0E018D
S30650000D0F028B
S30650000D1093F9
S30650000D118605
S30650000D121674
S30650000D130089
S30650000D142365
S30650000D152067
S30650000D16D1B5
S30650000D170283
S30650000D180381
S30650000D19A5DE
S30650000D1AC7BB
S30650000D1B037E
S30650000D1C235D
S30650000D1D205F
S30650000D1EB7C7
S30650000D1F007D
S30650000D202359
S30650000D212259
S30650000D220179
S30650000D230277
S30650000D240375
S30650000D252651
S30650000D264135
S30650000D270273
S30650000D2883F1
S30650000D29264D
S30650000D2A0171
S30650000D2B026F
S30650000D2C630D
S30650000D2D5A15
S30650000D2ED698
S30650000D2F026B
S30650000D3083E9
S30650000D312645
S30650000D320763
S30650000D330069
S30650000D3493D5
S30650000D35D691
S30650000D360660
S30650000D374124
S30650000D38B3B1
S30650000D39B6AD
S30650000D3A86DC
S30650000D3BEE73
S30650000D3CE37D
S30650000D3D8AD5
S30650000D3E0658
S30650000D3FFE5F
S30650000D4083D9
S30650000D412635
S30650000D424119
S30650000D430257
S30650000D4493C5
S30650000D4596C1
S30650000D462630
S30650000D470055
S30650000D480351
S30650000D49262D
S30650000D4A074B
S30650000D4B024F
S30650000D4CA3AD
S30650000D4D66E9
S30650000D4EC589
S30650000D4F004D
S30650000D5083C9
S30650000D512625
S30650000D524109
S30650000D530247
S30650000D5493B5
S30650000D5586C1
S30650000D561630
S30650000D570045
S30650000D582321
S30650000D592221
S30650000D5AD171
S30650000D5B023F
S30650000D5C6FD1
S30650000D5DF04F
S30650000D5E9F9F
S30650000D5FFC41
S30650000D6083B9
S30650000D612615
S30650000D620733
S30650000D630039
S30650000D64B385
S30650000D65B681
S30650000D660630
S30650000D67DF56
S30650000D68E351
S30650000D69BC77
S30650000D6A161C
S30650000D6BFE33
S30650000D6C83AD
S30650000D6DA689
S30650000D6EC767
S30650000D6F022B
S30650000D701319
S30650000D7186A5
S30650000D7286A4
S30650000D730029
S30650000D742305
S30650000D752403
S30650000D76071F
S30650000D770025
S30650000D782301
S30650000D7926FD
S30650000D7A071B
S30650000D7B0021
S30650000D7C23FD
S30650000D7D28F7
S30650000D7E0717
S30650000D7F001D
S30650000D8023F9
S30650000D812AF1
S30650000D820713
S30650000D830019
S30650000D8423F5
S30650000D85A671
S30650000D86C74F
S30650000D870213
S30650000D880311
S30650000D89A66D
S30650000D8A070B
S30650000D8B030E
S30650000D8C13FD
S30650000D8D0609
S30650000D8EF618
S30650000D8FFF0E
S30650000D9023E9
S30650000D91A06B
S30650000D920703
S30650000D930405
S30650000D9423E5
S30650000D95A85F
S30650000D96C73F
S30650000D970203
S30650000D9863A1
S30650000D990CF7
S30650000D9A06FC
S30650000D9B0001
S30650000D9C03FD
S30650000D9DA659
S30650000D9E8678
S30650000D9F00FD
S30650000DA08379
S30650000DA1A655
S30650000DA2C634
S30650000DA300F9
S30650000DA423D5
S30650000DA5AE49
S30650000DA6C72F
S30650000DA702F3
S30650000DA823D1
S30650000DA9A053
S30650000DAAD71B
S30650000DAB04ED
S30650000DAC6F81
S30650000DADF0FF
S30650000DAE9F4F
S30650000DAFEFFE
S30650000DB023C9
S30650000DB1AE3D
S30650000DB207E3
S30650000DB302E7
S30650000DB46F79
S30650000DB5F0F7
S30650000DB61FC7
S30650000DB7EFF6
S30650000DB88361
S30650000DB920C3
S30650000DBAC121
S30650000DBB05DC
S30650000DBC13CD
S30650000DBD05DA
S30650000DBE00DE
S30650000DBF00DD
S30650000DC003D9
S30650000DC124B7
S30650000DC28159
S30650000DC305D4
S30650000DC48355
S30650000DC524B3
S30650000DC64195
S30650000DC705D0
S30650000DC803D1
S30650000DC929AA
S30650000DCA01D1
S30650000DCB05CC
S30650000DCC834D
S30650000DCD29A6
S30650000DCEC10D
S30650000DCF04C9
S30650000DD003C9
S30650000DD12AA1
S30650000DD28149
S30650000DD304C5
S30650000DD48345
S30650000DD52A9D
S30650000DD64185
S30650000DD704C1
S30650000DD803C1
S30650000DD92B98
S30650000DDA01C1
S30650000DDB04BD
S30650000DDC833D
S30650000DDD2B94
S30650000DDEC1FD
S30650000DDF03BA
S30650000DE013A9
S30650000DE101BA
S30650000DE201B9
S30650000DE306B3
S30650000DE46751
S30650000DE58037
S30650000DE600B6
S30650000DE700B5
S30650000DE803B1
S30650000DE9258E
S30650000DEA852D
S30650000DEB00B1
S30650000DEC832D
S30650000DED2788
S30650000DEEC5E9
S30650000DEF00AD
S30650000DF06349
S30650000DF19219
S30650000DF207A3
S30650000DF302A7
S30650000DF41395
S30650000DF501A6
S30650000DF601A5
S30650000DF7FFA6
S30650000DF81391
S30650000DF9059E
S30650000DFA455D
S30650000DFB00A1
S30650000DFC237D
S30650000DFD2679
S30650000DFE118D
S30650000DFF009D
S30650000E00EFAC
S30650000E01108A
S30650000E02C0D9
S30650000E03692F
S30650000E048314
S30650000E052076
S30650000E06C1D4
S30650000E070094
S30650000E081380
S30650000E09058D
S30650000E0A0091
S30650000E0B0090
S30650000E0C137C
S30650000E0D018D
S30650000E0E018C
S30650000E0F018B
S30650000E106724
S30650000E11800A
S30650000E120089
S30650000E130088
S30650000E141374
S30650000E150581
S30650000E160085
S30650000E170084
S30650000E18671C
S30650000E198002
S30650000E1A0081
S30650000E1B0080
S30650000E1C83FC
S30650000E1D2757
S30650000E1E0578
S30650000E1F007C
S30650000E201368
S30650000E210179
S30650000E220178
S30650000E23FF79
S30650000E2483F4
S30650000E25A7CF
S30650000E2687EE
S30650000E270074
S30650000E282350
S30650000E292250
S30650000E2A91E0
S30650000E2B0070
S30650000E2C83EC
S30650000E2DA4CA
S30650000E2E0766
S30650000E2F006C
S30650000E3083E8
S30650000E312743
S30650000E3285E4
S30650000E330068
S30650000E342344
S30650000E352442
S30650000E3681E4
S30650000E370064
S30650000E380360
S30650000E39A4BE
S30650000E3A075A
S30650000E3B0060
S30650000E3C233C
S30650000E3D2638
S30650000E3E114C
S30650000E3F005C
S30650000E402338
S30650000E41203A
S30650000E422138
S30650000E430157
S30650000E4483D4
S30650000E45A4B2
S30650000E4684D1
S30650000E470153
S30650000E4863F0
S30650000E49084A
S30650000E4A044D
S30650000E4B024E
S30650000E4C133C
S30650000E4D0945
S30650000E4E0548
S30650000E4F004C
S30650000E5083C8
S30650000E512723
S30650000E5284C5
S30650000E530048
S30650000E54B394
S30650000E55F74F
S30650000E56F451
S30650000E570044
S30650000E5863E0
S30650000E598CB6
S30650000E5A073A
S30650000E5B0040
S30650000E5C83BC
S30650000E5D2717
S30650000E5E44F9
S30650000E5F003C
S30650000E601328
S30650000E6186B4
S30650000E620435
S30650000E630038
S30650000E6493A4
S30650000E650531
S30650000E660431
S30650000E670034
S30650000E681320
S30650000E69052D
S30650000E6A0928
S30650000E6B0030
S30650000E6CE748
S30650000E6D80AE
S30650000E6E0726
S30650000E6F002C
S30650000E700328
S30650000E712406
S30650000E720425
S30650000E730028
S30650000E74E344
S30650000E751E08
S30650000E760421
S30650000E77FC28
S30650000E7883A0
S30650000E792002
S30650000E7AC160
S30650000E7B0020
S30650000E7C031C
S30650000E7D24FA
S30650000E7E819C
S30650000E7F001C
S30650000E808398
S30650000E8124F6
S30650000E8241D8
S30650000E830018
S30650000E840314
S30650000E8529ED
S30650000E860114
S30650000E870014
S30650000E881300
S30650000E890111
S30650000E8A0110
S30650000E8B010F
S30650000E8C67A8
S30650000E8D808E
S30650000E8E000D
S30650000E8F000C
S30650000E908388
S30650000E9127E3
S30650000E920504
S30650000E930008
S30650000E948384
S30650000E95A75F
S30650000E96877E
S30650000E970004
S30650000E988380
S30650000E99A75B
S30650000E9A07FA
S30650000E9B0000
S30650000E9C639C
S30650000E9D8678
S30650000E9E05F8
S30650000E9F00FC
S30650000EA013E8
S30650000EA105F5
S30650000EA2D029
S30650000EA3FDFB
S30650000EA46790
S30650000EA58076
S30650000EA600F5
S30650000EA700F4
S30650000EA813E0
S30650000EA907EB
S30650000EAAF001
S30650000EAB01EF
S30650000EAC638C
S30650000EAD7678
S30650000EAEC726
S30650000EAF00EC
S30650000EB013D8
S30650000EB105E5
