S00D00007A65706879722E73313945
S306500000001396
S3065000000100A8
S3065000000200A7
S3065000000300A6
S306500000041392
S3065000000500A4
S3065000000600A3
S3065000000700A2
S30650000008138E
S3065000000900A0
S3065000000A009F
S3065000000B009E
S3065000000C138A
S3065000000D009C
S3065000000E009B
S3065000000F009A
S306500000101386
S306500000110098
S306500000120097
S306500000130096
S306500000141382
S306500000150094
S306500000160093
S306500000170092
S30650000018137E
S306500000190090
S3065000001A008F
S3065000001B008E
S3065000001C137A
S3065000001D008C
S3065000001E008B
S3065000001F008A
S306500000201376
S306500000210088
S306500000220087
S306500000230086
S306500000241372
S306500000250084
S306500000260083
S306500000270082
S30650000028136E
S306500000290080
S3065000002A007F
S3065000002B007E
S3065000002C136A
S3065000002D007C
S3065000002E007B
S3065000002F007A
S306500000301366
S306500000310078
S306500000320077
S306500000330076
S306500000341362
S306500000350074
S306500000360073
S306500000370072
S30650000038135E
S306500000390070
S3065000003A006F
S3065000003B006E
S3065000003C6FFE
S3065000003D006C
S3065000003E80EB
S3065000003F0565
S306500000406FFA
S306500000410068
S306500000424027
S306500000430561
S306500000446FF6
S306500000450064
S306500000460063
S30650000047055D
S306500000486FF2
S306500000490060
S3065000004AC09F
S3065000004B045A
S3065000004C6FEE
S3065000004D005C
S3065000004E80DB
S3065000004F0456
S306500000506FEA
S306500000510058
S306500000524017
S306500000530452
S306500000546FE6
S306500000550054
S306500000560053
S30650000057044E
S306500000586FE2
S306500000590050
S3065000005AC08F
S3065000005B034B
S3065000005C6FDE
S3065000005D004C
S3065000005E80CB
S3065000005F0347
S306500000606FDA
S306500000610048
S306500000624007
S306500000630343
S306500000646FD6
S306500000650044
S306500000660043
S30650000067033F
S306500000686FD2
S306500000690040
S3065000006AC07F
S3065000006B023C
S3065000006C6FCE
S3065000006D003C
S3065000006E80BB
S3065000006F0238
S306500000706FCA
S306500000710038
S3065000007240F7
S306500000730234
S306500000746FC6
S306500000750034
S306500000760033
S306500000770230
S306500000786FC2
S306500000790030
S3065000007AC06F
S3065000007B012D
S3065000007C6FBE
S3065000007D002C
S3065000007E80AB
S3065000007F0129
S306500000806FBA
S306500000810028
S306500000820027
S306500000830125
S306500000846FB6
S306500000850024
S306500000860023
S306500000870121
S306500000886FB2
S306500000890020
S3065000008AC05F
S3065000008B001E
S3065000008C6FAE
S3065000008D001C
S3065000008E809B
S3065000008F001A
S30650000090EF2A
S306500000911008
S3065000009250C7
S306500000930412
S306500000941302
S306500000950113
S306500000960112
S30650000097F919
S3065000009823EE
S3065000009920F0
S3065000009A11FE
S3065000009B000E
S3065000009C23EA
S3065000009D22EA
S3065000009E31DA
S3065000009F000A
S306500000A023E6
S306500000A124E4
S306500000A241C6
S306500000A30006
S306500000A423E2
S306500000A526DE
S306500000A651B2
S306500000A70002
S306500000A823DE
S306500000A928D8
S306500000AA619E
S306500000AB00FE
S306500000AC23DA
S306500000AD2AD2
S306500000AE718A
S306500000AF00FA
S306500000B023D6
S306500000B12CCC
S306500000B2C136
S306500000B301F5
S306500000B423D2
S306500000B52EC6
S306500000B6D122
S306500000B701F1
S306500000B823CE
S306500000B920D0
S306500000BAE10E
S306500000BB03EB
S306500000BC23CA
S306500000BD22CA
S306500000BEF1FA
S306500000BF03E7
S306500000C023C6
S306500000C124C4
S306500000C2A146
S306500000C302E4
S306500000C423C2
S306500000C526BE
S306500000C6B132
S306500000C702E0
S306500000C823BE
S306500000C928B8
S306500000CAC11E
S306500000CB02DC
S306500000CC23BA
S306500000CD2AB2
S306500000CED10A
S306500000CF02D8
S306500000D023B6
S306500000D12CAC
S306500000D2E1F6
S306500000D302D4
S306500000D423B2
S306500000D52EA6
S306500000D6F1E2
S306500000D702D0
S306500000D823AE
S306500000D920B0
S306500000DA01CE
S306500000DB05C9
S306500000DC23AA
S306500000DD22AA
S306500000DE11BA
S306500000DF05C5
S306500000E0F3D6
S306500000E122A6
S306500000E210B7
S306500000E33492
S306500000E423A2
S306500000E524A0
S306500000E65172
S306500000E704BE
S306500000E8F3CE
S306500000E9229E
S306500000EA00BF
S306500000EB7C42
S306500000EC239A
S306500000ED2696
S306500000EE516A
S306500000EF04B6
S306500000F0EFCA
S306500000F100B8
S306500000F28037
S306500000F31C9A
S306500000F4EFC6
S306500000F500B4
S306500000F600B3
S306500000F7258D
S306500000F8139E
S306500000F903AD
S306500000FA00AF
S306500000FB00AE
S306500000FC634A
S306500000FD1A92
S306500000FE05A6
S306500000FF02A8
S306500001008325
S306500001012285
S306500001028125
S3065000010304A1
S306500001049311
S306500001058221
S306500001064260
S3065000010700A1
S30650000108237D
S30650000109247B
S3065000010A514D
S3065000010B0499
S3065000010CF3A9
S3065000010D2279
S3065000010E207A
S3065000010F3465
S306500001109305
S306500001110394
S30650000112F0A6
S306500001130194
S30650000114B3E1
S30650000115F2A1
S306500001167220
S306500001170091
S30650000118137D
S30650000119038C
S3065000011AB0DE
S3065000011B008D
S3065000011C6329
S3065000011D8407
S3065000011E6228
S3065000011F0A7F
S306500001201375
S306500001210582
S306500001220185
S306500001230085
S3065000012497ED
S306500001250083
S306500001260082
S306500001270081
S3065000012893ED
S3065000012980FF
S3065000012A007E
S3065000012B136A
S3065000012C6F0D
S3065000012D106B
S3065000012ED0AA
S3065000012F1564
S3065000013093E5
S306500001310275
S306500001320175
S306500001330075
S3065000013497DD
S306500001351360
S306500001360072
S306500001370170
S3065000013893DD
S3065000013983EC
S3065000013A83EB
S3065000013B9ECF
S3065000013C0369
S3065000013DA1CA
S3065000013E4327
S3065000013F0069
S306500001401355
S306500001410166
S306500001420165
S30650000143FF66
S306500001442341
S306500001452043
S306500001465111
S306500001470061
S30650000148035D
S30650000149AEB1
S3065000014A035B
S3065000014B005D
S3065000014C1349
S3065000014D0E4D
S3065000014E1E3C
S3065000014F0059
S306500001502335
S30650000151A0B7
S30650000152C393
S306500001530154
S3065000015463F1
S30650000155084B
S30650000156034F
S306500001570051
S3065000015897B9
S30650000159004F
S3065000015A004E
S3065000015B004D
S3065000015C93B9
S3065000015D80CB
S3065000015E80CA
S3065000015F0346
S306500001606FD9
S306500001611037
S306500001621036
S30650000163271E
S3065000016473D1
S30650000165251E
S306500001662022
S30650000167340D
S3065000016893AD
S30650000169023D
S3065000016AF04E
S3065000016B013C
S3065000016C3309
S3065000016D75C6
S3065000016E55E5
S3065000016F0039
S30650000170EF49
S306500001710037
S306500001720036
S306500001731B1A
S30650000174979D
S306500001750231
S306500001760032
S306500001770130
S30650000178939D
S3065000017982AD
S3065000017A82AC
S3065000017BEC41
S3065000017C1319
S3065000017D1516
S3065000017E35F5
S3065000017F0029
S30650000180B375
S3065000018182A5
S30650000182A284
S306500001830025
S306500001840321
S30650000185A57E
S306500001860220
S306500001870021
S30650000188031D
S30650000189A37C
S3065000018A42DC
S3065000018B001D
S3065000018CE735
S3065000018D001B
S3065000018E0317
S3065000018F0019
S306500001901701
S306500001911304
S306500001920016
S306500001930114
S306500001941301
S306500001950310
S30650000196C34F
S306500001979879
S30650000198838D
S3065000019923EC
S3065000019A030B
S3065000019B000D
S3065000019C9379
S3065000019D8388
S3065000019EF317
S3065000019FFF0A
S306500001A023E5
S306500001A120E7
S306500001A27393
S306500001A30005
S306500001A48381
S306500001A522E1
S306500001A60101
S306500001A70001
S306500001A813ED
S306500001A9817E
S306500001AA02FC
S306500001AB00FD
S306500001AC8379
S306500001AD23D8
S306500001AE8377
S306500001AF00F9
S306500001B003F5
S306500001B1DE19
S306500001B2A353
S306500001B300F5
S306500001B49361
S306500001B50EE5
S306500001B600F2
S306500001B708E9
S306500001B8638D
S306500001B97E71
S306500001BADE10
S306500001BB09E4
S306500001BC03E9
S306500001BD2EBD
S306500001BE43A7
S306500001BF01E8
S306500001C06385
S306500001C10ADD
S306500001C27E68
S306500001C308DD
S306500001C4EFF5
S306500001C520C3
S306500001C600E2
S306500001C711D0
S306500001C89749
S306500001C912CD
S306500001CA00DE
S306500001CB01DC
S306500001CC9349
S306500001CD8259
S306500001CE4298
S306500001CF9544
S306500001D003D5
S306500001D1A334
S306500001D28254
S306500001D300D5
S306500001D423B1
S306500001D526AD
S306500001D6834F
S306500001D702CF
S306500001D823AD
S306500001D928A7
S306500001DA933B
S306500001DB02CB
S306500001DC23A9
S306500001DD2AA1
S306500001DE23A7
S306500001DF03C6
S306500001E023A5
S306500001E12C9B
S306500001E23393
S306500001E303C2
S306500001E423A1
S306500001E52E95
S306500001E6437F
S306500001E703BE
S306500001E8239D
S306500001E9209F
S306500001EA536B
S306500001EB05B8
S306500001EC2399
S306500001ED2299
S306500001EE6357
S306500001EF05B4
S306500001F02395
S306500001F12493
S306500001F27343
S306500001F305B0
S306500001F42391
S306500001F5268D
S306500001F6832F
S306500001F705AC
S306500001F8238D
S306500001F92887
S306500001FA931B
S306500001FB05A8
S306500001FC2389
S306500001FD2A81
S306500001FEA307
S306500001FF05A4
S306500002002384
S306500002012C7A
S30650000202B3F2
S30650000203059F
S306500002042380
S30650000205247E
S30650000206237E
S30650000207029E
S306500002089708
S30650000209039B
S3065000020A009D
S3065000020B019B
S3065000020C9308
S3065000020D8317
S3065000020E4356
S3065000020F7523
S306500002100394
S30650000211AEE8
S306500002120392
S306500002130094
S306500002142370
S30650000215246E
S30650000216C3CE
S306500002170789
S30650000218038C
S30650000219A3EB
S3065000021A424B
S3065000021B018B
S3065000021C2368
S3065000021DA4E6
S3065000021E6227
S3065000021F0088
S306500002200384
S306500002212165
S306500002228302
S306500002230282
S306500002240380
S30650000225245E
S30650000226C3BE
S30650000227027E
S3065000022883FC
S30650000229245A
S3065000022A037A
S3065000022B0379
S3065000022C0378
S3065000022D2951
S3065000022E4336
S3065000022F0375
S3065000023083F4
S30650000231294D
S3065000023283F2
S306500002330371
S306500002340370
S306500002352A48
S30650000236C3AE
S30650000237036D
S3065000023883EC
S306500002392A44
S3065000023A036A
S3065000023B0468
S3065000023C0368
S3065000023D2B3F
S3065000023E4326
S3065000023F0464
S3065000024083E4
S306500002412B3B
S3065000024283E2
S306500002430460
S306500002440360
S306500002452C36
S30650000246C39E
S30650000247045C
S3065000024883DC
S306500002492C32
S3065000024A035A
S3065000024B0557
S3065000024C0358
S3065000024D2D2D
S3065000024E4316
S3065000024F0553
S3065000025083D4
S306500002512D29
S3065000025283D2
S30650000253054F
S30650000254EF64
S306500002550052
S3065000025680D1
S306500002570947
S3065000025883CC
S30650000259222C
S3065000025A81CC
S3065000025B0448
S3065000025C73D8
S3065000025D90BA
S3065000025E1237
S3065000025F3414
S3065000026083C4
S306500002612224
S30650000262C184
S306500002630440
S3065000026473D0
S3065000026590B2
S30650000266023F
S306500002677CC4
S3065000026883BC
S30650000269201E
S3065000026A013C
S3065000026B003C
S3065000026C83B8
S3065000026D2119
S3065000026E41F8
S3065000026F0038
S306500002700334
S306500002712214
S3065000027281B4
S306500002730034
S3065000027483B0
S306500002752210
S30650000276C170
S306500002770030
S30650000278032C
S30650000279230B
S3065000027A012C
S3065000027B012B
S3065000027C83A8
S3065000027D2307
S3065000027E41E8
S3065000027F0127
S306500002800324
S306500002812EF8
S3065000028281A4
S306500002830123
S3065000028483A0
S306500002852EF4
S30650000286C160
S30650000287011F
S30650000288031C
S306500002892FEF
S3065000028A011C
S3065000028B021A
S3065000028C8398
S3065000028D2FEB
S3065000028E41D8
S3065000028F0216
S306500002900314
S3065000029125F1
S306500002928194
S306500002930212
S306500002948390
S3065000029525ED
S30650000296C150
S30650000297020E
S30650000298030C
S3065000029926E8
S3065000029A010C
S3065000029B0309
S3065000029C8388
S3065000029D26E4
S3065000029E41C8
S3065000029F0305
S306500002A00304
S306500002A127DF
S306500002A28184
S306500002A30301
S306500002A48380
S306500002A527DB
S306500002A6C140
S306500002A703FD
S306500002A803FC
S306500002A928D6
S306500002AA01FC
S306500002AB04F8
S306500002AC8378
S306500002AD28D2
S306500002AE41B8
S306500002AF04F4
S306500002B013E4
S306500002B101F5
S306500002B201F4
S306500002B307ED
S306500002B47380
S306500002B500F2
S306500002B600F1
S306500002B710E0
S306500002B8F3FC
S306500002B922CC
S306500002BA00ED
S306500002BB7B71
S306500002BC7378
S306500002BD23C7
S306500002BE10D9
S306500002BF7B6D
S306500002C0F3F4
S306500002C123C3
S306500002C220C5
S306500002C37B69
S306500002C423C0
S306500002C528BA
S306500002C65190
S306500002C704DC
S306500002C823BC
S306500002C92AB4
S306500002CA617C
S306500002CB04D8
S306500002CC23B8
S306500002CD2CAE
S306500002CE7168
S306500002CF04D4
S306500002D0F3E4
S306500002D122B4
S306500002D24095
S306500002D37B59
S306500002D47360
S306500002D523AF
S306500002D65081
S306500002D77B55
S306500002D8F3DC
S306500002D923AB
S306500002DA606D
S306500002DB7B51
S306500002DC23A8
S306500002DD2E9C
S306500002DE5178
S306500002DF04C4
S306500002E023A4
S306500002E120A6
S306500002E26164
S306500002E306BE
S306500002E423A0
S306500002E522A0
S306500002E67150
S306500002E706BA
S306500002E86758
S306500002E9803E
S306500002EA00BD
S306500002EB00BC
S306500002EC8338
S306500002ED2298
S306500002EE01B8
S306500002EF05B3
S306500002F003B4
S306500002F12393
S306500002F24174
S306500002F305AF
S306500002F48330
S306500002F5238F
S306500002F68130
S306500002F705AB
S306500002F8733C
S306500002F9901E
S306500002FA02AB
S306500002FB7B31
S306500002FC7338
S306500002FD109A
S306500002FE1396
S306500002FF7B2D
S306500003007333
S306500003019015
S306500003022381
S306500003037B28
S30650000304831F
S30650000305227F
S30650000306C1DF
S30650000307059A
S30650000308039B
S30650000309237A
S3065000030A019B
S3065000030B0695
S3065000030C8317
S3065000030D2376
S3065000030E4157
S3065000030F0691
S306500003107323
S306500003119005
S306500003124252
S306500003137B18
S30650000314731F
S306500003151081
S30650000316533D
S306500003177B14
S30650000318731B
S3065000031990FD
S3065000031A6329
S3065000031B7B10
S3065000031C6723
S3065000031D8009
S3065000031E0088
S3065000031F0087
S30650000320374F
S306500003214342
S306500003221074
S306500003231A69
S30650000324136F
S30650000325037E
S30650000326C3BD
S30650000327007F
S3065000032893EB
S30650000329037A
S3065000032A106C
S3065000032B007B
S3065000032C3347
S3065000032D9EDB
S3065000032EA3D5
S3065000032F0077
S306500003302353
S306500003312055
S30650000332C3B1
S306500003330172
S30650000334373B
S30650000335432E
S306500003361060
S306500003371A55
S30650000338135B
S30650000339036A
S3065000033AC3A9
S3065000033B016A
S3065000033C2347
S3065000033D2049
S3065000033EC3A5
S3065000033F0166
S3065000034067FF
S3065000034180E5
S306500003420064
S306500003430063
S30650000344F36F
S30650000345223F
S306500003462040
S30650000347342B
S3065000034893CB
S30650000349F26B
S3065000034AF26A
S3065000034B015A
S3065000034C1347
S3065000034D0356
S3065000034EF068
S3065000034F0057
S306500003501343
S306500003510550
S306500003520054
S306500003530053
S3065000035463EF
S30650000355C48D
S3065000035662EE
S30650000357004F
S30650000358133B
S306500003590548
S3065000035A1537
S3065000035B004B
S3065000035C67E3
S3065000035D80C9
S3065000035E0048
S3065000035F0047
S3065000036073D3
S306500003610045
S306500003620044
S306500003630043
S3065000036497AB
S30650000365023F
S306500003660040
S30650000367013E
S3065000036893AB
S3065000036982BB
S3065000036A82BA
S3065000036B7BC0
S3065000036C0337
S3065000036DA396
S3065000036E82B6
S3065000036F0037
S3065000037083B3
S306500003712312
S3065000037283B1
S30650000373062D
S30650000374131F
S3065000037575BC
S30650000376151B
S30650000377002F
S30650000378F33B
S30650000379220B
S3065000037A0527
S3065000037B30FB
S3065000037C1317
S3065000037D85A4
S3065000037E0325
S3065000037F0027
S3065000038067BF
S3065000038180A5
S306500003820024
S306500003830023
S3065000038467BB
S3065000038580A1
S306500003860020
S30650000387001F
S30650000388130B
S30650000389011C
S3065000038A011B
S3065000038BFB20
S3065000038C1307
S3065000038D0613
S3065000038E0018
S3065000038F0413
S306500003909383
S306500003910510
S306500003920014
S306500003930013
S3065000039413FF
S30650000395050C
S30650000396010F
S30650000397000F
S3065000039823EB
S3065000039926E7
S3065000039A11FB
S3065000039B0407
S3065000039CEF1B
S3065000039D0009
S3065000039E40C8
S3065000039F35D2
S306500003A037CF
S306500003A107FE
S306500003A20004
S306500003A351B2
S306500003A413EF
S306500003A507FA
S306500003A6C739
S306500003A714EB
S306500003A823DB
S306500003A928D5
S306500003AAE11B
S306500003AB00FB
S306500003ACB743
S306500003AD07F2
S306500003AE00F8
S306500003AF51A6
S306500003B037BF
S306500003B107EE
S306500003B200F4
S306500003B350A3
S306500003B4935F
S306500003B5876A
S306500003B6C729
S306500003B713DC
S306500003B813DB
S306500003B907E6
S306500003BAC725
S306500003BB5E8D
S306500003BC23C7
S306500003BD20C9
S306500003BEF1F7
S306500003BF00E7
S306500003C023C3
S306500003C12ABB
S306500003C2E103
S306500003C300E3
S306500003C4B72B
S306500003C507DA
S306500003C600E0
S306500003C7508F
S306500003C837A7
S306500003C907D6
S306500003CA00DC
S306500003CB518A
S306500003CC9347
S306500003CD8752
S306500003CE4791
S306500003CF587F
S306500003D013C3
S306500003D107CE
S306500003D2C70D
S306500003D315BE
S306500003D423AF
S306500003D522AF
S306500003D6F1DF
S306500003D700CF
S306500003D823AB
S306500003D920AD
S306500003DAE1EB
S306500003DB02C9
S306500003DCB713
S306500003DD07C2
S306500003DE00C8
S306500003DF5077
S306500003E0378F
S306500003E107BE
S306500003E200C4
S306500003E35073
S306500003E4378B
S306500003E505BC
S306500003E600C0
S306500003E7516E
S306500003E8932B
S306500003E98736
S306500003EA4775
S306500003EB3883
S306500003EC13A7
S306500003ED07B2
S306500003EE4771
S306500003EF6552
S306500003F09323
S306500003F105B0
S306500003F201B3
S306500003F300B3
S306500003F4139F
S306500003F505AC
S306500003F605AB
S306500003F71798
S306500003F8238B
S306500003F92489
S306500003FAF1BB
S306500003FB00AB
S306500003FC2387
S306500003FD2683
S306500003FEF1B7
S306500003FF00A7
S306500004002382
S306500004012C78
S30650000402F1B2
S3065000040300A2
S30650000404237E
S306500004052E72
S30650000406F1AE
S30650000407009E
S30650000408237A
S30650000409227A
S3065000040AE1BA
S3065000040B0298
S3065000040C2376
S3065000040D2474
S3065000040EF1A6
S3065000040F0294
S306500004102372
S30650000411266E
S30650000412F1A2
S306500004130290
S30650000414EFA2
S306500004151080
S30650000416404F
S306500004172A64
S30650000418830A
S30650000419206C
S3065000041AC1CA
S3065000041B0486
S3065000041C1376
S3065000041D0187
S3065000041E0186
S3065000041F0581
S30650000420671E
S306500004218004
S306500004220083
S306500004230082
S30650000424136E
S30650000425017F
S30650000426017E
S30650000427FE80
S30650000428235A
S306500004292854
S3065000042A215A
S3065000042B0179
S3065000042C1366
S3065000042D096F
S3065000042E0572
S3065000042F0076
S30650000430373E
S30650000431056F
S306500004320073
S306500004335121
S30650000434135E
S30650000435056B
S30650000436C5AA
S306500004371757
S30650000438234A
S306500004392C40
S3065000043A81EA
S3065000043B006A
S3065000043C2346
S3065000043D2A3E
S3065000043E91D6
S3065000043F0066
S306500004402342
S306500004412E36
S306500004421152
S306500004430062
S30650000444233E
S30650000445263A
S30650000446312E
S30650000447015D
S30650000448B7A6
S306500004490458
S3065000044A005B
S3065000044B5109
S3065000044CEF6A
S3065000044D1048
S3065000044E5007
S3065000044F0056
S306500004501342
S306500004510450
S30650000452054E
S306500004530052
S30650000454133E
S3065000045585CB
S30650000456440B
S306500004571836
S30650000458EF5E
S30650000459004C
S3065000045A400B
S3065000045B2624
S3065000045C63E6
S3065000045D1830
S3065000045E0443
S3065000045F0046
S30650000460370E
S30650000461053F
S306500004620043
S3065000046351F1
S30650000464132E
S30650000465053B
S30650000466053A
S306500004671925
S306500004686FCE
S30650000469003C
S3065000046A40FB
S3065000046B0337
S3065000046C83B6
S3065000046D2711
S3065000046E44F3
S3065000046F0036
S30650000470B77E
S30650000471151F
S306500004720033
S3065000047351E1
S3065000047433FE
S3065000047549E7
S306500004762906
S30650000477C06E
S3065000047883AA
S30650000479A785
S3065000047A0724
S3065000047B002A
S3065000047C9396
S3065000047D091F
S3065000047E0522
S3065000047F0026
S306500004802302
S30650000481AC78
S3065000048225FE
S30650000483938F
S30650000484130E
S30650000485051B
S30650000486041B
S30650000487001E
S30650000488938A
S306500004898597
S3065000048A8596
S3065000048B9387
S3065000048CE732
S3065000048D8098
S3065000048E0710
S3065000048F0016
S3065000049063B2
S306500004910C08
S30650000492050E
S306500004930012
S3065000049437DA
S30650000495050B
S30650000496000F
S3065000049751BD
S3065000049813FA
S306500004990507
S3065000049A8586
S3065000049B1AF0
S3065000049CEF1A
S3065000049D10F8
S3065000049E0007
S3065000049F12F4
S306500004A013F2
S306500004A105FF
S306500004A210F3
S306500004A30002
S306500004A46F92
S306500004A50000
S306500004A640BF
S306500004A70CF2
S306500004A8837A
S306500004A927D5
S306500004AA44B7
S306500004AB00FA
S306500004AC8376
S306500004ADA751
S306500004AE47B0
S306500004AF00F6
S306500004B06392
S306500004B18074
S306500004B207EC
S306500004B302F0
S306500004B4935E
S306500004B505EB
S306500004B610DF
S306500004B700EE
S306500004B813DA
S306500004B905E7
S306500004BA04E7
S306500004BB00EA
S306500004BCE702
S306500004BD8068
S306500004BE07E0
S306500004BF00E6
S306500004C06382
S306500004C108DC
S306500004C205DE
S306500004C300E2
S306500004C437AA
S306500004C505DB
S306500004C600DF
S306500004C7518D
S306500004C813CA
S306500004C905D7
S306500004CAC516
S306500004CB1BBF
S306500004CC6F6A
S306500004CDF0E8
S306500004CE1FB8
S306500004CFFDD9
S306500004D08352
S306500004D127AD
S306500004D2448F
S306500004D300D2
S306500004D4834E
S306500004D5A729
S306500004D68748
S306500004D700CE
S306500004D813BA
S306500004D907C5
S306500004DA00CB
S306500004DB00CA
S306500004DC9336
S306500004DD06C2
S306500004DE00C7
S306500004DF00C6
S306500004E013B2
S306500004E1863E
S306500004E209BA
S306500004E300C2
S306500004E4932E
S306500004E5853B
S306500004E6447B
S306500004E718A6
S306500004E813AA
S306500004E905B7
S306500004EA04B7
S306500004EB00BA
S306500004ECE7D2
S306500004ED8038
S306500004EE07B0
S306500004EF00B6
S306500004F06352
S306500004F108AC
S306500004F205AE
S306500004F300B2
S306500004F4377A
S306500004F505AB
S306500004F600AF
S306500004F7515D
S306500004F8139A
S306500004F905A7
S306500004FA8526
S306500004FB1D8D
S306500004FC6F3A
S306500004FDF0B8
S306500004FE1F88
S306500004FFFAAC
S30650000500B7ED
S30650000501059E
S3065000050200A2
S306500005035150
S306500005043769
S30650000505059A
S30650000506009E
S30650000507514C
S306500005089309
S306500005098516
S3065000050A4555
S3065000050B1881
S3065000050C1385
S3065000050D0592
S3065000050EC5D1
S3065000050F1E77
S30650000510EFA5
S306500005111083
S30650000512C0D2
S306500005130A87
S306500005143759
S306500005151976
S30650000516008E
S30650000517513C
S306500005188309
S306500005192764
S3065000051A4446
S3065000051B0089
S3065000051C8305
S3065000051DA7E0
S3065000051E87FF
S3065000051F0085
S306500005201371
S3065000052187FC
S306500005220979
S306500005230081
S3065000052493ED
S306500005250679
S306500005264935
S3065000052799E4
S306500005281369
S3065000052986F5
S3065000052A0971
S3065000052B0079
S3065000052C93E5
S3065000052D85F2
S3065000052E4432
S3065000052F185D
S306500005301361
S30650000531056E
S30650000532046E
S306500005330071
S30650000534E789
S3065000053580EF
S306500005360767
S30650000537006D
S306500005386309
S306500005390863
S3065000053A0565
S3065000053B0069
S3065000053C3731
S3065000053D0562
S3065000053E0066
S3065000053F5114
S306500005401351
S30650000541055E
S30650000542C59D
S306500005431F42
S306500005446FF1
S30650000545F06F
S306500005469FBF
S30650000547F568
S306500005483725
S306500005490556
S3065000054A005A
S3065000054B5108
S3065000054C93C5
S3065000054D0552
S3065000054E490D
S3065000054F99BC
S306500005501341
S30650000551054E
S30650000552450D
S306500005532130
S30650000554EF61
S30650000555103F
S3065000055680CE
S306500005570647
S3065000055893B9
S306500005590546
S3065000055A4901
S3065000055B99B0
S3065000055C1335
S3065000055D85C2
S3065000055E4402
S3065000055F182D
S30650000560EF55
S306500005610043
S306500005624002
S30650000563172A
S30650000564330D
S30650000565350A
S30650000566A09E
S30650000567003D
S3065000056883B9
S30650000569201B
S3065000056AC179
S3065000056B0138
S3065000056C0335
S3065000056D2413
S3065000056E81B5
S3065000056F0134
S3065000057083B1
S30650000571240F
S3065000057241F1
S306500005730130
S30650000574032D
S306500005752906
S30650000576012D
S30650000577012C
S3065000057883A9
S306500005792902
S3065000057AC169
S3065000057B0029
S3065000057C1315
S3065000057D0126
S3065000057E0125
S3065000057F0223
S3065000058067BD
S3065000058180A3
S306500005820022
S306500005830021
S3065000058437E9
S30650000585051A
S30650000586001E
S3065000058751CC
S306500005881309
S30650000589011A
S3065000058A0119
S3065000058BFF1A
S3065000058C1305
S3065000058D0512
S3065000058EC551
S3065000058F22F3
S3065000059023F1
S3065000059126ED
S306500005921101
S306500005930011
S30650000594EF21
S3065000059510FF
S30650000596808E
S30650000597020B
S3065000059813F9
S306500005990506
S3065000059A10FA
S3065000059B0801
S3065000059CEF19
S3065000059DF017
S3065000059E9F67
S3065000059FE81D
S306500005A063A1
S306500005A10003
S306500005A205FD
S306500005A304FD
S306500005A4B749
S306500005A507F8
S306500005A600FE
S306500005A751AC
S306500005A837C5
S306500005A907F4
S306500005AA00FA
S306500005AB51A8
S306500005ACB741
S306500005AD06F1
S306500005AE00F6
S306500005AF51A4
S306500005B0B73D
S306500005B105EE
S306500005B200F2
S306500005B351A0
S306500005B437B9
S306500005B505EA
S306500005B600EE
S306500005B7519C
S306500005B89359
S306500005B98764
S306500005BA07E3
S306500005BB24C5
S306500005BC13D5
S306500005BD07E0
S306500005BE875F
S306500005BF796C
S306500005C09351
S306500005C1865D
S306500005C206DC
S306500005C33DA4
S306500005C413CD
S306500005C506D9
S306500005C6805E
S306500005C705D8
S306500005C89349
S306500005C98556
S306500005CAC515
S306500005CB27B2
S306500005CC13C5
S306500005CD05D2
S306500005CE05D1
S306500005CF2CA9
S306500005D0EFE5
S306500005D100D3
S306500005D2D002
S306500005D37E53
S306500005D4834D
S306500005D520AF
S306500005D6C10D
S306500005D700CD
S306500005D813B9
S306500005D901CA
S306500005DA01C9
S306500005DB01C8
S306500005DC6F59
S306500005DD10B7
S306500005DEC006
S306500005DF0ABB
S306500005E08341
S306500005E120A3
S306500005E2C101
S306500005E300C1
S306500005E413AD
S306500005E501BE
S306500005E601BD
S306500005E701BC
S306500005E86755
S306500005E9803B
S306500005EA00BA
S306500005EB00B9
S306500005EC3781
S306500005ED05B2
S306500005EE00B6
S306500005EF5164
S306500005F013A1
S306500005F101B2
S306500005F201B1
S306500005F3FFB2
S306500005F4139D
S306500005F505AA
S306500005F6C5E9
S306500005F72E7F
S306500005F82389
S306500005F92685
S306500005FA1199
S306500005FB00A9
S306500005FCEFB9
S306500005FD00A7
S306500005FE1096
S306500005FF7C29
S306500006001390
S30650000601059D
S306500006022081
S306500006030898
S30650000604EFB0
S30650000605F0AE
S306500006061F7E
S30650000607E2BA
S306500006086338
S30650000609009A
S3065000060A0594
S3065000060B0494
S3065000060CB7E0
S3065000060D078F
S3065000060E0095
S3065000060F5143
S30650000610375C
S30650000611078B
S306500006120091
S30650000613513F
S30650000614B7D8
S306500006150688
S30650000616008D
S30650000617513B
S30650000618B7D4
S306500006190585
S3065000061A0089
S3065000061B5137
S3065000061C3750
S3065000061D0581
S3065000061E0085
S3065000061F5133
S3065000062093F0
S3065000062187FB
S30650000622077A
S306500006233050
S30650000624136C
S306500006250777
S3065000062687F6
S306500006277903
S3065000062893E8
S3065000062986F4
S3065000062A0673
S3065000062B3C3C
S3065000062C1364
S3065000062D0670
S3065000062EE095
S3065000062F056F
S3065000063093E0
S3065000063185ED
S30650000632C5AC
S306500006332749
S30650000634135C
S306500006350569
S306500006360568
S306500006372C40
S30650000638EF7C
S30650000639006A
S3065000063A5019
S3065000063B78F0
S3065000063C83E4
S3065000063D2046
S3065000063EC1A4
S3065000063F0064
S306500006401350
S306500006410161
S306500006420160
S30650000643015F
S306500006446FF0
S30650000645104E
S30650000646401D
S306500006470458
S3065000064883D8
S30650000649203A
S3065000064AC198
S3065000064B0058
S3065000064C1344
S3065000064D0155
S3065000064E0154
S3065000064F0153
S3065000065067EC
S3065000065180D2
S306500006520051
S306500006530050
S306500006543718
S306500006550549
S30650000656004D
S3065000065751FB
S306500006581338
S306500006590149
S3065000065A0148
S3065000065BFF49
S3065000065C1334
S3065000065D0541
S3065000065EC580
S3065000065F3311
S306500006602320
S30650000661261C
S306500006621130
S306500006630040
S30650000664EF50
S30650000665003E
S3065000066690AD
S3065000066775C7
S306500006681328
S306500006690535
S3065000066A3009
S3065000066B0830
S3065000066CEF48
S3065000066DF046
S3065000066E9F96
S3065000066FDB59
S3065000067063D0
S306500006710032
S30650000672052C
S30650000673042C
S30650000674B778
S306500006750727
S30650000676002D
S3065000067751DB
S3065000067837F4
S306500006790723
S3065000067A0029
S3065000067B51D7
S3065000067CB770
S3065000067D0620
S3065000067E0025
S3065000067F51D3
S30650000680B76C
S30650000681051D
S306500006820021
S3065000068351CF
S3065000068437E8
S306500006850519
S30650000686001D
S3065000068751CB
S306500006889388
S306500006898793
S3065000068A0712
S3065000068B36E2
S3065000068C1304
S3065000068D070F
S3065000068E878E
S3065000068F799B
S306500006909380
S30650000691868C
S30650000692C64B
S306500006933AD6
S3065000069413FC
S306500006950608
S3065000069650BD
S306500006970606
S306500006989378
S306500006998585
S3065000069AC544
S3065000069B27E1
S3065000069C13F4
S3065000069D0501
S3065000069E0500
S3065000069F2CD8
S306500006A0EF14
S306500006A10002
S306500006A2D031
S306500006A3718F
S306500006A4837C
S306500006A520DE
S306500006A6C13C
S306500006A700FC
S306500006A813E8
S306500006A901F9
S306500006AA01F8
S306500006AB01F7
S306500006AC6F88
S306500006AD00F6
S306500006AED025
S306500006AF7D77
S306500006B08370
S306500006B120D2
S306500006B2C130
S306500006B300F0
S306500006B413DC
S306500006B501ED
S306500006B601EC
S306500006B701EB
S306500006B86784
S306500006B9806A
S306500006BA00E9
S306500006BB00E8
S306500006BC13D4
S306500006BD07DF
S306500006BE05E0
S306500006BF00E4
S306500006C09350
S306500006C107DB
S306500006C205DC
S306500006C300E0
S306500006C433AC
S306500006C58559
S306500006C6E7F6
S306500006C7409C
S306500006C88B50
S306500006C9C614
S306500006CA17C2
S306500006CB00D8
S306500006CCE3F4
S306500006CD9C3A
S306500006CE06CF
S306500006CFFED6
S306500006D0676C
S306500006D18052
S306500006D200D1
S306500006D300D0
S306500006D48B44
S306500006D54787
S306500006D615B8
S306500006D700CC
S306500006D80BC0
S306500006D9C703
S306500006DA15B4
S306500006DB00C8
S306500006DC6364
S306500006DD9630
S306500006DEE7DE
S306500006DF00C4
S306500006E0E3E0
S306500006E19A28
S306500006E207BA
S306500006E3FEC2
S306500006E413AC
S306500006E58737
S306500006E607B6
S306500006E700BC
S306500006E83388
S306500006E98535
S306500006EAE7D2
S306500006EB4078
S306500006EC6750
S306500006ED8036
S306500006EE00B5
S306500006EF00B4
S306500006F09320
S306500006F1F6BC
S306500006F2F5BC
S306500006F30FA1
S306500006F4931C
S306500006F507A7
S306500006F605A8
S306500006F700AC
S306500006F81398
S306500006F907A3
S306500006FA1693
S306500006FB00A8
S306500006FC3374
S306500006FDB8EE
S306500006FE277E
S306500006FFFAAA
S30650000700633F
S306500007010E93
S306500007020898
S30650000703009F
S30650000704138B
S306500007050796
S30650000706F7A5
S30650000707FF9C
S306500007086337
S306500007091485
S3065000070A0791
S3065000070B0097
S3065000070C672F
S3065000070D8015
S3065000070E0094
S3065000070F0093
S30650000710ABE7
S306500007118011
S30650000712D7B9
S30650000713008F
S30650000714137B
S306500007150687
S30650000716F696
S30650000717FF8C
S306500007186F1B
S30650000719F099
S3065000071A5F29
S3065000071BFE89
S3065000071CB3D3
S3065000071DB5D0
S3065000071E85FF
S3065000071FEE95
S30650000720136F
S3065000072197EA
S3065000072285FB
S30650000723007F
S30650000724B3CB
S30650000725E598
S30650000726E597
S30650000727007B
S306500007281367
S3065000072997E2
S3065000072A0573
S3065000072B0176
S3065000072CB3C3
S3065000072DE590
S3065000072EE58F
S3065000072F0073
S30650000730135F
S30650000731571A
S30650000732264A
S30650000733006F
S30650000734135B
S3065000073588E5
S306500007360765
S30650000737006B
S306500007381357
S306500007390762
S3065000073A1751
S3065000073B0067
S3065000073C1353
S3065000073D075E
S3065000073EF76D
S3065000073FFF64
S3065000074063FF
S306500007411051
S306500007420759
S30650000743025D
S30650000744134B
S306500007455706
S306500007462636
S30650000747005B
S3065000074893C7
S306500007491544
S3065000074A2731
S3065000074B0057
S3065000074CB3A3
S3065000074D87CE
S3065000074EB79D
S3065000074F0053
S3065000075093BF
S30650000751054C
S30650000752C090
S30650000753FF50
S30650000754331B
S306500007550647
S30650000756B795
S306500007574209
S306500007581337
S306500007590643
S3065000075A1632
S3065000075B0047
S3065000075C6FD7
S3065000075D0045
S3065000075E0044
S3065000075F0142
S306500007602B17
S30650000761221F
S30650000762B888
S30650000763003F
S306500007646FCF
S30650000765F04D
S306500007669F9D
S30650000767FD3E
S30650000768AB8F
S3065000076980B9
S3065000076AD761
S3065000076B0037
S3065000076C1323
S3065000076D062F
S3065000076EF63E
S3065000076FFF34
S30650000770E34F
S306500007711C15
S30650000772062A
S30650000773FE31
S3065000077467C7
S3065000077580AD
S30650000776002C
S30650000777002B
S306500007781317
S306500007790128
S3065000077A0127
S3065000077BFF28
S3065000077C2303
S3065000077D2401
S3065000077E81A3
S3065000077F0023
S3065000078037EB
S30650000781140D
S306500007820020
S3065000078351CE
S3065000078423FB
S3065000078522FB
S30650000786918B
S30650000787001B
S3065000078823F7
S3065000078926F3
S3065000078A1107
S3065000078B0017
S3065000078C9383
S3065000078D0411
S3065000078E050F
S3065000078F0013
S3065000079013FF
S30650000791040D
S30650000792040C
S306500007939778
S3065000079463AB
S306500007953CD1
S30650000796A567
S30650000797000B
S306500007980307
S3065000079925E4
S3065000079A0404
S3065000079B0007
S3065000079C9373
S3065000079D0500
S3065000079ED034
S3065000079F0003
S306500007A0837F
S306500007A127DA
S306500007A245BB
S306500007A300FF
S306500007A4837B
S306500007A5A756
S306500007A647B5
S306500007A700FB
S306500007A8E713
S306500007A98079
S306500007AA07F1
S306500007AB00F7
S306500007AC03F3
S306500007AD25D0
S306500007AE04F0
S306500007AF00F3
S306500007B0935F
S306500007B1F5FC
S306500007B2F4FC
S306500007B30FE0
S306500007B4836B
S306500007B527C6
S306500007B645A7
S306500007B700EB
S306500007B88367
S306500007B9A742
S306500007BA47A1
S306500007BB00E7
S306500007BCE7FF
S306500007BD8065
S306500007BE07DD
S306500007BF00E3
S306500007C0835F
S306500007C120C1
S306500007C2C11F
S306500007C300DF
S306500007C413CB
S306500007C58558
S306500007C604D8
S306500007C700DB
S306500007C803D7
S306500007C924B5
S306500007CA8157
S306500007CB00D7
S306500007CC8353
S306500007CD24B1
S306500007CE4193
S306500007CF00D3
S306500007D013BF
S306500007D101D0
S306500007D201CF
S306500007D301CE
S306500007D46767
S306500007D5804D
S306500007D600CC
S306500007D700CB
S306500007D83793
S306500007D905C4
S306500007DA00C8
S306500007DB5077
S306500007DC13B3
S306500007DD05C0
S306500007DE853F
S306500007DF774C
S306500007E06F53
S306500007E100C1
S306500007E2D0F0
S306500007E3209F
S306500007E43787
S306500007E505B8
S306500007E600BC
S306500007E7516A
S306500007E813A7
S306500007E901B8
S306500007EA01B7
S306500007EBFFB8
S306500007EC13A3
S306500007ED05B0
S306500007EE05AF
S306500007EF3E75
S306500007F0238F
S306500007F1268B
S306500007F2119F
S306500007F300AF
S306500007F4EFBF
S306500007F5109D
S306500007F6C0EC
S306500007F74566
S306500007F8B7F3
S306500007F91792
S306500007FA00A8
S306500007FB5156
S306500007FC2383
S306500007FDA8FD
S306500007FEA7FD
S306500007FF960D
S30650000800EFB2
S30650000801F0B0
S306500008029F00
S30650000803FDA1
S30650000804831A
S30650000805207C
S30650000806C1DA
S30650000807009A
S306500008081386
S306500008090593
S3065000080A0097
S3065000080B0096
S3065000080C1382
S3065000080D0193
S3065000080E0192
S3065000080F0191
S30650000810672A
S306500008118010
S30650000812008F
S30650000813008E
S30650000814830A
S306500008152864
S306500008168506
S30650000817008A
S306500008181376
S306500008190781
S3065000081A1077
S3065000081B0086
S3065000081C7312
S3065000081D374D
S3065000081E077C
S3065000081F3052
S30650000820037E
S30650000821A6DA
S306500008224837
S30650000823007E
S30650000824334A
S306500008253745
S306500008261764
S30650000827FC7E
S306500008286316
S306500008290A6E
S3065000082A0671
S3065000082B0670
S3065000082C83F2
S3065000082D274D
S3065000082E056E
S3065000082F0072
S3065000083083EE
S30650000831A7C9
S3065000083287E8
S30650000833006E
S3065000083483EA
S30650000835A7C5
S306500008360764
S30650000837006A
S306500008386306
S3065000083982E6
S3065000083A0760
S3065000083B0660
S3065000083CB3B2
S3065000083DD78D
S3065000083EC79C
S3065000083F0260
S30650000840035E
S30650000841233D
S3065000084285DA
S30650000843005E
S3065000084483DA
S306500008452636
S306500008460358
S30650000847005A
S306500008481346
S306500008490E4A
S3065000084A0057
S3065000084BF85E
S3065000084C93C2
S3065000084D86CE
S3065000084EC68D
S3065000084F0052
S3065000085083CE
S30650000851C58B
S306500008520649
S30650000853004E
S30650000854232A
S3065000085580CC
S30650000856C685
S306500008570149
S3065000085893B6
S30650000859F553
S3065000085AF552
S3065000085B0F37
S3065000085C1332
S3065000085DD86C
S3065000085E47FC
S3065000085F0042
S3065000086093AE
S3065000086176CA
S30650000862F847
S306500008630F2F
S30650000864033A
S306500008652814
S3065000086685B6
S30650000867003A
S306500008680336
S306500008692810
S3065000086A082F
S3065000086B0036
S3065000086C93A2
S3065000086DD75D
S3065000086EC76C
S3065000086F0032
S30650000870230E
S306500008710030
S30650000872D857
S30650000873002E
S3065000087483AA
S306500008752606
S3065000087685A6
S30650000877002A
S3065000087883A6
S30650000879A682
S3065000087A0621
S3065000087B0026
S3065000087C9392
S3065000087DF72D
S3065000087EF72C
S3065000087F0F13
S30650000880938E
S30650000881869A
S3065000088246D9
S30650000883001E
S3065000088423FA
S30650000885809C
S30650000886F625
S30650000887001A
S306500008888396
S3065000088927F1
S3065000088A8592
S3065000088B0016
S3065000088C8392
S3065000088DA76D
S3065000088E070C
S3065000088F0012
S30650000890937E
S306500008918789
S30650000892C748
S30650000893000E
S3065000089423EA
S30650000895808C
S30650000896B754
S30650000897000A
S3065000089823E6
S3065000089922E6
S3065000089AC344
S3065000089B0006
S3065000089C8382
S3065000089D27DD
S3065000089E857E
S3065000089F0002
S306500008A0837E
S306500008A1A759
S306500008A207F8
S306500008A300FE
S306500008A4936A
S306500008A506F6
S306500008A630CB
S306500008A700FA
S306500008A89366
S306500008A98771
S306500008AAC730
S306500008AB00F6
S306500008AC23D2
S306500008AD8074
S306500008AED71C
S306500008AF00F2
S306500008B0836E
S306500008B1C729
S306500008B28867
S306500008B300EE
S306500008B4935A
S306500008B506E6
S306500008B6B03B
S306500008B700EA
S306500008B8B336
S306500008B9B731
S306500008BA17D0
S306500008BBFCEA
S306500008BC6382
S306500008BD8460
S306500008BE07DC
S306500008BF00E2
S306500008C0934E
S306500008C106DA
S306500008C2B02F
S306500008C302DC
S306500008C4835A
S306500008C527B5
S306500008C68556
S306500008C700DA
S306500008C88356
S306500008C9A731
S306500008CA07D0
S306500008CB00D6
S306500008CC9342
S306500008CD874D
S306500008CE07CC
S306500008CF01D1
S306500008D023AE
S306500008D18050
S306500008D2D7F8
S306500008D300CE
S306500008D4834A
S306500008D527A5
S306500008D68546
S306500008D700CA
S306500008D88346
S306500008D9A721
S306500008DA07C0
S306500008DB00C6
S306500008DC9332
S306500008DD06BE
S306500008DE7053
S306500008DFFAC8
S306500008E0932E
S306500008E18739
S306500008E28738
S306500008E300BE
S306500008E4239A
S306500008E5803C
S306500008E6D7E4
S306500008E700BA
S306500008E803B6
S306500008E92593
S306500008EA8532
S306500008EB00B6
S306500008EC8332
S306500008ED278D
S306500008EE05AE
S306500008EF00B2
S306500008F08B26
S306500008F1862A
S306500008F24768
S306500008F300AE
S306500008F4238A
S306500008F5802C
S306500008F607A4
S306500008F700AA
S306500008F87336
S306500008F92781
S306500008FA07A0
S306500008FB3076
S306500008FC1392
S306500008FD059F
S306500008FE00A3
S306500008FF00A2
S306500009006739
S30650000901801F
S30650000902009E
S30650000903009D
S306500009040399
S306500009052576
S306500009068515
S306500009070099
S306500009080395
S306500009092770
S3065000090A0591
S3065000090B0095
S3065000090C9301
S3065000090D078C
S3065000090E474B
S3065000090F0190
S30650000910830D
S30650000911C7C8
S306500009120787
S30650000913008D
S30650000914B3D9
S30650000915B7D4
S306500009161773
S30650000917FC8D
S306500009186325
S306500009198AFD
S3065000091A077F
S3065000091B0085
S3065000091C8301
S3065000091D473C
S3065000091E077B
S3065000091F0081
S30650000920136D
S30650000921057A
S30650000922007E
S30650000923007D
S306500009242359
S3065000092580FB
S30650000926F585
S306500009270079
S306500009286711
S3065000092980F7
S3065000092A0076
S3065000092B0075
S3065000092C1361
S3065000092D056E
S3065000092EF082
S3065000092FFF72
S306500009306709
S3065000093180EF
S30650000932006E
S30650000933006D
S306500009340369
S306500009352546
S3065000093685E5
S306500009370069
S306500009380365
S306500009392740
S3065000093A0561
S3065000093B0065
S3065000093C93D1
S3065000093D065D
S3065000093E471B
S3065000093F0160
S3065000094083DD
S30650000941C798
S306500009420658
S30650000943005D
S3065000094493C9
S30650000945F764
S306500009460753
S306500009470455
S30650000948E375
S306500009498CCB
S3065000094A074F
S3065000094BFE57
S3065000094C2331
S3065000094D0053
S3065000094EB79B
S3065000094F0051
S30650000950133D
S3065000095185CA
S306500009520549
S30650000953004D
S3065000095467E5
S3065000095580CB
S30650000956004A
S306500009570049
S306500009580345
S306500009592522
S3065000095A85C1
S3065000095B0045
S3065000095C83C1
S3065000095D271C
S3065000095E053D
S3065000095F0041
S3065000096093AD
S3065000096187B8
S3065000096247F7
S30650000963013C
S306500009640339
S30650000965C576
S306500009660733
S306500009670039
S306500009681325
S3065000096975C2
S3065000096AE551
S3065000096B0134
S3065000096C1321
S3065000096D55DE
S3065000096E151D
S3065000096F0031
S3065000097067C9
S3065000097180AF
S30650000972002E
S30650000973002D
S30650000974B775
S3065000097537F4
S30650000976101A
S306500009771A0F
S306500009782305
S30650000979A087
S3065000097A071F
S3065000097B0025
S3065000097CB76D
S3065000097D170C
S3065000097E0022
S3065000097F51D0
S30650000980938D
S306500009818798
S3065000098247D7
S306500009839786
S30650000984B765
S306500009851605
S30650000986001A
S3065000098751C8
S306500009880315
S30650000989A770
S3065000098A070F
S3065000098B0015
S3065000098C8391
S3065000098DA66D
S3065000098E868C
S3065000098F967B
S3065000099033DD
S306500009910708
S30650000992D737
S30650000993000D
S3065000099423E9
S30650000995A06B
S30650000996E723
S306500009970009
S30650000998B751
S3065000099917F0
S3065000099A0006
S3065000099B51B4
S3065000099C0301
S3065000099DA55E
S3065000099E47BB
S3065000099F966B
S306500009A06F91
S306500009A110EF
S306500009A2D02E
S306500009A336C7
S306500009A413E9
S306500009A501FA
S306500009A601F9
S306500009A7FFFA
S306500009A813E5
S306500009A905F2
S306500009AAD026
S306500009AB01F4
S306500009AC23D1
S306500009AD26CD
S306500009AE11E1
S306500009AF00F1
S306500009B0EF01
S306500009B100EF
S306500009B2509E
S306500009B36B82
S306500009B4B735
S306500009B537B4
S306500009B610DA
S306500009B71ACF
S306500009B823C5
S306500009B9A047
S306500009BA07DF
S306500009BB00E5
S306500009BC37AD
S306500009BD17CC
S306500009BE00E2
S306500009BF5190
S306500009C003DD
S306500009C127B8
S306500009C28757
S306500009C39647
S306500009C48359
S306500009C520BB
S306500009C6C119
S306500009C700D9
S306500009C823B5
S306500009C9A433
S306500009CAE7EF
S306500009CB00D5
S306500009CC13C1
S306500009CD07CC
S306500009CE10C2
S306500009CF00D1
S306500009D013BD
S306500009D105CA
S306500009D200CE
S306500009D300CD
S306500009D423A9
S306500009D5A229
S306500009D6E7E3
S306500009D700C9
S306500009D813B5
S306500009D901C6
S306500009DA01C5
S306500009DB01C4
S306500009DC675D
S306500009DD8043
S306500009DE00C2
S306500009DF00C1
S306500009E0833D
S306500009E12798
S306500009E205B9
S306500009E300BD
S306500009E48339
S306500009E52695
S306500009E68535
S306500009E700B9
S306500009E88335
S306500009E9A710
S306500009EA872F
S306500009EB00B5
S306500009EC03B1
S306500009EDA60D
S306500009EE07AB
S306500009EF00B1
S306500009F0832D
S306500009F1A708
S306500009F24569
S306500009F300AD
S306500009F41399
S306500009F59714
S306500009F61793
S306500009F700A9
S306500009F8B7F1
S306500009F9F7B0
S306500009FAFAAC
S306500009FB02A3
S306500009FC9311
S306500009FD871C
S306500009FE079B
S306500009FF0899
S30650000A00B3EC
S30650000A01D7C7
S30650000A02E7B6
S30650000A03029A
S30650000A041388
S30650000A050595
S30650000A060099
S30650000A070098
S30650000A089304
S30650000A09870F
S30650000A0AF79E
S30650000A0BFF95
S30650000A0CB3E0
S30650000A0DD7BB
S30650000A0E078A
S30650000A0F1080
S30650000A10236C
S30650000A11226C
S30650000A12F697
S30650000A13008C
S30650000A148308
S30650000A15A7E3
S30650000A160584
S30650000A170088
S30650000A18B3D4
S30650000A1997EF
S30650000A1A473E
S30650000A1BCEB6
S30650000A1C2360
S30650000A1DA8DA
S30650000A1EF68B
S30650000A1F0080
S30650000A206718
S30650000A2180FE
S30650000A22007D
S30650000A23007C
S30650000A241368
S30650000A250179
S30650000A260178
S30650000A27FD7B
S30650000A286314
S30650000A291066
S30650000A2A066F
S30650000A2B0470
S30650000A2C93E0
S30650000A2D076B
S30650000A2EF081
S30650000A2FFF71
S30650000A30630C
S30650000A310A64
S30650000A320766
S30650000A33323A
S30650000A3483E8
S30650000A352743
S30650000A360564
S30650000A370068
S30650000A382344
S30650000A392C3A
S30650000A3A0164
S30650000A3B0064
S30650000A3C83E0
S30650000A3DA7BB
S30650000A3E87DA
S30650000A3F0060
S30650000A4083DC
S30650000A41A7B7
S30650000A420756
S30650000A43005C
S30650000A442338
S30650000A452E2C
S30650000A460158
S30650000A470058
S30650000A482334
S30650000A492036
S30650000A4A0154
S30650000A4B0252
S30650000A4C2330
S30650000A4D2230
S30650000A4E0150
S30650000A4F024E
S30650000A5083CC
S30650000A51A6A8
S30650000A520746
S30650000A53014B
S30650000A540348
S30650000A552723
S30650000A5685C4
S30650000A570048
S30650000A582324
S30650000A592C1A
S30650000A5AD174
S30650000A5B0044
S30650000A5C83C0
S30650000A5D261C
S30650000A5E073A
S30650000A5F023E
S30650000A6063DC
S30650000A619EA0
S30650000A620637
S30650000A63221A
S30650000A646FCC
S30650000A65003A
S30650000A66C079
S30650000A672F09
S30650000A6883B4
S30650000A69270F
S30650000A6A0530
S30650000A6B0034
S30650000A6C2310
S30650000A6D240E
S30650000A6E0130
S30650000A6F0030
S30650000A7083AC
S30650000A71A787
S30650000A7287A6
S30650000A73002C
S30650000A7483A8
S30650000A75A783
S30650000A760722
S30650000A770028
S30650000A782304
S30650000A792600
S30650000A7A0124
S30650000A7B0024
S30650000A7C83A0
S30650000A7D26FC
S30650000A7E859C
S30650000A7F0020
S30650000A8023FC
S30650000A8128F6
S30650000A82011C
S30650000A83001C
S30650000A849388
S30650000A850E0C
S30650000A86F029
S30650000A870315
S30650000A8823F4
S30650000A892AEC
S30650000A8A0114
S30650000A8B0014
S30650000A8C23F0
S30650000A8D24EE
S30650000A8E0110
S30650000A8F020E
S30650000A9023EC
S30650000A9126E8
S30650000A92010C
S30650000A93020A
S30650000A940308
S30650000A95A664
S30650000A968683
S30650000A970107
S30650000A9863A4
S30650000A990402
S30650000A9A06FF
S30650000A9B06FE
S30650000A9C8380
S30650000A9D25DD
S30650000A9E41C0
S30650000A9F01FF
S30650000AA0639C
S30650000AA1C03E
S30650000AA2BE3F
S30650000AA306F6
S30650000AA403F8
S30650000AA5A852
S30650000AA606F3
S30650000AA701F7
S30650000AA813E4
S30650000AA903F3
S30650000AAA08ED
S30650000AAB00F4
S30650000AAC9360
S30650000AAD08EA
S30650000AAE18D9
S30650000AAF00F0
S30650000AB0935C
S30650000AB18866
S30650000AB2F8F5
S30650000AB3FFED
S30650000AB46388
S30650000AB59E4C
S30650000AB608E1
S30650000AB700E8
S30650000AB88364
S30650000AB925C1
S30650000ABA41A4
S30650000ABB01E3
S30650000ABCB330
S30650000ABD855D
S30650000ABE05DC
S30650000ABF01DF
S30650000AC013CC
S30650000AC106D8
S30650000AC2F6E7
S30650000AC3FFDD
S30650000AC423B8
S30650000AC52AB0
S30650000AC6B128
S30650000AC700D8
S30650000AC823B4
S30650000AC9AC2A
S30650000ACAC60F
S30650000ACB00D4
S30650000ACC6F64
S30650000ACDF0E2
S30650000ACE9F32
S30650000ACFFCD4
S30650000AD003CC
S30650000AD1AE20
S30650000AD24687
S30650000AD301CB
S30650000AD413B8
S30650000AD50FBB
S30650000AD61EAB
S30650000AD700C8
S30650000AD88344
S30650000AD925A1
S30650000ADA4184
S30650000ADB01C3
S30650000ADCB310
S30650000ADD853D
S30650000ADE655C
S30650000ADF00C0
S30650000AE0239C
S30650000AE1AA14
S30650000AE2E6D7
S30650000AE301BB
S30650000AE49328
S30650000AE58535
S30650000AE6F5C4
S30650000AE7FFB9
S30650000AE803B4
S30650000AE94E68
S30650000AEA0EA7
S30650000AEB00B4
S30650000AEC13A0
S30650000AED0FA3
S30650000AEE01B0
S30650000AEF03AD
S30650000AF0B3FC
S30650000AF105A9
S30650000AF2BFEE
S30650000AF300AC
S30650000AF42388
S30650000AF58C1E
S30650000AF6C5E4
S30650000AF7FFA9
S30650000AF81394
S30650000AF903A3
S30650000AFAF3B2
S30650000AFBFFA5
S30650000AFC6F34
S30650000AFDF0B2
S30650000AFE5F42
S30650000AFFFBA5
S30650000B00039B
S30650000B014E4F
S30650000B02811B
S30650000B030299
S30650000B048317
S30650000B054851
S30650000B069107
S30650000B070295
S30650000B080393
S30650000B09484D
S30650000B0AA1F3
S30650000B0B0291
S30650000B0C830F
S30650000B0D454C
S30650000B0EB1DF
S30650000B0F028D
S30650000B1093FB
S30650000B11F895
S30650000B12F894
S30650000B130F7C
S30650000B141377
S30650000B15F396
S30650000B16F593
S30650000B170F78
S30650000B1893F3
S30650000B1998ED
S30650000B1A087C
S30650000B1B0182
S30650000B1C93EF
S30650000B1D156C
S30650000B1E8EF2
S30650000B1F017E
S30650000B20B3CB
S30650000B21E598
S30650000B221567
S30650000B23017A
S30650000B241367
S30650000B257801
S30650000B26F880
S30650000B270F68
S30650000B28B3C3
S30650000B29E590
S30650000B2A650F
S30650000B2B0073
S30650000B2C135F
S30650000B2D1859
S30650000B2E88E8
S30650000B2F006F
S30650000B30B3BB
S30650000B31E588
S30650000B320567
S30650000B33016A
S30650000B342347
S30650000B35A4C5
S30650000B36B7B1
S30650000B370067
S30650000B380363
S30650000B394E17
S30650000B3AC1A3
S30650000B3B0261
S30650000B3C83DF
S30650000B3D4819
S30650000B3ED18F
S30650000B3F025D
S30650000B40035B
S30650000B414815
S30650000B42E17B
S30650000B430259
S30650000B4483D7
S30650000B454514
S30650000B46F167
S30650000B470255
S30650000B4893C3
S30650000B49F85D
S30650000B4AF85C
S30650000B4B0F44
S30650000B4C133F
S30650000B4DF35E
S30650000B4EF55B
S30650000B4F0F40
S30650000B5093BB
S30650000B5198B5
S30650000B520844
S30650000B53014A
S30650000B5493B7
S30650000B551534
S30650000B568EBA
S30650000B570146
S30650000B581333
S30650000B5978CD
S30650000B5AF84C
S30650000B5B0F34
S30650000B5CB38F
S30650000B5DE55C
S30650000B5E152B
S30650000B5F013E
S30650000B60132B
S30650000B611825
S30650000B6288B4
S30650000B63003B
S30650000B64B387
S30650000B65E554
S30650000B6665D3
S30650000B670037
S30650000B68B383
S30650000B69E550
S30650000B6A052F
S30650000B6B0132
S30650000B6C230F
S30650000B6DA68B
S30650000B6EB779
S30650000B6F002F
S30650000B70032B
S30650000B712805
S30650000B7241EB
S30650000B73012A
S30650000B749397
S30650000B750524
S30650000B760028
S30650000B770225
S30650000B7863C3
S30650000B79C65F
S30650000B7A051F
S30650000B7B0122
S30650000B7C839F
S30650000B7D25FC
S30650000B7E41DF
S30650000B7F011E
S30650000B806FAF
S30650000B81001D
S30650000B82001C
S30650000B830219
S30650000B848397
S30650000B8525F4
S30650000B8641D7
S30650000B870116
S30650000B889383
S30650000B898590
S30650000B8A050F
S30650000B8BFE15
S30650000B8C13FF
S30650000B8D9879
S30650000B8E858B
S30650000B8F000F
S30650000B90B757
S30650000B9145C8
S30650000B92000C
S30650000B93000B
S30650000B949377
S30650000B958584
S30650000B960503
S30650000B97F017
S30650000B98B353
S30650000B997590
S30650000B9AB84C
S30650000B9B0003
S30650000B9CB34F
S30650000B9DC53C
S30650000B9E55AB
S30650000B9FC03F
S30650000BA023DB
S30650000BA1A855
S30650000BA2B745
S30650000BA300FB
S30650000BA423D7
S30650000BA5AA4F
S30650000BA607F1
S30650000BA700F7
S30650000BA86393
S30650000BA912E3
S30650000BAA06EE
S30650000BAB02F1
S30650000BAC836F
S30650000BADA64B
S30650000BAE06EA
S30650000BAF02ED
S30650000BB0638B
S30650000BB1925B
S30650000BB206E6
S30650000BB30EDD
S30650000BB49357
S30650000BB506E3
S30650000BB620C8
S30650000BB710D7
S30650000BB823C3
S30650000BB9A045
S30650000BBAD70D
S30650000BBB00E3
S30650000BBC835F
S30650000BBDA63B
S30650000BBE07D9
S30650000BBF00DF
S30650000BC0B32B
S30650000BC1B627
S30650000BC206D6
S30650000BC3DFFC
S30650000BC4E3F7
S30650000BC5BC1D
S30650000BC616C2
S30650000BC7FED9
S30650000BC86F67
S30650000BC900D5
S30650000BCAC014
S30650000BCB0CC7
S30650000BCC834F
S30650000BCDA52C
S30650000BCE07C9
S30650000BCF01CE
S30650000BD023AB
S30650000BD124A9
S30650000BD2B11B
S30650000BD300CB
S30650000BD48347
S30650000BD5A524
S30650000BD606C2
S30650000BD701C6
S30650000BD83393
S30650000BD906BF
S30650000BDAB60E
S30650000BDB02C1
S30650000BDC239F
S30650000BDD269B
S30650000BDEC1FF
S30650000BDF00BF
S30650000BE0833B
S30650000BE12598
S30650000BE2C1FB
S30650000BE300BB
S30650000BE403B7
S30650000BE52693
S30650000BE68137
S30650000BE700B7
S30650000BE89323
S30650000BE99520
S30650000BEA05AF
S30650000BEB01B2
S30650000BEC337F
S30650000BED565B
S30650000BEE06AA
S30650000BEF109F
S30650000BF0337B
S30650000BF1E6C7
S30650000BF2C5E7
S30650000BF300AB
S30650000BF42387
S30650000BF5A801
S30650000BF6C7E1
S30650000BF700A7
S30650000BF803A3
S30650000BF9267F
S30650000BFAC1E3
S30650000BFB00A3
S30650000BFC138F
S30650000BFD564B
S30650000BFE564A
S30650000BFF405F
S30650000C00336A
S30650000C013666
S30650000C02B6E5
S30650000C03E8B2
S30650000C042376
S30650000C052870
S30650000C06C1D6
S30650000C070096
S30650000C080392
S30650000C09266E
S30650000C0AC1D2
S30650000C0B0092
S30650000C0C335E
S30650000C0D365A
S30650000C0E5639
S30650000C0FF49A
S30650000C10632A
S30650000C110884
S30650000C120685
S30650000C13008A
S30650000C140386
S30650000C152662
S30650000C160186
S30650000C170185
S30650000C181372
S30650000C19067E
S30650000C1A166D
S30650000C1B0082
S30650000C1C235E
S30650000C1D2858
S30650000C1EC1BE
S30650000C1F007E
S30650000C20136A
S30650000C210676
S30650000C22205B
S30650000C23106A
S30650000C240376
S30650000C25A8D0
S30650000C264631
S30650000C270175
S30650000C2893E2
S30650000C29086C
S30650000C2A7003
S30650000C2B0072
S30650000C2C234E
S30650000C2DA0D0
S30650000C2EC7A8
S30650000C2F006E
S30650000C30234A
S30650000C312A42
S30650000C32016A
S30650000C33006A
S30650000C341356
S30650000C350662
S30650000C360166
S30650000C370363
S30650000C3883E2
S30650000C39253F
S30650000C3A4122
S30650000C3B0161
S30650000C3C035E
S30650000C3D263A
S30650000C3E0659
S30650000C3FFE60
S30650000C4063FA
S30650000C41D884
S30650000C42C596
S30650000C430258
S30650000C440356
S30650000C45A6B2
S30650000C460750
S30650000C470056
S30650000C481342
S30650000C4956FE
S30650000C4A86CD
S30650000C4B0151
S30650000C4CE36E
S30650000C4DEC64
S30650000C4EC887
S30650000C4FFE50
S30650000C50034A
S30650000C512626
S30650000C52410A
S30650000C530149
S30650000C541336
S30650000C551632
S30650000C562621
S30650000C570046
S30650000C580342
S30650000C5976CE
S30650000C5AC87B
S30650000C5B2022
S30650000C5C231E
S30650000C5DAC94
S30650000C5EC778
S30650000C5F003E
S30650000C60033A
S30650000C612616
S30650000C6241FA
S30650000C630139
S30650000C641326
S30650000C650632
S30650000C661621
S30650000C670036
S30650000C682312
S30650000C692A0A
S30650000C6AC172
S30650000C6B0032
S30650000C6C6FC2
S30650000C6DF040
S30650000C6E9F90
S30650000C6FFC32
S30650000C70032A
S30650000C71A686
S30650000C720724
S30650000C73002A
S30650000C7433F6
S30650000C7536F2
S30650000C760621
S30650000C77DF47
S30650000C78E342
S30650000C793CE8
S30650000C7A160D
S30650000C7BFE24
S30650000C7C23FE
S30650000C7DA47C
S30650000C7E0718
S30650000C7F001E
S30650000C8023FA
S30650000C81A676
S30650000C820714
S30650000C83001A
S30650000C8423F6
S30650000C85A870
S30650000C860710
S30650000C870016
S30650000C8823F2
S30650000C89AA6A
S30650000C8A070C
S30650000C8B0012
S30650000C8C23EE
S30650000C8DAC64
S30650000C8E0609
S30650000C8F000E
S30650000C9023EA
S30650000C91AA62
S30650000C920605
S30650000C93000A
S30650000C9463A6
S30650000C950602
S30650000C960700
S30650000C970CFA
S30650000C986F96
S30650000C99F014
S30650000C9ADF24
S30650000C9BD929
S30650000C9C837E
S30650000C9D25DB
S30650000C9EC738
S30650000C9F01FD
S30650000CA0639A
S30650000CA1807C
S30650000CA205F6
S30650000CA30CEE
S30650000CA403F6
S30650000CA526D2
S30650000CA607F0
S30650000CA701F5
S30650000CA8B342
S30650000CA9866E
S30650000CAAC62D
S30650000CAB02F0
S30650000CAC23CE
S30650000CAD2EC2
S30650000CAED11E
S30650000CAF00EE
S30650000CB0935A
S30650000CB106E6
S30650000CB201EA
S30650000CB303E7
S30650000CB403E6
S30650000CB526C2
S30650000CB6C126
S30650000CB701E5
S30650000CB88362
S30650000CB9A63E
S30650000CBA865D
S30650000CBBFEE4
S30650000CBC13CE
S30650000CBD16CA
S30650000CBE06D9
S30650000CBF01DD
S30650000CC0B32A
S30650000CC1D606
S30650000CC206D5
S30650000CC310CA
S30650000CC4B326
S30650000CC56672
S30650000CC6D601
S30650000CC700D6
S30650000CC823B2
S30650000CC9A82C
S30650000CCAD7FC
S30650000CCB00D2
S30650000CCC834E
S30650000CCD26AA
S30650000CCEC10E
S30650000CCF01CD
S30650000CD0933A
S30650000CD1D6F6
S30650000CD25675
S30650000CD3408A
S30650000CD4B316
S30650000CD5B612
S30650000CD6B611
S30650000CD7E8DE
S30650000CD823A2
S30650000CD920A4
S30650000CDAD1F2
S30650000CDB02C0
S30650000CDC833E
S30650000CDD269A
S30650000CDEC1FE
S30650000CDF01BD
S30650000CE0B30A
S30650000CE1B606
S30650000CE25665
S30650000CE3F4C6
S30650000CE46356
S30650000CE58830
S30650000CE606B1
S30650000CE700B6
S30650000CE88332
S30650000CE9268E
S30650000CEA01B2
S30650000CEB02B0
S30650000CEC931E
S30650000CED862A
S30650000CEE1699
S30650000CEF00AE
S30650000CF0238A
S30650000CF1208C
S30650000CF2D1DA
S30650000CF302A8
S30650000CF49316
S30650000CF506A2
S30650000CF61097
S30650000CF71096
S30650000CF82382
S30650000CF9A004
S30650000CFAD7CC
S30650000CFB00A2
S30650000CFC237E
S30650000CFD227E
S30650000CFE019E
S30650000CFF029C
S30650000D000399
S30650000D012675
S30650000D024159
S30650000D030297
S30650000D048315
S30650000D052671
S30650000D060195
S30650000D070293
S30650000D086331
S30650000D095A39
S30650000D0AD6BC
S30650000D0B028F
S30650000D0C830D
S30650000D0DA6E9
S30650000D0E0787
S30650000D0F008D
S30650000D1093F9
S30650000D11D6B5
S30650000D120684
S30650000D134148
S30650000D14B3D5
S30650000D15B6D1
S30650000D168600
S30650000D17EE97
S30650000D18E3A1
S30650000D198AF9
S30650000D1A067C
S30650000D1BFE83
S30650000D1C83FD
S30650000D1D2659
S30650000D1E413D
S30650000D1F027B
S30650000D2093E9
S30650000D2196E5
S30650000D222654
S30650000D230079
S30650000D240375
S30650000D25A6D1
S30650000D26076F
S30650000D270273
S30650000D28A3D1
S30650000D29E68D
S30650000D2AC5AD
S30650000D2B0071
S30650000D2C83ED
S30650000D2D2649
S30650000D2E412D
S30650000D2F026B
S30650000D3093D9
S30650000D3186E5
S30650000D321654
S30650000D330069
S30650000D342345
S30650000D352245
S30650000D36D195
S30650000D370263
S30650000D386FF5
S30650000D39F073
S30650000D3A9FC3
S30650000D3BFC65
S30650000D3C83DD
S30650000D3DA6B9
S30650000D3E0757
S30650000D3F005D
S30650000D40B3A9
S30650000D41B6A5
S30650000D420654
S30650000D43DF7A
S30650000D44E375
S30650000D45BC9B
S30650000D461640
S30650000D47FE57
S30650000D482331
S30650000D49A4AF
S30650000D4A074B
S30650000D4B0051
S30650000D4C232D
S30650000D4DA6A9
S30650000D4E0747
S30650000D4F004D
S30650000D502329
S30650000D51A8A3
S30650000D520743
S30650000D530049
S30650000D542325
S30650000D55AA9D
S30650000D56073F
S30650000D570045
S30650000D582321
S30650000D592023
S30650000D5A073B
S30650000D5B023F
S30650000D5C231D
S30650000D5D2E11
S30650000D5E0737
S30650000D5F003D
S30650000D6093A9
S30650000D610734
S30650000D62003A
S30650000D630039
S30650000D641325
S30650000D6585B2
S30650000D66072F
S30650000D670035
S30650000D681321
S30650000D690132
S30650000D6A0131
S30650000D6B032E
S30650000D6C67C9
S30650000D6D80AF
S30650000D6E002E
S30650000D6F002D
S30650000D701319
S30650000D710526
S30650000D72002A
S30650000D730029
S30650000D7467C1
S30650000D7580A7
S30650000D760026
S30650000D770025
S30650000D781311
S30650000D79051E
S30650000D7AA082
S30650000D7B0120
S30650000D7C6FB1
S30650000D7D001F
S30650000D7E908E
S30650000D7F2EEF
S30650000D809389
S30650000D810714
S30650000D820515
S30650000D830019
S30650000D848395
S30650000D85A770
S30650000D86070F
S30650000D870015
S30650000D880311
S30650000D8925EE
S30650000D8A858D
S30650000D8B0011
S30650000D8C838D
S30650000D8DA768
S30650000D8E8787
S30650000D8F000D
S30650000D908389
S30650000D91A665
S30650000D920703
S30650000D930009
S30650000D94B751
S30650000D9547C0
S30650000D9610F6
S30650000D971AEB
S30650000D989371
S30650000D99877C
S30650000D9AC73B
S30650000D9B0001
S30650000D9C03FD
S30650000D9DA758
S30650000D9E07F7
S30650000D9F00FD
S30650000DA033C9
S30650000DA147B4
S30650000DA2A753
S30650000DA3C138
S30650000DA423D5
S30650000DA5A057
S30650000DA6E70F
S30650000DA700F5
S30650000DA88371
S30650000DA9A64D
S30650000DAA866C
S30650000DAB02EF
S30650000DAC6F81
S30650000DAD10DF
S30650000DAEC02E
S30650000DAF628B
S30650000DB08369
S30650000DB127C4
S30650000DB205E5
S30650000DB300E9
S30650000DB413D5
S30650000DB501E6
S30650000DB601E5
S30650000DB7FFE6
S30650000DB88361
S30650000DB9A73C
S30650000DBA875B
S30650000DBB00E1
S30650000DBC23BD
S30650000DBD22BD
S30650000DBE914D
S30650000DBF00DD
S30650000DC08359
S30650000DC1A437
S30650000DC207D3
S30650000DC300D9
S30650000DC48355
S30650000DC527B0
S30650000DC68551
S30650000DC700D5
S30650000DC823B1
S30650000DC924AF
S30650000DCA8151
S30650000DCB00D1
S30650000DCC03CD
S30650000DCDA42B
S30650000DCE07C7
S30650000DCF00CD
S30650000DD023A9
S30650000DD126A5
S30650000DD211B9
S30650000DD300C9
S30650000DD423A5
S30650000DD520A7
S30650000DD621A5
S30650000DD701C4
S30650000DD88341
S30650000DD9A41F
S30650000DDA843E
S30650000DDB01C0
S30650000DDC635D
S30650000DDD08B7
S30650000DDE04BA
S30650000DDF02BB
S30650000DE013A9
S30650000DE109B2
S30650000DE205B5
S30650000DE300B9
S30650000DE48335
S30650000DE52790
S30650000DE68432
S30650000DE700B5
S30650000DE8B301
S30650000DE9F7BC
S30650000DEAF4BE
S30650000DEB00B1
S30650000DEC634D
S30650000DED8C23
S30650000DEE07A7
S30650000DEF00AD
S30650000DF08329
S30650000DF12784
S30650000DF24466
S30650000DF300A9
S30650000DF41395
S30650000DF58621
S30650000DF604A2
S30650000DF700A5
S30650000DF89311
S30650000DF9059E
S30650000DFA049E
S30650000DFB00A1
S30650000DFC138D
S30650000DFD059A
S30650000DFE0995
S30650000DFF009D
S30650000E00E7B4
S30650000E01801A
S30650000E020792
S30650000E030098
S30650000E040394
S30650000E052472
S30650000E060491
S30650000E070094
S30650000E08E3B0
S30650000E091E74
S30650000E0A048D
S30650000E0BFC94
S30650000E0C830C
S30650000E0D206E
S30650000E0EC1CC
S30650000E0F008C
S30650000E100388
S30650000E112466
S30650000E128108
S30650000E130088
S30650000E148304
S30650000E152462
S30650000E164144
S30650000E170084
S30650000E180380
S30650000E192959
S30650000E1A0180
S30650000E1B0080
S30650000E1C136C
S30650000E1D017D
S30650000E1E017C
S30650000E1F017B
S30650000E206714
S30650000E2180FA
S30650000E220079
S30650000E230078
S30650000E2483F4
S30650000E25274F
S30650000E260570
S30650000E270074
S30650000E2883F0
S30650000E29A7CB
S30650000E2A87EA
S30650000E2B0070
S30650000E2C83EC
S30650000E2DA7C7
S30650000E2E0766
S30650000E2F006C
S30650000E306308
S30650000E3186E4
S30650000E320564
S30650000E330068
S30650000E341354
S30650000E350561
S30650000E36D095
S30650000E37FD67
S30650000E3867FC
S30650000E3980E2
S30650000E3A0061
S30650000E3B0060
S30650000E3C134C
S30650000E3D0757
S30650000E3EF06D
S30650000E3F015B
S30650000E4063F8
S30650000E4176E4
S30650000E42C792
S30650000E430058
S30650000E441344
S30650000E450551
S30650000E46A0B5
S30650000E47FE56
S30650000E4867EC
S30650000E4980D2
S30650000E4A0051
S30650000E4B0050
S30650000E4C93BC
S30650000E4D0549
S30650000E4E103D
S30650000E4F004C
S30650000E503318
S30650000E51B892
S30650000E521633
S30650000E53FC4C
S30650000E540344
S30650000E55A79F
S30650000E56073E
S30650000E570044
S30650000E58B390
S30650000E5995AD
S30650000E5AC57C
S30650000E5B0040
S30650000E5C63DC
S30650000E5D0638
S30650000E5E0835
S30650000E5F003C
S30650000E60B388
S30650000E61E555
S30650000E62E554
S30650000E630038
S30650000E646FC8
S30650000E650036
S30650000E66C075
S30650000E670034
S30650000E6893A0
S30650000E69C56D
S30650000E6AF53C
S30650000E6BFF31
S30650000E6CB37C
S30650000E6DF539
S30650000E6EE548
S30650000E6F002C
S30650000E701318
S30650000E71F535
S30650000E722603
S30650000E730028
S30650000E742304
S30650000E75A086
S30650000E76B76E
S30650000E770024
S30650000E7863C0
S30650000E790C16
S30650000E7A051C
S30650000E7B061A
S30650000E7CE33C
S30650000E7D140A
S30650000E7E0815
S30650000E7FFC20
S30650000E801308
S30650000E81F525
S30650000E820613
S30650000E830414
S30650000E84E334
S30650000E8518FE
S30650000E860510
S30650000E87FA1A
S30650000E881300
S30650000E89F71B
S30650000E8A060B
S30650000E8B020E
S30650000E8C937C
S30650000E8D0509
S30650000E8E10FD
S30650000E8F000C
S30650000E9063A8
S30650000E910A00
S30650000E920702
S30650000E930008
S30650000E940304
S30650000E95A75F
S30650000E9647BE
S30650000E970103
S30650000E98B350
S30650000E99956D
S30650000E9AC53C
S30650000E9B0000
S30650000E9CB34C
S30650000E9DE519
S30650000E9EE518
S30650000E9F00FC
S30650000EA06F8C
S30650000EA100FA
S30650000EA240B9
S30650000EA301F7
S30650000EA4B344
S30650000EA59561
S30650000EA6C530
S30650000EA700F4
S30650000EA803F0
S30650000EA9A74B
S30650000EAA47AA
S30650000EAB01EF
S30650000EAC935C
S30650000EADC529
S30650000EAEF5F8
S30650000EAFFFED
S30650000EB0B338
S30650000EB1F5F5
